{
  "_format": "hh-sol-artifact-1",
  "contractName": "ClubToken",
  "sourceName": "contracts/ClubToken.sol",
  "abi": [
    {
      "inputs": [],
      "stateMutability": "nonpayable",
      "type": "constructor"
    },
    {
      "inputs": [],
      "name": "ECDSAInvalidSignature",
      "type": "error"
    },
    {
      "inputs": [
        {
          "internalType": "uint256",
          "name": "length",
          "type": "uint256"
        }
      ],
      "name": "ECDSAInvalidSignatureLength",
      "type": "error"
    },
    {
      "inputs": [
        {
          "internalType": "bytes32",
          "name": "s",
          "type": "bytes32"
        }
      ],
      "name": "ECDSAInvalidSignatureS",
      "type": "error"
    },
    {
      "inputs": [
        {
          "internalType": "address",
          "name": "spender",
          "type": "address"
        },
        {
          "internalType": "uint256",
          "name": "allowance",
          "type": "uint256"
        },
        {
          "internalType": "uint256",
          "name": "needed",
          "type": "uint256"
        }
      ],
      "name": "ERC20InsufficientAllowance",
      "type": "error"
    },
    {
      "inputs": [
        {
          "internalType": "address",
          "name": "sender",
          "type": "address"
        },
        {
          "internalType": "uint256",
          "name": "balance",
          "type": "uint256"
        },
        {
          "internalType": "uint256",
          "name": "needed",
          "type": "uint256"
        }
      ],
      "name": "ERC20InsufficientBalance",
      "type": "error"
    },
    {
      "inputs": [
        {
          "internalType": "address",
          "name": "approver",
          "type": "address"
        }
      ],
      "name": "ERC20InvalidApprover",
      "type": "error"
    },
    {
      "inputs": [
        {
          "internalType": "address",
          "name": "receiver",
          "type": "address"
        }
      ],
      "name": "ERC20InvalidReceiver",
      "type": "error"
    },
    {
      "inputs": [
        {
          "internalType": "address",
          "name": "sender",
          "type": "address"
        }
      ],
      "name": "ERC20InvalidSender",
      "type": "error"
    },
    {
      "inputs": [
        {
          "internalType": "address",
          "name": "spender",
          "type": "address"
        }
      ],
      "name": "ERC20InvalidSpender",
      "type": "error"
    },
    {
      "inputs": [
        {
          "internalType": "uint256",
          "name": "deadline",
          "type": "uint256"
        }
      ],
      "name": "ERC2612ExpiredSignature",
      "type": "error"
    },
    {
      "inputs": [
        {
          "internalType": "address",
          "name": "signer",
          "type": "address"
        },
        {
          "internalType": "address",
          "name": "owner",
          "type": "address"
        }
      ],
      "name": "ERC2612InvalidSigner",
      "type": "error"
    },
    {
      "inputs": [
        {
          "internalType": "address",
          "name": "account",
          "type": "address"
        },
        {
          "internalType": "uint256",
          "name": "currentNonce",
          "type": "uint256"
        }
      ],
      "name": "InvalidAccountNonce",
      "type": "error"
    },
    {
      "inputs": [],
      "name": "InvalidShortString",
      "type": "error"
    },
    {
      "inputs": [
        {
          "internalType": "string",
          "name": "str",
          "type": "string"
        }
      ],
      "name": "StringTooLong",
      "type": "error"
    },
    {
      "anonymous": false,
      "inputs": [
        {
          "indexed": true,
          "internalType": "address",
          "name": "owner",
          "type": "address"
        },
        {
          "indexed": true,
          "internalType": "address",
          "name": "spender",
          "type": "address"
        },
        {
          "indexed": false,
          "internalType": "uint256",
          "name": "value",
          "type": "uint256"
        }
      ],
      "name": "Approval",
      "type": "event"
    },
    {
      "anonymous": false,
      "inputs": [],
      "name": "EIP712DomainChanged",
      "type": "event"
    },
    {
      "anonymous": false,
      "inputs": [
        {
          "indexed": true,
          "internalType": "address",
          "name": "from",
          "type": "address"
        },
        {
          "indexed": true,
          "internalType": "address",
          "name": "to",
          "type": "address"
        },
        {
          "indexed": false,
          "internalType": "uint256",
          "name": "value",
          "type": "uint256"
        }
      ],
      "name": "Transfer",
      "type": "event"
    },
    {
      "inputs": [],
      "name": "DOMAIN_SEPARATOR",
      "outputs": [
        {
          "internalType": "bytes32",
          "name": "",
          "type": "bytes32"
        }
      ],
      "stateMutability": "view",
      "type": "function"
    },
    {
      "inputs": [
        {
          "internalType": "address",
          "name": "owner",
          "type": "address"
        },
        {
          "internalType": "address",
          "name": "spender",
          "type": "address"
        }
      ],
      "name": "allowance",
      "outputs": [
        {
          "internalType": "uint256",
          "name": "",
          "type": "uint256"
        }
      ],
      "stateMutability": "view",
      "type": "function"
    },
    {
      "inputs": [
        {
          "internalType": "address",
          "name": "spender",
          "type": "address"
        },
        {
          "internalType": "uint256",
          "name": "value",
          "type": "uint256"
        }
      ],
      "name": "approve",
      "outputs": [
        {
          "internalType": "bool",
          "name": "",
          "type": "bool"
        }
      ],
      "stateMutability": "nonpayable",
      "type": "function"
    },
    {
      "inputs": [
        {
          "internalType": "address",
          "name": "account",
          "type": "address"
        }
      ],
      "name": "balanceOf",
      "outputs": [
        {
          "internalType": "uint256",
          "name": "",
          "type": "uint256"
        }
      ],
      "stateMutability": "view",
      "type": "function"
    },
    {
      "inputs": [],
      "name": "decimals",
      "outputs": [
        {
          "internalType": "uint8",
          "name": "",
          "type": "uint8"
        }
      ],
      "stateMutability": "view",
      "type": "function"
    },
    {
      "inputs": [],
      "name": "eip712Domain",
      "outputs": [
        {
          "internalType": "bytes1",
          "name": "fields",
          "type": "bytes1"
        },
        {
          "internalType": "string",
          "name": "name",
          "type": "string"
        },
        {
          "internalType": "string",
          "name": "version",
          "type": "string"
        },
        {
          "internalType": "uint256",
          "name": "chainId",
          "type": "uint256"
        },
        {
          "internalType": "address",
          "name": "verifyingContract",
          "type": "address"
        },
        {
          "internalType": "bytes32",
          "name": "salt",
          "type": "bytes32"
        },
        {
          "internalType": "uint256[]",
          "name": "extensions",
          "type": "uint256[]"
        }
      ],
      "stateMutability": "view",
      "type": "function"
    },
    {
      "inputs": [],
      "name": "name",
      "outputs": [
        {
          "internalType": "string",
          "name": "",
          "type": "string"
        }
      ],
      "stateMutability": "view",
      "type": "function"
    },
    {
      "inputs": [
        {
          "internalType": "address",
          "name": "owner",
          "type": "address"
        }
      ],
      "name": "nonces",
      "outputs": [
        {
          "internalType": "uint256",
          "name": "",
          "type": "uint256"
        }
      ],
      "stateMutability": "view",
      "type": "function"
    },
    {
      "inputs": [],
      "name": "owner",
      "outputs": [
        {
          "internalType": "address",
          "name": "",
          "type": "address"
        }
      ],
      "stateMutability": "view",
      "type": "function"
    },
    {
      "inputs": [
        {
          "internalType": "address",
          "name": "owner",
          "type": "address"
        },
        {
          "internalType": "address",
          "name": "spender",
          "type": "address"
        },
        {
          "internalType": "uint256",
          "name": "value",
          "type": "uint256"
        },
        {
          "internalType": "uint256",
          "name": "deadline",
          "type": "uint256"
        },
        {
          "internalType": "uint8",
          "name": "v",
          "type": "uint8"
        },
        {
          "internalType": "bytes32",
          "name": "r",
          "type": "bytes32"
        },
        {
          "internalType": "bytes32",
          "name": "s",
          "type": "bytes32"
        }
      ],
      "name": "permit",
      "outputs": [],
      "stateMutability": "nonpayable",
      "type": "function"
    },
    {
      "inputs": [],
      "name": "symbol",
      "outputs": [
        {
          "internalType": "string",
          "name": "",
          "type": "string"
        }
      ],
      "stateMutability": "view",
      "type": "function"
    },
    {
      "inputs": [],
      "name": "totalSupply",
      "outputs": [
        {
          "internalType": "uint256",
          "name": "",
          "type": "uint256"
        }
      ],
      "stateMutability": "view",
      "type": "function"
    },
    {
      "inputs": [
        {
          "internalType": "address",
          "name": "to",
          "type": "address"
        },
        {
          "internalType": "uint256",
          "name": "value",
          "type": "uint256"
        }
      ],
      "name": "transfer",
      "outputs": [
        {
          "internalType": "bool",
          "name": "",
          "type": "bool"
        }
      ],
      "stateMutability": "nonpayable",
      "type": "function"
    },
    {
      "inputs": [
        {
          "internalType": "address",
          "name": "from",
          "type": "address"
        },
        {
          "internalType": "address",
          "name": "to",
          "type": "address"
        },
        {
          "internalType": "uint256",
          "name": "value",
          "type": "uint256"
        }
      ],
      "name": "transferFrom",
      "outputs": [
        {
          "internalType": "bool",
          "name": "",
          "type": "bool"
        }
      ],
      "stateMutability": "nonpayable",
      "type": "function"
    }
  ],
  "bytecode": "0x61018060405234801561001157600080fd5b506040518060400160405280600981526020017f436c7562546f6b656e0000000000000000000000000000000000000000000000815250806040518060400160405280600181526020017f31000000000000000000000000000000000000000000000000000000000000008152506040518060400160405280600981526020017f436c7562546f6b656e00000000000000000000000000000000000000000000008152506040518060400160405280600481526020017f434c55420000000000000000000000000000000000000000000000000000000081525081600390816100fa91906108f1565b50806004908161010a91906108f1565b5050506101216005836102ce60201b90919060201c565b610120818152505061013d6006826102ce60201b90919060201c565b6101408181525050818051906020012060e08181525050808051906020012061010081815250504660a0818152505061017a61031e60201b60201c565b608081815250503073ffffffffffffffffffffffffffffffffffffffff1660c08173ffffffffffffffffffffffffffffffffffffffff16815250505050503373ffffffffffffffffffffffffffffffffffffffff1663890357306040518163ffffffff1660e01b8152600401600060405180830381865afa158015610203573d6000803e3d6000fd5b505050506040513d6000823e3d601f19601f8201168201806040525081019061022c9190610b67565b600860006009600084919050908161024491906108f1565b5083919050908161025591906108f1565b508273ffffffffffffffffffffffffffffffffffffffff166101609073ffffffffffffffffffffffffffffffffffffffff168152505050506102c9610160516102a261037960201b60201c565b600a6102ae9190610d61565b6402540be4006102be9190610dac565b61038260201b60201c565b61101c565b60006020835110156102f0576102e98361040a60201b60201c565b9050610318565b826103008361047260201b60201c565b600001908161030f91906108f1565b5060ff60001b90505b92915050565b60007f8b73c3c69bb8fe3d512ecc4cf759cc79239f7b179b0ffacaa9a75d522b39400f60e05161010051463060405160200161035e959493929190610e25565b60405160208183030381529060405280519060200120905090565b60006006905090565b600073ffffffffffffffffffffffffffffffffffffffff168273ffffffffffffffffffffffffffffffffffffffff16036103f45760006040517fec442f050000000000000000000000000000000000000000000000000000000081526004016103eb9190610e78565b60405180910390fd5b6104066000838361047c60201b60201c565b5050565b600080829050601f8151111561045757826040517f305a27a900000000000000000000000000000000000000000000000000000000815260040161044e9190610edd565b60405180910390fd5b80518161046390610f2f565b60001c1760001b915050919050565b6000819050919050565b600073ffffffffffffffffffffffffffffffffffffffff168373ffffffffffffffffffffffffffffffffffffffff16036104ce5780600260008282546104c29190610f96565b925050819055506105a1565b60008060008573ffffffffffffffffffffffffffffffffffffffff1673ffffffffffffffffffffffffffffffffffffffff1681526020019081526020016000205490508181101561055a578381836040517fe450d38c00000000000000000000000000000000000000000000000000000000815260040161055193929190610fca565b60405180910390fd5b8181036000808673ffffffffffffffffffffffffffffffffffffffff1673ffffffffffffffffffffffffffffffffffffffff16815260200190815260200160002081905550505b600073ffffffffffffffffffffffffffffffffffffffff168273ffffffffffffffffffffffffffffffffffffffff16036105ea5780600260008282540392505081905550610637565b806000808473ffffffffffffffffffffffffffffffffffffffff1673ffffffffffffffffffffffffffffffffffffffff168152602001908152602001600020600082825401925050819055505b8173ffffffffffffffffffffffffffffffffffffffff168373ffffffffffffffffffffffffffffffffffffffff167fddf252ad1be2c89b69c2b068fc378daa952ba7f163c4a11628f55a4df523b3ef836040516106949190611001565b60405180910390a3505050565b600081519050919050565b7f4e487b7100000000000000000000000000000000000000000000000000000000600052604160045260246000fd5b7f4e487b7100000000000000000000000000000000000000000000000000000000600052602260045260246000fd5b6000600282049050600182168061072257607f821691505b602082108103610735576107346106db565b5b50919050565b60008190508160005260206000209050919050565b60006020601f8301049050919050565b600082821b905092915050565b60006008830261079d7fffffffffffffffffffffffffffffffffffffffffffffffffffffffffffffffff82610760565b6107a78683610760565b95508019841693508086168417925050509392505050565b6000819050919050565b6000819050919050565b60006107ee6107e96107e4846107bf565b6107c9565b6107bf565b9050919050565b6000819050919050565b610808836107d3565b61081c610814826107f5565b84845461076d565b825550505050565b600090565b610831610824565b61083c8184846107ff565b505050565b5b8181101561086057610855600082610829565b600181019050610842565b5050565b601f8211156108a5576108768161073b565b61087f84610750565b8101602085101561088e578190505b6108a261089a85610750565b830182610841565b50505b505050565b600082821c905092915050565b60006108c8600019846008026108aa565b1980831691505092915050565b60006108e183836108b7565b9150826002028217905092915050565b6108fa826106a1565b67ffffffffffffffff811115610913576109126106ac565b5b61091d825461070a565b610928828285610864565b600060209050601f83116001811461095b5760008415610949578287015190505b61095385826108d5565b8655506109bb565b601f1984166109698661073b565b60005b828110156109915784890151825560018201915060208501945060208101905061096c565b868310156109ae57848901516109aa601f8916826108b7565b8355505b6001600288020188555050505b505050505050565b6000604051905090565b600080fd5b600080fd5b600073ffffffffffffffffffffffffffffffffffffffff82169050919050565b6000610a02826109d7565b9050919050565b610a12816109f7565b8114610a1d57600080fd5b50565b600081519050610a2f81610a09565b92915050565b600080fd5b600080fd5b6000601f19601f8301169050919050565b610a5982610a3f565b810181811067ffffffffffffffff82111715610a7857610a776106ac565b5b80604052505050565b6000610a8b6109c3565b9050610a978282610a50565b919050565b600067ffffffffffffffff821115610ab757610ab66106ac565b5b610ac082610a3f565b9050602081019050919050565b60005b83811015610aeb578082015181840152602081019050610ad0565b60008484015250505050565b6000610b0a610b0584610a9c565b610a81565b905082815260208101848484011115610b2657610b25610a3a565b5b610b31848285610acd565b509392505050565b600082601f830112610b4e57610b4d610a35565b5b8151610b5e848260208601610af7565b91505092915050565b600080600060608486031215610b8057610b7f6109cd565b5b6000610b8e86828701610a20565b935050602084015167ffffffffffffffff811115610baf57610bae6109d2565b5b610bbb86828701610b39565b925050604084015167ffffffffffffffff811115610bdc57610bdb6109d2565b5b610be886828701610b39565b9150509250925092565b7f4e487b7100000000000000000000000000000000000000000000000000000000600052601160045260246000fd5b60008160011c9050919050565b6000808291508390505b6001851115610c7857808604811115610c5457610c53610bf2565b5b6001851615610c635780820291505b8081029050610c7185610c21565b9450610c38565b94509492505050565b600082610c915760019050610d4d565b81610c9f5760009050610d4d565b8160018114610cb55760028114610cbf57610cee565b6001915050610d4d565b60ff841115610cd157610cd0610bf2565b5b8360020a915084821115610ce857610ce7610bf2565b5b50610d4d565b5060208310610133831016604e8410600b8410161715610d235782820a905083811115610d1e57610d1d610bf2565b5b610d4d565b610d308484846001610c2e565b92509050818404811115610d4757610d46610bf2565b5b81810290505b9392505050565b600060ff82169050919050565b6000610d6c826107bf565b9150610d7783610d54565b9250610da47fffffffffffffffffffffffffffffffffffffffffffffffffffffffffffffffff8484610c81565b905092915050565b6000610db7826107bf565b9150610dc2836107bf565b9250828202610dd0816107bf565b91508282048414831517610de757610de6610bf2565b5b5092915050565b6000819050919050565b610e0181610dee565b82525050565b610e10816107bf565b82525050565b610e1f816109f7565b82525050565b600060a082019050610e3a6000830188610df8565b610e476020830187610df8565b610e546040830186610df8565b610e616060830185610e07565b610e6e6080830184610e16565b9695505050505050565b6000602082019050610e8d6000830184610e16565b92915050565b600082825260208201905092915050565b6000610eaf826106a1565b610eb98185610e93565b9350610ec9818560208601610acd565b610ed281610a3f565b840191505092915050565b60006020820190508181036000830152610ef78184610ea4565b905092915050565b600081519050919050565b6000819050602082019050919050565b6000610f268251610dee565b80915050919050565b6000610f3a82610eff565b82610f4484610f0a565b9050610f4f81610f1a565b92506020821015610f8f57610f8a7fffffffffffffffffffffffffffffffffffffffffffffffffffffffffffffffff83602003600802610760565b831692505b5050919050565b6000610fa1826107bf565b9150610fac836107bf565b9250828201905080821115610fc457610fc3610bf2565b5b92915050565b6000606082019050610fdf6000830186610e16565b610fec6020830185610e07565b610ff96040830184610e07565b949350505050565b60006020820190506110166000830184610e07565b92915050565b60805160a05160c05160e05161010051610120516101405161016051611c74611081600039600061050f01526000610a9b01526000610a6001526000610fb001526000610f8f0152600061095b015260006109b1015260006109da0152611c746000f3fe608060405234801561001057600080fd5b50600436106100ea5760003560e01c80637ecebe001161008c57806395d89b411161006657806395d89b4114610269578063a9059cbb14610287578063d505accf146102b7578063dd62ed3e146102d3576100ea565b80637ecebe00146101f757806384b0196e146102275780638da5cb5b1461024b576100ea565b806323b872dd116100c857806323b872dd1461015b578063313ce5671461018b5780633644e515146101a957806370a08231146101c7576100ea565b806306fdde03146100ef578063095ea7b31461010d57806318160ddd1461013d575b600080fd5b6100f7610303565b604051610104919061149d565b60405180910390f35b61012760048036038101906101229190611558565b610395565b60405161013491906115b3565b60405180910390f35b6101456103b8565b60405161015291906115dd565b60405180910390f35b610175600480360381019061017091906115f8565b6103c2565b60405161018291906115b3565b60405180910390f35b6101936103f1565b6040516101a09190611667565b60405180910390f35b6101b16103fa565b6040516101be919061169b565b60405180910390f35b6101e160048036038101906101dc91906116b6565b610409565b6040516101ee91906115dd565b60405180910390f35b610211600480360381019061020c91906116b6565b610451565b60405161021e91906115dd565b60405180910390f35b61022f610463565b60405161024297969594939291906117eb565b60405180910390f35b61025361050d565b604051610260919061186f565b60405180910390f35b610271610531565b60405161027e919061149d565b60405180910390f35b6102a1600480360381019061029c9190611558565b6105c3565b6040516102ae91906115b3565b60405180910390f35b6102d160048036038101906102cc91906118e2565b6105e6565b005b6102ed60048036038101906102e89190611984565b61072e565b6040516102fa91906115dd565b60405180910390f35b606060088054610312906119f3565b80601f016020809104026020016040519081016040528092919081815260200182805461033e906119f3565b801561038b5780601f106103605761010080835404028352916020019161038b565b820191906000526020600020905b81548152906001019060200180831161036e57829003601f168201915b5050505050905090565b6000806103a06107b5565b90506103ad8185856107bd565b600191505092915050565b6000600254905090565b6000806103cd6107b5565b90506103da8582856107cf565b6103e5858585610863565b60019150509392505050565b60006006905090565b6000610404610957565b905090565b60008060008373ffffffffffffffffffffffffffffffffffffffff1673ffffffffffffffffffffffffffffffffffffffff168152602001908152602001600020549050919050565b600061045c82610a0e565b9050919050565b600060608060008060006060610477610a57565b61047f610a92565b46306000801b600067ffffffffffffffff8111156104a05761049f611a24565b5b6040519080825280602002602001820160405280156104ce5781602001602082028036833780820191505090505b507f0f00000000000000000000000000000000000000000000000000000000000000959493929190965096509650965096509650965090919293949596565b7f000000000000000000000000000000000000000000000000000000000000000081565b606060098054610540906119f3565b80601f016020809104026020016040519081016040528092919081815260200182805461056c906119f3565b80156105b95780601f1061058e576101008083540402835291602001916105b9565b820191906000526020600020905b81548152906001019060200180831161059c57829003601f168201915b5050505050905090565b6000806105ce6107b5565b90506105db818585610863565b600191505092915050565b8342111561062b57836040517f6279130200000000000000000000000000000000000000000000000000000000815260040161062291906115dd565b60405180910390fd5b60007f6e71edae12b1b97f4d1f60370fef10105fa2faae0126114a169c64845d6126c988888861065a8c610acd565b8960405160200161067096959493929190611a53565b604051602081830303815290604052805190602001209050600061069382610b24565b905060006106a382878787610b3e565b90508973ffffffffffffffffffffffffffffffffffffffff168173ffffffffffffffffffffffffffffffffffffffff161461071757808a6040517f4b800e4600000000000000000000000000000000000000000000000000000000815260040161070e929190611ab4565b60405180910390fd5b6107228a8a8a6107bd565b50505050505050505050565b6000600160008473ffffffffffffffffffffffffffffffffffffffff1673ffffffffffffffffffffffffffffffffffffffff16815260200190815260200160002060008373ffffffffffffffffffffffffffffffffffffffff1673ffffffffffffffffffffffffffffffffffffffff16815260200190815260200160002054905092915050565b600033905090565b6107ca8383836001610b6e565b505050565b60006107db848461072e565b90507fffffffffffffffffffffffffffffffffffffffffffffffffffffffffffffffff811461085d578181101561084d578281836040517ffb8f41b200000000000000000000000000000000000000000000000000000000815260040161084493929190611add565b60405180910390fd5b61085c84848484036000610b6e565b5b50505050565b600073ffffffffffffffffffffffffffffffffffffffff168373ffffffffffffffffffffffffffffffffffffffff16036108d55760006040517f96c6fd1e0000000000000000000000000000000000000000000000000000000081526004016108cc919061186f565b60405180910390fd5b600073ffffffffffffffffffffffffffffffffffffffff168273ffffffffffffffffffffffffffffffffffffffff16036109475760006040517fec442f0500000000000000000000000000000000000000000000000000000000815260040161093e919061186f565b60405180910390fd5b610952838383610d45565b505050565b60007f000000000000000000000000000000000000000000000000000000000000000073ffffffffffffffffffffffffffffffffffffffff163073ffffffffffffffffffffffffffffffffffffffff161480156109d357507f000000000000000000000000000000000000000000000000000000000000000046145b15610a00577f00000000000000000000000000000000000000000000000000000000000000009050610a0b565b610a08610f6a565b90505b90565b6000600760008373ffffffffffffffffffffffffffffffffffffffff1673ffffffffffffffffffffffffffffffffffffffff168152602001908152602001600020549050919050565b6060610a8d60057f000000000000000000000000000000000000000000000000000000000000000061100090919063ffffffff16565b905090565b6060610ac860067f000000000000000000000000000000000000000000000000000000000000000061100090919063ffffffff16565b905090565b6000600760008373ffffffffffffffffffffffffffffffffffffffff1673ffffffffffffffffffffffffffffffffffffffff1681526020019081526020016000206000815480929190600101919050559050919050565b6000610b37610b31610957565b836110b0565b9050919050565b600080600080610b50888888886110f1565b925092509250610b6082826111e5565b829350505050949350505050565b600073ffffffffffffffffffffffffffffffffffffffff168473ffffffffffffffffffffffffffffffffffffffff1603610be05760006040517fe602df05000000000000000000000000000000000000000000000000000000008152600401610bd7919061186f565b60405180910390fd5b600073ffffffffffffffffffffffffffffffffffffffff168373ffffffffffffffffffffffffffffffffffffffff1603610c525760006040517f94280d62000000000000000000000000000000000000000000000000000000008152600401610c49919061186f565b60405180910390fd5b81600160008673ffffffffffffffffffffffffffffffffffffffff1673ffffffffffffffffffffffffffffffffffffffff16815260200190815260200160002060008573ffffffffffffffffffffffffffffffffffffffff1673ffffffffffffffffffffffffffffffffffffffff168152602001908152602001600020819055508015610d3f578273ffffffffffffffffffffffffffffffffffffffff168473ffffffffffffffffffffffffffffffffffffffff167f8c5be1e5ebec7d5bd14f71427d1e84f3dd0314c0f7b2291e5b200ac8c7c3b92584604051610d3691906115dd565b60405180910390a35b50505050565b600073ffffffffffffffffffffffffffffffffffffffff168373ffffffffffffffffffffffffffffffffffffffff1603610d97578060026000828254610d8b9190611b43565b92505081905550610e6a565b60008060008573ffffffffffffffffffffffffffffffffffffffff1673ffffffffffffffffffffffffffffffffffffffff16815260200190815260200160002054905081811015610e23578381836040517fe450d38c000000000000000000000000000000000000000000000000000000008152600401610e1a93929190611add565b60405180910390fd5b8181036000808673ffffffffffffffffffffffffffffffffffffffff1673ffffffffffffffffffffffffffffffffffffffff16815260200190815260200160002081905550505b600073ffffffffffffffffffffffffffffffffffffffff168273ffffffffffffffffffffffffffffffffffffffff1603610eb35780600260008282540392505081905550610f00565b806000808473ffffffffffffffffffffffffffffffffffffffff1673ffffffffffffffffffffffffffffffffffffffff168152602001908152602001600020600082825401925050819055505b8173ffffffffffffffffffffffffffffffffffffffff168373ffffffffffffffffffffffffffffffffffffffff167fddf252ad1be2c89b69c2b068fc378daa952ba7f163c4a11628f55a4df523b3ef83604051610f5d91906115dd565b60405180910390a3505050565b60007f8b73c3c69bb8fe3d512ecc4cf759cc79239f7b179b0ffacaa9a75d522b39400f7f00000000000000000000000000000000000000000000000000000000000000007f00000000000000000000000000000000000000000000000000000000000000004630604051602001610fe5959493929190611b77565b60405160208183030381529060405280519060200120905090565b606060ff60001b831461101d5761101683611349565b90506110aa565b818054611029906119f3565b80601f0160208091040260200160405190810160405280929190818152602001828054611055906119f3565b80156110a25780601f10611077576101008083540402835291602001916110a2565b820191906000526020600020905b81548152906001019060200180831161108557829003601f168201915b505050505090505b92915050565b60006040517f190100000000000000000000000000000000000000000000000000000000000081528360028201528260228201526042812091505092915050565b60008060007f7fffffffffffffffffffffffffffffff5d576e7357a4501ddfe92f46681b20a08460001c11156111315760006003859250925092506111db565b6000600188888888604051600081526020016040526040516111569493929190611bca565b6020604051602081039080840390855afa158015611178573d6000803e3d6000fd5b505050602060405103519050600073ffffffffffffffffffffffffffffffffffffffff168173ffffffffffffffffffffffffffffffffffffffff16036111cc57600060016000801b935093509350506111db565b8060008060001b935093509350505b9450945094915050565b600060038111156111f9576111f8611c0f565b5b82600381111561120c5761120b611c0f565b5b0315611345576001600381111561122657611225611c0f565b5b82600381111561123957611238611c0f565b5b03611270576040517ff645eedf00000000000000000000000000000000000000000000000000000000815260040160405180910390fd5b6002600381111561128457611283611c0f565b5b82600381111561129757611296611c0f565b5b036112dc578060001c6040517ffce698f70000000000000000000000000000000000000000000000000000000081526004016112d391906115dd565b60405180910390fd5b6003808111156112ef576112ee611c0f565b5b82600381111561130257611301611c0f565b5b0361134457806040517fd78bce0c00000000000000000000000000000000000000000000000000000000815260040161133b919061169b565b60405180910390fd5b5b5050565b60606000611356836113bd565b90506000602067ffffffffffffffff81111561137557611374611a24565b5b6040519080825280601f01601f1916602001820160405280156113a75781602001600182028036833780820191505090505b5090508181528360208201528092505050919050565b60008060ff8360001c169050601f811115611404576040517fb3512b0c00000000000000000000000000000000000000000000000000000000815260040160405180910390fd5b80915050919050565b600081519050919050565b600082825260208201905092915050565b60005b8381101561144757808201518184015260208101905061142c565b60008484015250505050565b6000601f19601f8301169050919050565b600061146f8261140d565b6114798185611418565b9350611489818560208601611429565b61149281611453565b840191505092915050565b600060208201905081810360008301526114b78184611464565b905092915050565b600080fd5b600073ffffffffffffffffffffffffffffffffffffffff82169050919050565b60006114ef826114c4565b9050919050565b6114ff816114e4565b811461150a57600080fd5b50565b60008135905061151c816114f6565b92915050565b6000819050919050565b61153581611522565b811461154057600080fd5b50565b6000813590506115528161152c565b92915050565b6000806040838503121561156f5761156e6114bf565b5b600061157d8582860161150d565b925050602061158e85828601611543565b9150509250929050565b60008115159050919050565b6115ad81611598565b82525050565b60006020820190506115c860008301846115a4565b92915050565b6115d781611522565b82525050565b60006020820190506115f260008301846115ce565b92915050565b600080600060608486031215611611576116106114bf565b5b600061161f8682870161150d565b93505060206116308682870161150d565b925050604061164186828701611543565b9150509250925092565b600060ff82169050919050565b6116618161164b565b82525050565b600060208201905061167c6000830184611658565b92915050565b6000819050919050565b61169581611682565b82525050565b60006020820190506116b0600083018461168c565b92915050565b6000602082840312156116cc576116cb6114bf565b5b60006116da8482850161150d565b91505092915050565b60007fff0000000000000000000000000000000000000000000000000000000000000082169050919050565b611718816116e3565b82525050565b611727816114e4565b82525050565b600081519050919050565b600082825260208201905092915050565b6000819050602082019050919050565b61176281611522565b82525050565b60006117748383611759565b60208301905092915050565b6000602082019050919050565b60006117988261172d565b6117a28185611738565b93506117ad83611749565b8060005b838110156117de5781516117c58882611768565b97506117d083611780565b9250506001810190506117b1565b5085935050505092915050565b600060e082019050611800600083018a61170f565b81810360208301526118128189611464565b905081810360408301526118268188611464565b905061183560608301876115ce565b611842608083018661171e565b61184f60a083018561168c565b81810360c0830152611861818461178d565b905098975050505050505050565b6000602082019050611884600083018461171e565b92915050565b6118938161164b565b811461189e57600080fd5b50565b6000813590506118b08161188a565b92915050565b6118bf81611682565b81146118ca57600080fd5b50565b6000813590506118dc816118b6565b92915050565b600080600080600080600060e0888a031215611901576119006114bf565b5b600061190f8a828b0161150d565b97505060206119208a828b0161150d565b96505060406119318a828b01611543565b95505060606119428a828b01611543565b94505060806119538a828b016118a1565b93505060a06119648a828b016118cd565b92505060c06119758a828b016118cd565b91505092959891949750929550565b6000806040838503121561199b5761199a6114bf565b5b60006119a98582860161150d565b92505060206119ba8582860161150d565b9150509250929050565b7f4e487b7100000000000000000000000000000000000000000000000000000000600052602260045260246000fd5b60006002820490506001821680611a0b57607f821691505b602082108103611a1e57611a1d6119c4565b5b50919050565b7f4e487b7100000000000000000000000000000000000000000000000000000000600052604160045260246000fd5b600060c082019050611a68600083018961168c565b611a75602083018861171e565b611a82604083018761171e565b611a8f60608301866115ce565b611a9c60808301856115ce565b611aa960a08301846115ce565b979650505050505050565b6000604082019050611ac9600083018561171e565b611ad6602083018461171e565b9392505050565b6000606082019050611af2600083018661171e565b611aff60208301856115ce565b611b0c60408301846115ce565b949350505050565b7f4e487b7100000000000000000000000000000000000000000000000000000000600052601160045260246000fd5b6000611b4e82611522565b9150611b5983611522565b9250828201905080821115611b7157611b70611b14565b5b92915050565b600060a082019050611b8c600083018861168c565b611b99602083018761168c565b611ba6604083018661168c565b611bb360608301856115ce565b611bc0608083018461171e565b9695505050505050565b6000608082019050611bdf600083018761168c565b611bec6020830186611658565b611bf9604083018561168c565b611c06606083018461168c565b95945050505050565b7f4e487b7100000000000000000000000000000000000000000000000000000000600052602160045260246000fdfea264697066735822122082d6e7d7563dd0ddfbebde166db90f4d267d63d71759dc209ea46ea1286ffe6764736f6c634300081b0033",
  "linkReferences": {},
  "deployedLinkReferences": {}
}