{
  "_format": "hh-sol-artifact-1",
  "contractName": "NonfungibleActivityManager",
  "sourceName": "contracts/NonfungibleActivityManager.sol",
  "abi": [
    {
      "inputs": [
        {
          "internalType": "address",
          "name": "_foundation",
          "type": "address"
        },
        {
          "internalType": "address",
          "name": "_treasury",
          "type": "address"
        },
        {
          "internalType": "address",
          "name": "_admin",
          "type": "address"
        },
        {
          "internalType": "address",
          "name": "_airdropManager",
          "type": "address"
        },
        {
          "internalType": "string",
          "name": "baseURI_",
          "type": "string"
        }
      ],
      "stateMutability": "nonpayable",
      "type": "constructor"
    },
    {
      "inputs": [],
      "name": "AccessControlBadConfirmation",
      "type": "error"
    },
    {
      "inputs": [
        {
          "internalType": "address",
          "name": "account",
          "type": "address"
        },
        {
          "internalType": "bytes32",
          "name": "neededRole",
          "type": "bytes32"
        }
      ],
      "name": "AccessControlUnauthorizedAccount",
      "type": "error"
    },
    {
      "inputs": [
        {
          "internalType": "address",
          "name": "sender",
          "type": "address"
        },
        {
          "internalType": "uint256",
          "name": "tokenId",
          "type": "uint256"
        },
        {
          "internalType": "address",
          "name": "owner",
          "type": "address"
        }
      ],
      "name": "ERC721IncorrectOwner",
      "type": "error"
    },
    {
      "inputs": [
        {
          "internalType": "address",
          "name": "operator",
          "type": "address"
        },
        {
          "internalType": "uint256",
          "name": "tokenId",
          "type": "uint256"
        }
      ],
      "name": "ERC721InsufficientApproval",
      "type": "error"
    },
    {
      "inputs": [
        {
          "internalType": "address",
          "name": "approver",
          "type": "address"
        }
      ],
      "name": "ERC721InvalidApprover",
      "type": "error"
    },
    {
      "inputs": [
        {
          "internalType": "address",
          "name": "operator",
          "type": "address"
        }
      ],
      "name": "ERC721InvalidOperator",
      "type": "error"
    },
    {
      "inputs": [
        {
          "internalType": "address",
          "name": "owner",
          "type": "address"
        }
      ],
      "name": "ERC721InvalidOwner",
      "type": "error"
    },
    {
      "inputs": [
        {
          "internalType": "address",
          "name": "receiver",
          "type": "address"
        }
      ],
      "name": "ERC721InvalidReceiver",
      "type": "error"
    },
    {
      "inputs": [
        {
          "internalType": "address",
          "name": "sender",
          "type": "address"
        }
      ],
      "name": "ERC721InvalidSender",
      "type": "error"
    },
    {
      "inputs": [
        {
          "internalType": "uint256",
          "name": "tokenId",
          "type": "uint256"
        }
      ],
      "name": "ERC721NonexistentToken",
      "type": "error"
    },
    {
      "inputs": [],
      "name": "EnforcedPause",
      "type": "error"
    },
    {
      "inputs": [],
      "name": "ExpectedPause",
      "type": "error"
    },
    {
      "inputs": [],
      "name": "ReentrancyGuardReentrantCall",
      "type": "error"
    },
    {
      "inputs": [
        {
          "internalType": "address",
          "name": "token",
          "type": "address"
        }
      ],
      "name": "SafeERC20FailedOperation",
      "type": "error"
    },
    {
      "inputs": [
        {
          "internalType": "uint256",
          "name": "value",
          "type": "uint256"
        },
        {
          "internalType": "uint256",
          "name": "length",
          "type": "uint256"
        }
      ],
      "name": "StringsInsufficientHexLength",
      "type": "error"
    },
    {
      "anonymous": false,
      "inputs": [
        {
          "indexed": true,
          "internalType": "address",
          "name": "owner",
          "type": "address"
        },
        {
          "indexed": true,
          "internalType": "address",
          "name": "approved",
          "type": "address"
        },
        {
          "indexed": true,
          "internalType": "uint256",
          "name": "tokenId",
          "type": "uint256"
        }
      ],
      "name": "Approval",
      "type": "event"
    },
    {
      "anonymous": false,
      "inputs": [
        {
          "indexed": true,
          "internalType": "address",
          "name": "owner",
          "type": "address"
        },
        {
          "indexed": true,
          "internalType": "address",
          "name": "operator",
          "type": "address"
        },
        {
          "indexed": false,
          "internalType": "bool",
          "name": "approved",
          "type": "bool"
        }
      ],
      "name": "ApprovalForAll",
      "type": "event"
    },
    {
      "anonymous": false,
      "inputs": [
        {
          "indexed": true,
          "internalType": "address",
          "name": "owner",
          "type": "address"
        },
        {
          "indexed": false,
          "internalType": "address",
          "name": "token",
          "type": "address"
        },
        {
          "indexed": false,
          "internalType": "uint256",
          "name": "tokenId",
          "type": "uint256"
        },
        {
          "indexed": false,
          "internalType": "uint64",
          "name": "startTime",
          "type": "uint64"
        },
        {
          "indexed": false,
          "internalType": "uint64",
          "name": "endTime",
          "type": "uint64"
        }
      ],
      "name": "Create",
      "type": "event"
    },
    {
      "anonymous": false,
      "inputs": [
        {
          "indexed": false,
          "internalType": "uint256",
          "name": "tokenId",
          "type": "uint256"
        },
        {
          "indexed": false,
          "internalType": "uint128",
          "name": "amount",
          "type": "uint128"
        },
        {
          "indexed": false,
          "internalType": "uint128",
          "name": "totalAmount",
          "type": "uint128"
        }
      ],
      "name": "Deposit",
      "type": "event"
    },
    {
      "anonymous": false,
      "inputs": [
        {
          "indexed": false,
          "internalType": "uint256",
          "name": "tokenId",
          "type": "uint256"
        },
        {
          "indexed": false,
          "internalType": "uint128",
          "name": "distributedAmount",
          "type": "uint128"
        },
        {
          "indexed": false,
          "internalType": "uint128",
          "name": "feeAmount",
          "type": "uint128"
        }
      ],
      "name": "Distribute",
      "type": "event"
    },
    {
      "anonymous": false,
      "inputs": [
        {
          "indexed": false,
          "internalType": "address",
          "name": "account",
          "type": "address"
        }
      ],
      "name": "Paused",
      "type": "event"
    },
    {
      "anonymous": false,
      "inputs": [
        {
          "indexed": false,
          "internalType": "uint256",
          "name": "tokenId",
          "type": "uint256"
        },
        {
          "indexed": false,
          "internalType": "uint128",
          "name": "refundedAmount",
          "type": "uint128"
        }
      ],
      "name": "Refund",
      "type": "event"
    },
    {
      "anonymous": false,
      "inputs": [
        {
          "indexed": true,
          "internalType": "bytes32",
          "name": "role",
          "type": "bytes32"
        },
        {
          "indexed": true,
          "internalType": "bytes32",
          "name": "previousAdminRole",
          "type": "bytes32"
        },
        {
          "indexed": true,
          "internalType": "bytes32",
          "name": "newAdminRole",
          "type": "bytes32"
        }
      ],
      "name": "RoleAdminChanged",
      "type": "event"
    },
    {
      "anonymous": false,
      "inputs": [
        {
          "indexed": true,
          "internalType": "bytes32",
          "name": "role",
          "type": "bytes32"
        },
        {
          "indexed": true,
          "internalType": "address",
          "name": "account",
          "type": "address"
        },
        {
          "indexed": true,
          "internalType": "address",
          "name": "sender",
          "type": "address"
        }
      ],
      "name": "RoleGranted",
      "type": "event"
    },
    {
      "anonymous": false,
      "inputs": [
        {
          "indexed": true,
          "internalType": "bytes32",
          "name": "role",
          "type": "bytes32"
        },
        {
          "indexed": true,
          "internalType": "address",
          "name": "account",
          "type": "address"
        },
        {
          "indexed": true,
          "internalType": "address",
          "name": "sender",
          "type": "address"
        }
      ],
      "name": "RoleRevoked",
      "type": "event"
    },
    {
      "anonymous": false,
      "inputs": [
        {
          "indexed": true,
          "internalType": "address",
          "name": "from",
          "type": "address"
        },
        {
          "indexed": true,
          "internalType": "address",
          "name": "to",
          "type": "address"
        },
        {
          "indexed": true,
          "internalType": "uint256",
          "name": "tokenId",
          "type": "uint256"
        }
      ],
      "name": "Transfer",
      "type": "event"
    },
    {
      "anonymous": false,
      "inputs": [
        {
          "indexed": false,
          "internalType": "address",
          "name": "account",
          "type": "address"
        }
      ],
      "name": "Unpaused",
      "type": "event"
    },
    {
      "inputs": [],
      "name": "ADMIN_ROLE",
      "outputs": [
        {
          "internalType": "bytes32",
          "name": "",
          "type": "bytes32"
        }
      ],
      "stateMutability": "view",
      "type": "function"
    },
    {
      "inputs": [],
      "name": "DEFAULT_ADMIN_ROLE",
      "outputs": [
        {
          "internalType": "bytes32",
          "name": "",
          "type": "bytes32"
        }
      ],
      "stateMutability": "view",
      "type": "function"
    },
    {
      "inputs": [],
      "name": "airdropManager",
      "outputs": [
        {
          "internalType": "address",
          "name": "",
          "type": "address"
        }
      ],
      "stateMutability": "view",
      "type": "function"
    },
    {
      "inputs": [
        {
          "internalType": "address",
          "name": "to",
          "type": "address"
        },
        {
          "internalType": "uint256",
          "name": "tokenId",
          "type": "uint256"
        }
      ],
      "name": "approve",
      "outputs": [],
      "stateMutability": "nonpayable",
      "type": "function"
    },
    {
      "inputs": [
        {
          "internalType": "address",
          "name": "owner",
          "type": "address"
        }
      ],
      "name": "balanceOf",
      "outputs": [
        {
          "internalType": "uint256",
          "name": "",
          "type": "uint256"
        }
      ],
      "stateMutability": "view",
      "type": "function"
    },
    {
      "inputs": [
        {
          "internalType": "address",
          "name": "owner",
          "type": "address"
        },
        {
          "internalType": "address",
          "name": "token",
          "type": "address"
        },
        {
          "internalType": "uint64",
          "name": "startTime",
          "type": "uint64"
        },
        {
          "internalType": "uint64",
          "name": "endTime",
          "type": "uint64"
        }
      ],
      "name": "create",
      "outputs": [
        {
          "internalType": "uint256",
          "name": "tokenId",
          "type": "uint256"
        }
      ],
      "stateMutability": "nonpayable",
      "type": "function"
    },
    {
      "inputs": [
        {
          "internalType": "address",
          "name": "owner",
          "type": "address"
        },
        {
          "internalType": "uint64",
          "name": "startTime",
          "type": "uint64"
        },
        {
          "internalType": "uint64",
          "name": "endTime",
          "type": "uint64"
        },
        {
          "internalType": "address",
          "name": "token",
          "type": "address"
        },
        {
          "internalType": "address",
          "name": "from",
          "type": "address"
        },
        {
          "internalType": "uint128",
          "name": "amount",
          "type": "uint128"
        },
        {
          "internalType": "uint256",
          "name": "deadline",
          "type": "uint256"
        },
        {
          "internalType": "uint8",
          "name": "v",
          "type": "uint8"
        },
        {
          "internalType": "bytes32",
          "name": "r",
          "type": "bytes32"
        },
        {
          "internalType": "bytes32",
          "name": "s",
          "type": "bytes32"
        }
      ],
      "name": "createAndDepositWithPermit",
      "outputs": [
        {
          "internalType": "uint256",
          "name": "tokenId",
          "type": "uint256"
        }
      ],
      "stateMutability": "nonpayable",
      "type": "function"
    },
    {
      "inputs": [
        {
          "internalType": "uint256",
          "name": "tokenId",
          "type": "uint256"
        },
        {
          "internalType": "address",
          "name": "token",
          "type": "address"
        },
        {
          "internalType": "uint128",
          "name": "amount",
          "type": "uint128"
        }
      ],
      "name": "deposit",
      "outputs": [
        {
          "internalType": "uint256",
          "name": "totalAmount",
          "type": "uint256"
        }
      ],
      "stateMutability": "nonpayable",
      "type": "function"
    },
    {
      "inputs": [
        {
          "internalType": "uint256",
          "name": "tokenId",
          "type": "uint256"
        },
        {
          "internalType": "address",
          "name": "token",
          "type": "address"
        },
        {
          "internalType": "address",
          "name": "owner",
          "type": "address"
        },
        {
          "internalType": "uint128",
          "name": "amount",
          "type": "uint128"
        },
        {
          "internalType": "uint256",
          "name": "deadline",
          "type": "uint256"
        },
        {
          "internalType": "uint8",
          "name": "v",
          "type": "uint8"
        },
        {
          "internalType": "bytes32",
          "name": "r",
          "type": "bytes32"
        },
        {
          "internalType": "bytes32",
          "name": "s",
          "type": "bytes32"
        }
      ],
      "name": "depositWithPermit",
      "outputs": [
        {
          "internalType": "uint256",
          "name": "totalAmount",
          "type": "uint256"
        }
      ],
      "stateMutability": "nonpayable",
      "type": "function"
    },
    {
      "inputs": [
        {
          "internalType": "uint256",
          "name": "tokenId",
          "type": "uint256"
        },
        {
          "internalType": "uint128",
          "name": "amount",
          "type": "uint128"
        }
      ],
      "name": "distribute",
      "outputs": [
        {
          "internalType": "uint128",
          "name": "distributedAmount",
          "type": "uint128"
        },
        {
          "internalType": "uint128",
          "name": "feeAmount",
          "type": "uint128"
        },
        {
          "internalType": "uint128",
          "name": "refundedAmount",
          "type": "uint128"
        }
      ],
      "stateMutability": "nonpayable",
      "type": "function"
    },
    {
      "inputs": [],
      "name": "fee",
      "outputs": [
        {
          "internalType": "uint16",
          "name": "",
          "type": "uint16"
        }
      ],
      "stateMutability": "view",
      "type": "function"
    },
    {
      "inputs": [],
      "name": "foundation",
      "outputs": [
        {
          "internalType": "address",
          "name": "",
          "type": "address"
        }
      ],
      "stateMutability": "view",
      "type": "function"
    },
    {
      "inputs": [
        {
          "internalType": "uint256",
          "name": "tokenId",
          "type": "uint256"
        }
      ],
      "name": "getActivity",
      "outputs": [
        {
          "components": [
            {
              "internalType": "address",
              "name": "owner",
              "type": "address"
            },
            {
              "internalType": "address",
              "name": "token",
              "type": "address"
            },
            {
              "internalType": "uint64",
              "name": "startTime",
              "type": "uint64"
            },
            {
              "internalType": "uint64",
              "name": "endTime",
              "type": "uint64"
            },
            {
              "internalType": "uint128",
              "name": "totalAmount",
              "type": "uint128"
            },
            {
              "internalType": "uint128",
              "name": "distributedAmount",
              "type": "uint128"
            },
            {
              "internalType": "uint128",
              "name": "refundedAmount",
              "type": "uint128"
            },
            {
              "internalType": "uint128",
              "name": "feeAmount",
              "type": "uint128"
            }
          ],
          "internalType": "struct NonfungibleActivityManager.Activity",
          "name": "",
          "type": "tuple"
        }
      ],
      "stateMutability": "view",
      "type": "function"
    },
    {
      "inputs": [
        {
          "internalType": "uint256",
          "name": "tokenId",
          "type": "uint256"
        }
      ],
      "name": "getApproved",
      "outputs": [
        {
          "internalType": "address",
          "name": "",
          "type": "address"
        }
      ],
      "stateMutability": "view",
      "type": "function"
    },
    {
      "inputs": [
        {
          "internalType": "bytes32",
          "name": "role",
          "type": "bytes32"
        }
      ],
      "name": "getRoleAdmin",
      "outputs": [
        {
          "internalType": "bytes32",
          "name": "",
          "type": "bytes32"
        }
      ],
      "stateMutability": "view",
      "type": "function"
    },
    {
      "inputs": [
        {
          "internalType": "bytes32",
          "name": "role",
          "type": "bytes32"
        },
        {
          "internalType": "address",
          "name": "account",
          "type": "address"
        }
      ],
      "name": "grantRole",
      "outputs": [],
      "stateMutability": "nonpayable",
      "type": "function"
    },
    {
      "inputs": [
        {
          "internalType": "bytes32",
          "name": "role",
          "type": "bytes32"
        },
        {
          "internalType": "address",
          "name": "account",
          "type": "address"
        }
      ],
      "name": "hasRole",
      "outputs": [
        {
          "internalType": "bool",
          "name": "",
          "type": "bool"
        }
      ],
      "stateMutability": "view",
      "type": "function"
    },
    {
      "inputs": [
        {
          "internalType": "address",
          "name": "owner",
          "type": "address"
        },
        {
          "internalType": "address",
          "name": "operator",
          "type": "address"
        }
      ],
      "name": "isApprovedForAll",
      "outputs": [
        {
          "internalType": "bool",
          "name": "",
          "type": "bool"
        }
      ],
      "stateMutability": "view",
      "type": "function"
    },
    {
      "inputs": [],
      "name": "name",
      "outputs": [
        {
          "internalType": "string",
          "name": "",
          "type": "string"
        }
      ],
      "stateMutability": "view",
      "type": "function"
    },
    {
      "inputs": [
        {
          "internalType": "uint256",
          "name": "tokenId",
          "type": "uint256"
        }
      ],
      "name": "ownerOf",
      "outputs": [
        {
          "internalType": "address",
          "name": "",
          "type": "address"
        }
      ],
      "stateMutability": "view",
      "type": "function"
    },
    {
      "inputs": [],
      "name": "pause",
      "outputs": [],
      "stateMutability": "nonpayable",
      "type": "function"
    },
    {
      "inputs": [],
      "name": "paused",
      "outputs": [
        {
          "internalType": "bool",
          "name": "",
          "type": "bool"
        }
      ],
      "stateMutability": "view",
      "type": "function"
    },
    {
      "inputs": [
        {
          "internalType": "uint256",
          "name": "tokenId",
          "type": "uint256"
        }
      ],
      "name": "refund",
      "outputs": [
        {
          "internalType": "uint128",
          "name": "refundedAmount",
          "type": "uint128"
        }
      ],
      "stateMutability": "nonpayable",
      "type": "function"
    },
    {
      "inputs": [
        {
          "internalType": "bytes32",
          "name": "role",
          "type": "bytes32"
        },
        {
          "internalType": "address",
          "name": "callerConfirmation",
          "type": "address"
        }
      ],
      "name": "renounceRole",
      "outputs": [],
      "stateMutability": "nonpayable",
      "type": "function"
    },
    {
      "inputs": [
        {
          "internalType": "bytes32",
          "name": "role",
          "type": "bytes32"
        },
        {
          "internalType": "address",
          "name": "account",
          "type": "address"
        }
      ],
      "name": "revokeRole",
      "outputs": [],
      "stateMutability": "nonpayable",
      "type": "function"
    },
    {
      "inputs": [
        {
          "internalType": "address",
          "name": "from",
          "type": "address"
        },
        {
          "internalType": "address",
          "name": "to",
          "type": "address"
        },
        {
          "internalType": "uint256",
          "name": "tokenId",
          "type": "uint256"
        }
      ],
      "name": "safeTransferFrom",
      "outputs": [],
      "stateMutability": "nonpayable",
      "type": "function"
    },
    {
      "inputs": [
        {
          "internalType": "address",
          "name": "from",
          "type": "address"
        },
        {
          "internalType": "address",
          "name": "to",
          "type": "address"
        },
        {
          "internalType": "uint256",
          "name": "tokenId",
          "type": "uint256"
        },
        {
          "internalType": "bytes",
          "name": "data",
          "type": "bytes"
        }
      ],
      "name": "safeTransferFrom",
      "outputs": [],
      "stateMutability": "nonpayable",
      "type": "function"
    },
    {
      "inputs": [
        {
          "internalType": "address",
          "name": "_airdropManager",
          "type": "address"
        }
      ],
      "name": "setAirdropManager",
      "outputs": [],
      "stateMutability": "nonpayable",
      "type": "function"
    },
    {
      "inputs": [
        {
          "internalType": "address",
          "name": "operator",
          "type": "address"
        },
        {
          "internalType": "bool",
          "name": "approved",
          "type": "bool"
        }
      ],
      "name": "setApprovalForAll",
      "outputs": [],
      "stateMutability": "nonpayable",
      "type": "function"
    },
    {
      "inputs": [
        {
          "internalType": "string",
          "name": "baseURI_",
          "type": "string"
        }
      ],
      "name": "setBaseURI",
      "outputs": [],
      "stateMutability": "nonpayable",
      "type": "function"
    },
    {
      "inputs": [
        {
          "internalType": "uint16",
          "name": "_fee",
          "type": "uint16"
        }
      ],
      "name": "setFee",
      "outputs": [],
      "stateMutability": "nonpayable",
      "type": "function"
    },
    {
      "inputs": [
        {
          "internalType": "bytes4",
          "name": "interfaceId",
          "type": "bytes4"
        }
      ],
      "name": "supportsInterface",
      "outputs": [
        {
          "internalType": "bool",
          "name": "",
          "type": "bool"
        }
      ],
      "stateMutability": "view",
      "type": "function"
    },
    {
      "inputs": [],
      "name": "symbol",
      "outputs": [
        {
          "internalType": "string",
          "name": "",
          "type": "string"
        }
      ],
      "stateMutability": "view",
      "type": "function"
    },
    {
      "inputs": [
        {
          "internalType": "uint256",
          "name": "tokenId",
          "type": "uint256"
        }
      ],
      "name": "tokenURI",
      "outputs": [
        {
          "internalType": "string",
          "name": "",
          "type": "string"
        }
      ],
      "stateMutability": "view",
      "type": "function"
    },
    {
      "inputs": [],
      "name": "totalSupply",
      "outputs": [
        {
          "internalType": "uint256",
          "name": "",
          "type": "uint256"
        }
      ],
      "stateMutability": "view",
      "type": "function"
    },
    {
      "inputs": [
        {
          "internalType": "address",
          "name": "from",
          "type": "address"
        },
        {
          "internalType": "address",
          "name": "to",
          "type": "address"
        },
        {
          "internalType": "uint256",
          "name": "tokenId",
          "type": "uint256"
        }
      ],
      "name": "transferFrom",
      "outputs": [],
      "stateMutability": "nonpayable",
      "type": "function"
    },
    {
      "inputs": [],
      "name": "treasury",
      "outputs": [
        {
          "internalType": "address",
          "name": "",
          "type": "address"
        }
      ],
      "stateMutability": "view",
      "type": "function"
    },
    {
      "inputs": [],
      "name": "unpause",
      "outputs": [],
      "stateMutability": "nonpayable",
      "type": "function"
    }
  ],
  "bytecode": "0x60c06040526001600a55601e600b60006101000a81548161ffff021916908361ffff16021790555034801561003357600080fd5b50604051615fd7380380615fd783398181016040528101906100559190610552565b6040518060400160405280600881526020017f41637469766974790000000000000000000000000000000000000000000000008152506040518060400160405280600381526020017f414354000000000000000000000000000000000000000000000000000000000081525081600090816100d0919061080a565b5080600190816100e0919061080a565b5050506000600660006101000a81548160ff02191690831515021790555060016008819055508473ffffffffffffffffffffffffffffffffffffffff1660a08173ffffffffffffffffffffffffffffffffffffffff16815250508373ffffffffffffffffffffffffffffffffffffffff1660808173ffffffffffffffffffffffffffffffffffffffff168152505081600b60026101000a81548173ffffffffffffffffffffffffffffffffffffffff021916908373ffffffffffffffffffffffffffffffffffffffff16021790555080600990816101be919061080a565b506101d26000801b8661020e60201b60201c565b506102037fa49807205ce4d355092ef5a8a18f56e8913cf4a201fbe287825b095693c217758461020e60201b60201c565b5050505050506108dc565b6000610220838361030c60201b60201c565b6103015760016007600085815260200190815260200160002060000160008473ffffffffffffffffffffffffffffffffffffffff1673ffffffffffffffffffffffffffffffffffffffff16815260200190815260200160002060006101000a81548160ff02191690831515021790555061029e61037760201b60201c565b73ffffffffffffffffffffffffffffffffffffffff168273ffffffffffffffffffffffffffffffffffffffff16847f2f8788117e7eff1d82e926ec794901d17c78024a50270940304540a733656f0d60405160405180910390a460019050610306565b600090505b92915050565b60006007600084815260200190815260200160002060000160008373ffffffffffffffffffffffffffffffffffffffff1673ffffffffffffffffffffffffffffffffffffffff16815260200190815260200160002060009054906101000a900460ff16905092915050565b600033905090565b6000604051905090565b600080fd5b600080fd5b600073ffffffffffffffffffffffffffffffffffffffff82169050919050565b60006103be82610393565b9050919050565b6103ce816103b3565b81146103d957600080fd5b50565b6000815190506103eb816103c5565b92915050565b600080fd5b600080fd5b6000601f19601f8301169050919050565b7f4e487b7100000000000000000000000000000000000000000000000000000000600052604160045260246000fd5b610444826103fb565b810181811067ffffffffffffffff821117156104635761046261040c565b5b80604052505050565b600061047661037f565b9050610482828261043b565b919050565b600067ffffffffffffffff8211156104a2576104a161040c565b5b6104ab826103fb565b9050602081019050919050565b60005b838110156104d65780820151818401526020810190506104bb565b60008484015250505050565b60006104f56104f084610487565b61046c565b905082815260208101848484011115610511576105106103f6565b5b61051c8482856104b8565b509392505050565b600082601f830112610539576105386103f1565b5b81516105498482602086016104e2565b91505092915050565b600080600080600060a0868803121561056e5761056d610389565b5b600061057c888289016103dc565b955050602061058d888289016103dc565b945050604061059e888289016103dc565b93505060606105af888289016103dc565b925050608086015167ffffffffffffffff8111156105d0576105cf61038e565b5b6105dc88828901610524565b9150509295509295909350565b600081519050919050565b7f4e487b7100000000000000000000000000000000000000000000000000000000600052602260045260246000fd5b6000600282049050600182168061063b57607f821691505b60208210810361064e5761064d6105f4565b5b50919050565b60008190508160005260206000209050919050565b60006020601f8301049050919050565b600082821b905092915050565b6000600883026106b67fffffffffffffffffffffffffffffffffffffffffffffffffffffffffffffffff82610679565b6106c08683610679565b95508019841693508086168417925050509392505050565b6000819050919050565b6000819050919050565b60006107076107026106fd846106d8565b6106e2565b6106d8565b9050919050565b6000819050919050565b610721836106ec565b61073561072d8261070e565b848454610686565b825550505050565b600090565b61074a61073d565b610755818484610718565b505050565b5b818110156107795761076e600082610742565b60018101905061075b565b5050565b601f8211156107be5761078f81610654565b61079884610669565b810160208510156107a7578190505b6107bb6107b385610669565b83018261075a565b50505b505050565b600082821c905092915050565b60006107e1600019846008026107c3565b1980831691505092915050565b60006107fa83836107d0565b9150826002028217905092915050565b610813826105e9565b67ffffffffffffffff81111561082c5761082b61040c565b5b6108368254610623565b61084182828561077d565b600060209050601f8311600181146108745760008415610862578287015190505b61086c85826107ee565b8655506108d4565b601f19841661088286610654565b60005b828110156108aa57848901518255600182019150602085019450602081019050610885565b868310156108c757848901516108c3601f8916826107d0565b8355505b6001600288020188555050505b505050505050565b60805160a0516156cf6109086000396000610e0e015260008181610ea7015261147201526156cf6000f3fe608060405234801561001057600080fd5b50600436106102325760003560e01c8063661c27a811610130578063a217fddf116100b8578063d0ba5cca1161007c578063d0ba5cca146106b3578063d547741f146106e3578063ddca3f43146106ff578063e985e9c51461071d578063ef84b2651461074d57610232565b8063a217fddf14610611578063a22cb4651461062f578063b88d4fde1461064b578063bec1de4814610667578063c87b56dd1461068357610232565b80638b49ecf9116100ff5780638b49ecf9146105455780638e0055531461057757806391d1485414610593578063922635d8146105c357806395d89b41146105f357610232565b8063661c27a8146104cf57806370a08231146104ed57806375b238fc1461051d5780638456cb591461053b57610232565b8063278ecde1116101be57806342842e0e1161018257806342842e0e1461042b57806355f804b3146104475780635c975abb1461046357806361d027b3146104815780636352211e1461049f57610232565b8063278ecde11461039b5780632f2ff15d146103cb57806336568abe146103e75780633f4ba83a1461040357806341fbb0501461040d57610232565b8063095ea7b311610205578063095ea7b3146102e557806314e7cc761461030157806318160ddd1461033157806323b872dd1461034f578063248a9ca31461036b57610232565b806301ffc9a71461023757806303fcaf831461026757806306fdde0314610297578063081812fc146102b5575b600080fd5b610251600480360381019061024c9190613bfd565b61077d565b60405161025e9190613c45565b60405180910390f35b610281600480360381019061027c9190613cfe565b61078f565b60405161028e9190613d7e565b60405180910390f35b61029f6107af565b6040516102ac9190613e29565b60405180910390f35b6102cf60048036038101906102ca9190613e77565b610841565b6040516102dc9190613eb3565b60405180910390f35b6102ff60048036038101906102fa9190613ece565b61085d565b005b61031b60048036038101906103169190613f56565b610873565b6040516103289190613d7e565b60405180910390f35b6103396108bb565b6040516103469190613d7e565b60405180910390f35b61036960048036038101906103649190613fa9565b6108d1565b005b61038560048036038101906103809190614032565b6109d3565b604051610392919061406e565b60405180910390f35b6103b560048036038101906103b09190613e77565b6109f3565b6040516103c29190614098565b60405180910390f35b6103e560048036038101906103e091906140b3565b610d3a565b005b61040160048036038101906103fc91906140b3565b610d5c565b005b61040b610dd7565b005b610415610e0c565b6040516104229190613eb3565b60405180910390f35b61044560048036038101906104409190613fa9565b610e30565b005b610461600480360381019061045c9190614228565b610e50565b005b61046b610e8e565b6040516104789190613c45565b60405180910390f35b610489610ea5565b6040516104969190613eb3565b60405180910390f35b6104b960048036038101906104b49190613e77565b610ec9565b6040516104c69190613eb3565b60405180910390f35b6104d7610edb565b6040516104e49190613eb3565b60405180910390f35b61050760048036038101906105029190614271565b610f01565b6040516105149190613d7e565b60405180910390f35b610525610fbb565b604051610532919061406e565b60405180910390f35b610543610fdf565b005b61055f600480360381019061055a919061429e565b611014565b60405161056e939291906142de565b60405180910390f35b610591600480360381019061058c919061434f565b6116a9565b005b6105ad60048036038101906105a891906140b3565b611720565b6040516105ba9190613c45565b60405180910390f35b6105dd60048036038101906105d89190613e77565b61178b565b6040516105ea919061444b565b60405180910390f35b6105fb6119f1565b6040516106089190613e29565b60405180910390f35b610619611a83565b604051610626919061406e565b60405180910390f35b61064960048036038101906106449190614493565b611a8a565b005b61066560048036038101906106609190614574565b611aa0565b005b610681600480360381019061067c9190614271565b611ac5565b005b61069d60048036038101906106989190613e77565b611b17565b6040516106aa9190613e29565b60405180910390f35b6106cd60048036038101906106c89190614630565b611ba1565b6040516106da9190613d7e565b60405180910390f35b6106fd60048036038101906106f891906140b3565b611c5b565b005b610707611c7d565b604051610714919061471e565b60405180910390f35b61073760048036038101906107329190614739565b611c91565b6040516107449190613c45565b60405180910390f35b61076760048036038101906107629190614779565b611d25565b6040516107749190613d7e565b60405180910390f35b600061078882611de2565b9050919050565b6000610799611e5c565b6107a585858585611e9d565b9050949350505050565b6060600080546107be9061485e565b80601f01602080910402602001604051908101604052809291908181526020018280546107ea9061485e565b80156108375780601f1061080c57610100808354040283529160200191610837565b820191906000526020600020905b81548152906001019060200180831161081a57829003601f168201915b5050505050905090565b600061084c8261223a565b50610856826122c2565b9050919050565b61086f828261086a6122ff565b612307565b5050565b600061087d612319565b610885611e5c565b610898846108916122ff565b858561235f565b6fffffffffffffffffffffffffffffffff1690506108b46125cd565b9392505050565b60006001600a546108cc91906148be565b905090565b600073ffffffffffffffffffffffffffffffffffffffff168273ffffffffffffffffffffffffffffffffffffffff16036109435760006040517f64a0ae9200000000000000000000000000000000000000000000000000000000815260040161093a9190613eb3565b60405180910390fd5b600061095783836109526122ff565b6125d7565b90508373ffffffffffffffffffffffffffffffffffffffff168173ffffffffffffffffffffffffffffffffffffffff16146109cd578382826040517f64283d7b0000000000000000000000000000000000000000000000000000000081526004016109c4939291906148f2565b60405180910390fd5b50505050565b600060076000838152602001908152602001600020600101549050919050565b60006109fd612319565b6000600c60008481526020019081526020016000209050621275008160020160009054906101000a900467ffffffffffffffff16610a3b9190614929565b67ffffffffffffffff16421015610a87576040517f08c379a0000000000000000000000000000000000000000000000000000000008152600401610a7e906149b1565b60405180910390fd5b60008160020160089054906101000a90046fffffffffffffffffffffffffffffffff166fffffffffffffffffffffffffffffffff1611610afc576040517f08c379a0000000000000000000000000000000000000000000000000000000008152600401610af390614a1d565b60405180910390fd5b60008160030160009054906101000a90046fffffffffffffffffffffffffffffffff166fffffffffffffffffffffffffffffffff1614610b71576040517f08c379a0000000000000000000000000000000000000000000000000000000008152600401610b6890614a89565b60405180910390fd5b60008160030160109054906101000a90046fffffffffffffffffffffffffffffffff166fffffffffffffffffffffffffffffffff1614610be6576040517f08c379a0000000000000000000000000000000000000000000000000000000008152600401610bdd90614af5565b60405180910390fd5b8060020160089054906101000a90046fffffffffffffffffffffffffffffffff169150818160030160108282829054906101000a90046fffffffffffffffffffffffffffffffff16610c389190614b15565b92506101000a8154816fffffffffffffffffffffffffffffffff02191690836fffffffffffffffffffffffffffffffff160217905550610cf38160000160009054906101000a900473ffffffffffffffffffffffffffffffffffffffff16836fffffffffffffffffffffffffffffffff168360010160009054906101000a900473ffffffffffffffffffffffffffffffffffffffff1673ffffffffffffffffffffffffffffffffffffffff166125f59092919063ffffffff16565b7f0ad8da1ab4be626cf64cf39be7793625fb35d2fcb9661960e4c8ce8c871b66ec8383604051610d24929190614b59565b60405180910390a150610d356125cd565b919050565b610d43826109d3565b610d4c81612674565b610d568383612688565b50505050565b610d646122ff565b73ffffffffffffffffffffffffffffffffffffffff168173ffffffffffffffffffffffffffffffffffffffff1614610dc8576040517f6697b23200000000000000000000000000000000000000000000000000000000815260040160405180910390fd5b610dd2828261277a565b505050565b7fa49807205ce4d355092ef5a8a18f56e8913cf4a201fbe287825b095693c21775610e0181612674565b610e0961286d565b50565b7f000000000000000000000000000000000000000000000000000000000000000081565b610e4b83838360405180602001604052806000815250611aa0565b505050565b7fa49807205ce4d355092ef5a8a18f56e8913cf4a201fbe287825b095693c21775610e7a81612674565b8160099081610e899190614d2e565b505050565b6000600660009054906101000a900460ff16905090565b7f000000000000000000000000000000000000000000000000000000000000000081565b6000610ed48261223a565b9050919050565b600b60029054906101000a900473ffffffffffffffffffffffffffffffffffffffff1681565b60008073ffffffffffffffffffffffffffffffffffffffff168273ffffffffffffffffffffffffffffffffffffffff1603610f745760006040517f89c62b64000000000000000000000000000000000000000000000000000000008152600401610f6b9190613eb3565b60405180910390fd5b600360008373ffffffffffffffffffffffffffffffffffffffff1673ffffffffffffffffffffffffffffffffffffffff168152602001908152602001600020549050919050565b7fa49807205ce4d355092ef5a8a18f56e8913cf4a201fbe287825b095693c2177581565b7fa49807205ce4d355092ef5a8a18f56e8913cf4a201fbe287825b095693c2177561100981612674565b6110116128d0565b50565b6000806000611021612319565b7fa49807205ce4d355092ef5a8a18f56e8913cf4a201fbe287825b095693c2177561104b81612674565b6000600c600088815260200190815260200160002090508060020160009054906101000a900467ffffffffffffffff1667ffffffffffffffff164210156110c7576040517f08c379a00000000000000000000000000000000000000000000000000000000081526004016110be90614e4c565b60405180910390fd5b60008160020160089054906101000a90046fffffffffffffffffffffffffffffffff166fffffffffffffffffffffffffffffffff161161113c576040517f08c379a000000000000000000000000000000000000000000000000000000000815260040161113390614a1d565b60405180910390fd5b60008160030160009054906101000a90046fffffffffffffffffffffffffffffffff166fffffffffffffffffffffffffffffffff16146111b1576040517f08c379a00000000000000000000000000000000000000000000000000000000081526004016111a890614a89565b60405180910390fd5b60008160030160109054906101000a90046fffffffffffffffffffffffffffffffff166fffffffffffffffffffffffffffffffff1614611226576040517f08c379a000000000000000000000000000000000000000000000000000000000815260040161121d90614af5565b60405180910390fd5b8060020160089054906101000a90046fffffffffffffffffffffffffffffffff166fffffffffffffffffffffffffffffffff16866fffffffffffffffffffffffffffffffff1611156112ad576040517f08c379a00000000000000000000000000000000000000000000000000000000081526004016112a490614eb8565b60405180910390fd5b6000866fffffffffffffffffffffffffffffffff16111561152b57612710600b60009054906101000a900461ffff1661ffff16876112eb9190614ed8565b6112f59190614f44565b935083866113039190614f75565b9450848160030160008282829054906101000a90046fffffffffffffffffffffffffffffffff166113349190614b15565b92506101000a8154816fffffffffffffffffffffffffffffffff02191690836fffffffffffffffffffffffffffffffff1602179055506113ed600b60029054906101000a900473ffffffffffffffffffffffffffffffffffffffff16866fffffffffffffffffffffffffffffffff168360010160009054906101000a900473ffffffffffffffffffffffffffffffffffffffff1673ffffffffffffffffffffffffffffffffffffffff166125f59092919063ffffffff16565b6000846fffffffffffffffffffffffffffffffff1611156114ef57838160040160008282829054906101000a90046fffffffffffffffffffffffffffffffff166114379190614b15565b92506101000a8154816fffffffffffffffffffffffffffffffff02191690836fffffffffffffffffffffffffffffffff1602179055506114ee7f0000000000000000000000000000000000000000000000000000000000000000856fffffffffffffffffffffffffffffffff168360010160009054906101000a900473ffffffffffffffffffffffffffffffffffffffff1673ffffffffffffffffffffffffffffffffffffffff166125f59092919063ffffffff16565b5b7fd336a2ffb44612c209a7f211c8a51d8785afdd5f609ded5c6dd3f83708953fb587868660405161152293929190614fb9565b60405180910390a15b858160020160089054906101000a90046fffffffffffffffffffffffffffffffff166115579190614f75565b92506000836fffffffffffffffffffffffffffffffff16111561169857828160030160108282829054906101000a90046fffffffffffffffffffffffffffffffff166115a39190614b15565b92506101000a8154816fffffffffffffffffffffffffffffffff02191690836fffffffffffffffffffffffffffffffff16021790555061165e8160000160009054906101000a900473ffffffffffffffffffffffffffffffffffffffff16846fffffffffffffffffffffffffffffffff168360010160009054906101000a900473ffffffffffffffffffffffffffffffffffffffff1673ffffffffffffffffffffffffffffffffffffffff166125f59092919063ffffffff16565b7f0ad8da1ab4be626cf64cf39be7793625fb35d2fcb9661960e4c8ce8c871b66ec878460405161168f929190614b59565b60405180910390a15b50506116a26125cd565b9250925092565b6000801b6116b681612674565b6127108261ffff1611156116ff576040517f08c379a00000000000000000000000000000000000000000000000000000000081526004016116f69061503c565b60405180910390fd5b81600b60006101000a81548161ffff021916908361ffff1602179055505050565b60006007600084815260200190815260200160002060000160008373ffffffffffffffffffffffffffffffffffffffff1673ffffffffffffffffffffffffffffffffffffffff16815260200190815260200160002060009054906101000a900460ff16905092915050565b611793613ac4565b600c6000838152602001908152602001600020604051806101000160405290816000820160009054906101000a900473ffffffffffffffffffffffffffffffffffffffff1673ffffffffffffffffffffffffffffffffffffffff1673ffffffffffffffffffffffffffffffffffffffff1681526020016001820160009054906101000a900473ffffffffffffffffffffffffffffffffffffffff1673ffffffffffffffffffffffffffffffffffffffff1673ffffffffffffffffffffffffffffffffffffffff1681526020016001820160149054906101000a900467ffffffffffffffff1667ffffffffffffffff1667ffffffffffffffff1681526020016002820160009054906101000a900467ffffffffffffffff1667ffffffffffffffff1667ffffffffffffffff1681526020016002820160089054906101000a90046fffffffffffffffffffffffffffffffff166fffffffffffffffffffffffffffffffff166fffffffffffffffffffffffffffffffff1681526020016003820160009054906101000a90046fffffffffffffffffffffffffffffffff166fffffffffffffffffffffffffffffffff166fffffffffffffffffffffffffffffffff1681526020016003820160109054906101000a90046fffffffffffffffffffffffffffffffff166fffffffffffffffffffffffffffffffff166fffffffffffffffffffffffffffffffff1681526020016004820160009054906101000a90046fffffffffffffffffffffffffffffffff166fffffffffffffffffffffffffffffffff166fffffffffffffffffffffffffffffffff16815250509050919050565b606060018054611a009061485e565b80601f0160208091040260200160405190810160405280929190818152602001828054611a2c9061485e565b8015611a795780601f10611a4e57610100808354040283529160200191611a79565b820191906000526020600020905b815481529060010190602001808311611a5c57829003601f168201915b5050505050905090565b6000801b81565b611a9c611a956122ff565b8383612933565b5050565b611aab8484846108d1565b611abf611ab66122ff565b85858585612aa2565b50505050565b6000801b611ad281612674565b81600b60026101000a81548173ffffffffffffffffffffffffffffffffffffffff021916908373ffffffffffffffffffffffffffffffffffffffff1602179055505050565b6060611b228261223a565b50600060098054611b329061485e565b905011611b4e5760405180602001604052806000815250611b9a565b6009611b6f3073ffffffffffffffffffffffffffffffffffffffff16612c53565b611b7884612c80565b604051602001611b8a93929190615141565b6040516020818303038152906040525b9050919050565b6000611bab612319565b611bb3611e5c565b611bbf8b898c8c611e9d565b90508773ffffffffffffffffffffffffffffffffffffffff1663d505accf883089898989896040518863ffffffff1660e01b8152600401611c0697969594939291906151c1565b600060405180830381600087803b158015611c2057600080fd5b505af1158015611c34573d6000803e3d6000fd5b50505050611c4481888a8961235f565b50611c4d6125cd565b9a9950505050505050505050565b611c64826109d3565b611c6d81612674565b611c77838361277a565b50505050565b600b60009054906101000a900461ffff1681565b6000600560008473ffffffffffffffffffffffffffffffffffffffff1673ffffffffffffffffffffffffffffffffffffffff16815260200190815260200160002060008373ffffffffffffffffffffffffffffffffffffffff1673ffffffffffffffffffffffffffffffffffffffff16815260200190815260200160002060009054906101000a900460ff16905092915050565b6000611d2f612319565b611d37611e5c565b8773ffffffffffffffffffffffffffffffffffffffff1663d505accf883089898989896040518863ffffffff1660e01b8152600401611d7c97969594939291906151c1565b600060405180830381600087803b158015611d9657600080fd5b505af1158015611daa573d6000803e3d6000fd5b50505050611dba89888a8961235f565b6fffffffffffffffffffffffffffffffff169050611dd66125cd565b98975050505050505050565b60007f7965db0b000000000000000000000000000000000000000000000000000000007bffffffffffffffffffffffffffffffffffffffffffffffffffffffff1916827bffffffffffffffffffffffffffffffffffffffffffffffffffffffff19161480611e555750611e5482612d4e565b5b9050919050565b611e64610e8e565b15611e9b576040517fd93c066500000000000000000000000000000000000000000000000000000000815260040160405180910390fd5b565b60008167ffffffffffffffff168367ffffffffffffffff1610611ef5576040517f08c379a0000000000000000000000000000000000000000000000000000000008152600401611eec906152a2565b60405180910390fd5b600a549050611f048582612e30565b6040518061010001604052808673ffffffffffffffffffffffffffffffffffffffff1681526020018573ffffffffffffffffffffffffffffffffffffffff1681526020018467ffffffffffffffff1681526020018367ffffffffffffffff16815260200160006fffffffffffffffffffffffffffffffff16815260200160006fffffffffffffffffffffffffffffffff16815260200160006fffffffffffffffffffffffffffffffff16815260200160006fffffffffffffffffffffffffffffffff16815250600c600083815260200190815260200160002060008201518160000160006101000a81548173ffffffffffffffffffffffffffffffffffffffff021916908373ffffffffffffffffffffffffffffffffffffffff16021790555060208201518160010160006101000a81548173ffffffffffffffffffffffffffffffffffffffff021916908373ffffffffffffffffffffffffffffffffffffffff16021790555060408201518160010160146101000a81548167ffffffffffffffff021916908367ffffffffffffffff16021790555060608201518160020160006101000a81548167ffffffffffffffff021916908367ffffffffffffffff16021790555060808201518160020160086101000a8154816fffffffffffffffffffffffffffffffff02191690836fffffffffffffffffffffffffffffffff16021790555060a08201518160030160006101000a8154816fffffffffffffffffffffffffffffffff02191690836fffffffffffffffffffffffffffffffff16021790555060c08201518160030160106101000a8154816fffffffffffffffffffffffffffffffff02191690836fffffffffffffffffffffffffffffffff16021790555060e08201518160040160006101000a8154816fffffffffffffffffffffffffffffffff02191690836fffffffffffffffffffffffffffffffff160217905550905050600a600081546121d7906152c2565b919050819055508473ffffffffffffffffffffffffffffffffffffffff167fb5b292858f198e945f7f90976fa9693bfb9aafa85ddb263d5baaf4aeafa9bed28583868660405161222a9493929190615319565b60405180910390a2949350505050565b60008061224683612e4e565b9050600073ffffffffffffffffffffffffffffffffffffffff168173ffffffffffffffffffffffffffffffffffffffff16036122b957826040517f7e2732890000000000000000000000000000000000000000000000000000000081526004016122b09190613d7e565b60405180910390fd5b80915050919050565b60006004600083815260200190815260200160002060009054906101000a900473ffffffffffffffffffffffffffffffffffffffff169050919050565b600033905090565b6123148383836001612e8b565b505050565b600260085403612355576040517f3ee5aeb500000000000000000000000000000000000000000000000000000000815260040160405180910390fd5b6002600881905550565b600080600c600087815260200190815260200160002090508060020160009054906101000a900467ffffffffffffffff1667ffffffffffffffff1642106123db576040517f08c379a00000000000000000000000000000000000000000000000000000000081526004016123d2906153aa565b60405180910390fd5b8060010160009054906101000a900473ffffffffffffffffffffffffffffffffffffffff1673ffffffffffffffffffffffffffffffffffffffff168473ffffffffffffffffffffffffffffffffffffffff161461246d576040517f08c379a000000000000000000000000000000000000000000000000000000000815260040161246490615416565b60405180910390fd5b6000836fffffffffffffffffffffffffffffffff16116124c2576040517f08c379a00000000000000000000000000000000000000000000000000000000081526004016124b990614eb8565b60405180910390fd5b6125018530856fffffffffffffffffffffffffffffffff168773ffffffffffffffffffffffffffffffffffffffff16613050909392919063ffffffff16565b828160020160088282829054906101000a90046fffffffffffffffffffffffffffffffff166125309190614b15565b92506101000a8154816fffffffffffffffffffffffffffffffff02191690836fffffffffffffffffffffffffffffffff1602179055508060020160089054906101000a90046fffffffffffffffffffffffffffffffff1691507f42b5aa796d7c00d82ad4a384a09e41f602be2e6f69198c4403f361bf7d65165b8684846040516125bc93929190614fb9565b60405180910390a150949350505050565b6001600881905550565b60006125e1611e5c565b6125ec8484846130d2565b90509392505050565b61266f838473ffffffffffffffffffffffffffffffffffffffff1663a9059cbb8585604051602401612628929190615436565b604051602081830303815290604052915060e01b6020820180517bffffffffffffffffffffffffffffffffffffffffffffffffffffffff83818316178352505050506132ec565b505050565b612685816126806122ff565b61338e565b50565b60006126948383611720565b61276f5760016007600085815260200190815260200160002060000160008473ffffffffffffffffffffffffffffffffffffffff1673ffffffffffffffffffffffffffffffffffffffff16815260200190815260200160002060006101000a81548160ff02191690831515021790555061270c6122ff565b73ffffffffffffffffffffffffffffffffffffffff168273ffffffffffffffffffffffffffffffffffffffff16847f2f8788117e7eff1d82e926ec794901d17c78024a50270940304540a733656f0d60405160405180910390a460019050612774565b600090505b92915050565b60006127868383611720565b156128625760006007600085815260200190815260200160002060000160008473ffffffffffffffffffffffffffffffffffffffff1673ffffffffffffffffffffffffffffffffffffffff16815260200190815260200160002060006101000a81548160ff0219169083151502179055506127ff6122ff565b73ffffffffffffffffffffffffffffffffffffffff168273ffffffffffffffffffffffffffffffffffffffff16847ff6391f5c32d9c69d2a47ea670b442974b53935d1edc7fd64eb21e047a839171b60405160405180910390a460019050612867565b600090505b92915050565b6128756133df565b6000600660006101000a81548160ff0219169083151502179055507f5db9ee0a495bf2e6ff9c91a7834c1ba4fdd244a5e8aa4e537bd38aeae4b073aa6128b96122ff565b6040516128c69190613eb3565b60405180910390a1565b6128d8611e5c565b6001600660006101000a81548160ff0219169083151502179055507f62e78cea01bee320cd4e420270b5ea74000d11b0c9f74754ebdbfc544b05a25861291c6122ff565b6040516129299190613eb3565b60405180910390a1565b600073ffffffffffffffffffffffffffffffffffffffff168273ffffffffffffffffffffffffffffffffffffffff16036129a457816040517f5b08ba1800000000000000000000000000000000000000000000000000000000815260040161299b9190613eb3565b60405180910390fd5b80600560008573ffffffffffffffffffffffffffffffffffffffff1673ffffffffffffffffffffffffffffffffffffffff16815260200190815260200160002060008473ffffffffffffffffffffffffffffffffffffffff1673ffffffffffffffffffffffffffffffffffffffff16815260200190815260200160002060006101000a81548160ff0219169083151502179055508173ffffffffffffffffffffffffffffffffffffffff168373ffffffffffffffffffffffffffffffffffffffff167f17307eab39ab6107e8899845ad3d59bd9653f200f220920489ca2b5937696c3183604051612a959190613c45565b60405180910390a3505050565b60008373ffffffffffffffffffffffffffffffffffffffff163b1115612c4c578273ffffffffffffffffffffffffffffffffffffffff1663150b7a02868685856040518563ffffffff1660e01b8152600401612b0194939291906154b4565b6020604051808303816000875af1925050508015612b3d57506040513d601f19601f82011682018060405250810190612b3a9190615515565b60015b612bc1573d8060008114612b6d576040519150601f19603f3d011682016040523d82523d6000602084013e612b72565b606091505b506000815103612bb957836040517f64a0ae92000000000000000000000000000000000000000000000000000000008152600401612bb09190613eb3565b60405180910390fd5b805181602001fd5b63150b7a0260e01b7bffffffffffffffffffffffffffffffffffffffffffffffffffffffff1916817bffffffffffffffffffffffffffffffffffffffffffffffffffffffff191614612c4a57836040517f64a0ae92000000000000000000000000000000000000000000000000000000008152600401612c419190613eb3565b60405180910390fd5b505b5050505050565b6060612c798273ffffffffffffffffffffffffffffffffffffffff16601460ff1661341f565b9050919050565b606060006001612c8f84613665565b01905060008167ffffffffffffffff811115612cae57612cad6140fd565b5b6040519080825280601f01601f191660200182016040528015612ce05781602001600182028036833780820191505090505b509050600082602001820190505b600115612d43578080600190039150507f3031323334353637383961626364656600000000000000000000000000000000600a86061a8153600a8581612d3757612d36614f15565b5b04945060008503612cee575b819350505050919050565b60007f80ac58cd000000000000000000000000000000000000000000000000000000007bffffffffffffffffffffffffffffffffffffffffffffffffffffffff1916827bffffffffffffffffffffffffffffffffffffffffffffffffffffffff19161480612e1957507f5b5e139f000000000000000000000000000000000000000000000000000000007bffffffffffffffffffffffffffffffffffffffffffffffffffffffff1916827bffffffffffffffffffffffffffffffffffffffffffffffffffffffff1916145b80612e295750612e28826137b8565b5b9050919050565b612e4a828260405180602001604052806000815250613822565b5050565b60006002600083815260200190815260200160002060009054906101000a900473ffffffffffffffffffffffffffffffffffffffff169050919050565b8080612ec45750600073ffffffffffffffffffffffffffffffffffffffff168273ffffffffffffffffffffffffffffffffffffffff1614155b15612ff8576000612ed48461223a565b9050600073ffffffffffffffffffffffffffffffffffffffff168373ffffffffffffffffffffffffffffffffffffffff1614158015612f3f57508273ffffffffffffffffffffffffffffffffffffffff168173ffffffffffffffffffffffffffffffffffffffff1614155b8015612f525750612f508184611c91565b155b15612f9457826040517fa9fbf51f000000000000000000000000000000000000000000000000000000008152600401612f8b9190613eb3565b60405180910390fd5b8115612ff657838573ffffffffffffffffffffffffffffffffffffffff168273ffffffffffffffffffffffffffffffffffffffff167f8c5be1e5ebec7d5bd14f71427d1e84f3dd0314c0f7b2291e5b200ac8c7c3b92560405160405180910390a45b505b836004600085815260200190815260200160002060006101000a81548173ffffffffffffffffffffffffffffffffffffffff021916908373ffffffffffffffffffffffffffffffffffffffff16021790555050505050565b6130cc848573ffffffffffffffffffffffffffffffffffffffff166323b872dd86868660405160240161308593929190615542565b604051602081830303815290604052915060e01b6020820180517bffffffffffffffffffffffffffffffffffffffffffffffffffffffff83818316178352505050506132ec565b50505050565b6000806130de84612e4e565b9050600073ffffffffffffffffffffffffffffffffffffffff168373ffffffffffffffffffffffffffffffffffffffff16146131205761311f818486613846565b5b600073ffffffffffffffffffffffffffffffffffffffff168173ffffffffffffffffffffffffffffffffffffffff16146131b157613162600085600080612e8b565b6001600360008373ffffffffffffffffffffffffffffffffffffffff1673ffffffffffffffffffffffffffffffffffffffff168152602001908152602001600020600082825403925050819055505b600073ffffffffffffffffffffffffffffffffffffffff168573ffffffffffffffffffffffffffffffffffffffff1614613234576001600360008773ffffffffffffffffffffffffffffffffffffffff1673ffffffffffffffffffffffffffffffffffffffff168152602001908152602001600020600082825401925050819055505b846002600086815260200190815260200160002060006101000a81548173ffffffffffffffffffffffffffffffffffffffff021916908373ffffffffffffffffffffffffffffffffffffffff160217905550838573ffffffffffffffffffffffffffffffffffffffff168273ffffffffffffffffffffffffffffffffffffffff167fddf252ad1be2c89b69c2b068fc378daa952ba7f163c4a11628f55a4df523b3ef60405160405180910390a4809150509392505050565b600080602060008451602086016000885af18061330f576040513d6000823e3d81fd5b3d92506000519150506000821461332a576001811415613346565b60008473ffffffffffffffffffffffffffffffffffffffff163b145b1561338857836040517f5274afe700000000000000000000000000000000000000000000000000000000815260040161337f9190613eb3565b60405180910390fd5b50505050565b6133988282611720565b6133db5780826040517fe2517d3f0000000000000000000000000000000000000000000000000000000081526004016133d2929190615579565b60405180910390fd5b5050565b6133e7610e8e565b61341d576040517f8dfc202b00000000000000000000000000000000000000000000000000000000815260040160405180910390fd5b565b606060008390506000600284600261343791906155a2565b61344191906155e4565b67ffffffffffffffff81111561345a576134596140fd565b5b6040519080825280601f01601f19166020018201604052801561348c5781602001600182028036833780820191505090505b5090507f3000000000000000000000000000000000000000000000000000000000000000816000815181106134c4576134c3615618565b5b60200101907effffffffffffffffffffffffffffffffffffffffffffffffffffffffffffff1916908160001a9053507f78000000000000000000000000000000000000000000000000000000000000008160018151811061352857613527615618565b5b60200101907effffffffffffffffffffffffffffffffffffffffffffffffffffffffffffff1916908160001a9053506000600185600261356891906155a2565b61357291906155e4565b90505b6001811115613612577f3031323334353637383961626364656600000000000000000000000000000000600f8416601081106135b4576135b3615618565b5b1a60f81b8282815181106135cb576135ca615618565b5b60200101907effffffffffffffffffffffffffffffffffffffffffffffffffffffffffffff1916908160001a905350600483901c92508061360b90615647565b9050613575565b506000821461365a5784846040517fe22e27eb000000000000000000000000000000000000000000000000000000008152600401613651929190615670565b60405180910390fd5b809250505092915050565b600080600090507a184f03e93ff9f4daa797ed6e38ed64bf6a1f01000000000000000083106136c3577a184f03e93ff9f4daa797ed6e38ed64bf6a1f01000000000000000083816136b9576136b8614f15565b5b0492506040810190505b6d04ee2d6d415b85acef81000000008310613700576d04ee2d6d415b85acef810000000083816136f6576136f5614f15565b5b0492506020810190505b662386f26fc10000831061372f57662386f26fc10000838161372557613724614f15565b5b0492506010810190505b6305f5e1008310613758576305f5e100838161374e5761374d614f15565b5b0492506008810190505b612710831061377d57612710838161377357613772614f15565b5b0492506004810190505b606483106137a0576064838161379657613795614f15565b5b0492506002810190505b600a83106137af576001810190505b80915050919050565b60007f01ffc9a7000000000000000000000000000000000000000000000000000000007bffffffffffffffffffffffffffffffffffffffffffffffffffffffff1916827bffffffffffffffffffffffffffffffffffffffffffffffffffffffff1916149050919050565b61382c838361390a565b6138416138376122ff565b6000858585612aa2565b505050565b613851838383613a03565b61390557600073ffffffffffffffffffffffffffffffffffffffff168373ffffffffffffffffffffffffffffffffffffffff16036138c657806040517f7e2732890000000000000000000000000000000000000000000000000000000081526004016138bd9190613d7e565b60405180910390fd5b81816040517f177e802f0000000000000000000000000000000000000000000000000000000081526004016138fc929190615436565b60405180910390fd5b505050565b600073ffffffffffffffffffffffffffffffffffffffff168273ffffffffffffffffffffffffffffffffffffffff160361397c5760006040517f64a0ae920000000000000000000000000000000000000000000000000000000081526004016139739190613eb3565b60405180910390fd5b600061398a838360006125d7565b9050600073ffffffffffffffffffffffffffffffffffffffff168173ffffffffffffffffffffffffffffffffffffffff16146139fe5760006040517f73c6ac6e0000000000000000000000000000000000000000000000000000000081526004016139f59190613eb3565b60405180910390fd5b505050565b60008073ffffffffffffffffffffffffffffffffffffffff168373ffffffffffffffffffffffffffffffffffffffff1614158015613abb57508273ffffffffffffffffffffffffffffffffffffffff168473ffffffffffffffffffffffffffffffffffffffff161480613a7c5750613a7b8484611c91565b5b80613aba57508273ffffffffffffffffffffffffffffffffffffffff16613aa2836122c2565b73ffffffffffffffffffffffffffffffffffffffff16145b5b90509392505050565b604051806101000160405280600073ffffffffffffffffffffffffffffffffffffffff168152602001600073ffffffffffffffffffffffffffffffffffffffff168152602001600067ffffffffffffffff168152602001600067ffffffffffffffff16815260200160006fffffffffffffffffffffffffffffffff16815260200160006fffffffffffffffffffffffffffffffff16815260200160006fffffffffffffffffffffffffffffffff16815260200160006fffffffffffffffffffffffffffffffff1681525090565b6000604051905090565b600080fd5b600080fd5b60007fffffffff0000000000000000000000000000000000000000000000000000000082169050919050565b613bda81613ba5565b8114613be557600080fd5b50565b600081359050613bf781613bd1565b92915050565b600060208284031215613c1357613c12613b9b565b5b6000613c2184828501613be8565b91505092915050565b60008115159050919050565b613c3f81613c2a565b82525050565b6000602082019050613c5a6000830184613c36565b92915050565b600073ffffffffffffffffffffffffffffffffffffffff82169050919050565b6000613c8b82613c60565b9050919050565b613c9b81613c80565b8114613ca657600080fd5b50565b600081359050613cb881613c92565b92915050565b600067ffffffffffffffff82169050919050565b613cdb81613cbe565b8114613ce657600080fd5b50565b600081359050613cf881613cd2565b92915050565b60008060008060808587031215613d1857613d17613b9b565b5b6000613d2687828801613ca9565b9450506020613d3787828801613ca9565b9350506040613d4887828801613ce9565b9250506060613d5987828801613ce9565b91505092959194509250565b6000819050919050565b613d7881613d65565b82525050565b6000602082019050613d936000830184613d6f565b92915050565b600081519050919050565b600082825260208201905092915050565b60005b83811015613dd3578082015181840152602081019050613db8565b60008484015250505050565b6000601f19601f8301169050919050565b6000613dfb82613d99565b613e058185613da4565b9350613e15818560208601613db5565b613e1e81613ddf565b840191505092915050565b60006020820190508181036000830152613e438184613df0565b905092915050565b613e5481613d65565b8114613e5f57600080fd5b50565b600081359050613e7181613e4b565b92915050565b600060208284031215613e8d57613e8c613b9b565b5b6000613e9b84828501613e62565b91505092915050565b613ead81613c80565b82525050565b6000602082019050613ec86000830184613ea4565b92915050565b60008060408385031215613ee557613ee4613b9b565b5b6000613ef385828601613ca9565b9250506020613f0485828601613e62565b9150509250929050565b60006fffffffffffffffffffffffffffffffff82169050919050565b613f3381613f0e565b8114613f3e57600080fd5b50565b600081359050613f5081613f2a565b92915050565b600080600060608486031215613f6f57613f6e613b9b565b5b6000613f7d86828701613e62565b9350506020613f8e86828701613ca9565b9250506040613f9f86828701613f41565b9150509250925092565b600080600060608486031215613fc257613fc1613b9b565b5b6000613fd086828701613ca9565b9350506020613fe186828701613ca9565b9250506040613ff286828701613e62565b9150509250925092565b6000819050919050565b61400f81613ffc565b811461401a57600080fd5b50565b60008135905061402c81614006565b92915050565b60006020828403121561404857614047613b9b565b5b60006140568482850161401d565b91505092915050565b61406881613ffc565b82525050565b6000602082019050614083600083018461405f565b92915050565b61409281613f0e565b82525050565b60006020820190506140ad6000830184614089565b92915050565b600080604083850312156140ca576140c9613b9b565b5b60006140d88582860161401d565b92505060206140e985828601613ca9565b9150509250929050565b600080fd5b600080fd5b7f4e487b7100000000000000000000000000000000000000000000000000000000600052604160045260246000fd5b61413582613ddf565b810181811067ffffffffffffffff82111715614154576141536140fd565b5b80604052505050565b6000614167613b91565b9050614173828261412c565b919050565b600067ffffffffffffffff821115614193576141926140fd565b5b61419c82613ddf565b9050602081019050919050565b82818337600083830152505050565b60006141cb6141c684614178565b61415d565b9050828152602081018484840111156141e7576141e66140f8565b5b6141f28482856141a9565b509392505050565b600082601f83011261420f5761420e6140f3565b5b813561421f8482602086016141b8565b91505092915050565b60006020828403121561423e5761423d613b9b565b5b600082013567ffffffffffffffff81111561425c5761425b613ba0565b5b614268848285016141fa565b91505092915050565b60006020828403121561428757614286613b9b565b5b600061429584828501613ca9565b91505092915050565b600080604083850312156142b5576142b4613b9b565b5b60006142c385828601613e62565b92505060206142d485828601613f41565b9150509250929050565b60006060820190506142f36000830186614089565b6143006020830185614089565b61430d6040830184614089565b949350505050565b600061ffff82169050919050565b61432c81614315565b811461433757600080fd5b50565b60008135905061434981614323565b92915050565b60006020828403121561436557614364613b9b565b5b60006143738482850161433a565b91505092915050565b61438581613c80565b82525050565b61439481613cbe565b82525050565b6143a381613f0e565b82525050565b610100820160008201516143c0600085018261437c565b5060208201516143d3602085018261437c565b5060408201516143e6604085018261438b565b5060608201516143f9606085018261438b565b50608082015161440c608085018261439a565b5060a082015161441f60a085018261439a565b5060c082015161443260c085018261439a565b5060e082015161444560e085018261439a565b50505050565b60006101008201905061446160008301846143a9565b92915050565b61447081613c2a565b811461447b57600080fd5b50565b60008135905061448d81614467565b92915050565b600080604083850312156144aa576144a9613b9b565b5b60006144b885828601613ca9565b92505060206144c98582860161447e565b9150509250929050565b600067ffffffffffffffff8211156144ee576144ed6140fd565b5b6144f782613ddf565b9050602081019050919050565b6000614517614512846144d3565b61415d565b905082815260208101848484011115614533576145326140f8565b5b61453e8482856141a9565b509392505050565b600082601f83011261455b5761455a6140f3565b5b813561456b848260208601614504565b91505092915050565b6000806000806080858703121561458e5761458d613b9b565b5b600061459c87828801613ca9565b94505060206145ad87828801613ca9565b93505060406145be87828801613e62565b925050606085013567ffffffffffffffff8111156145df576145de613ba0565b5b6145eb87828801614546565b91505092959194509250565b600060ff82169050919050565b61460d816145f7565b811461461857600080fd5b50565b60008135905061462a81614604565b92915050565b6000806000806000806000806000806101408b8d03121561465457614653613b9b565b5b60006146628d828e01613ca9565b9a505060206146738d828e01613ce9565b99505060406146848d828e01613ce9565b98505060606146958d828e01613ca9565b97505060806146a68d828e01613ca9565b96505060a06146b78d828e01613f41565b95505060c06146c88d828e01613e62565b94505060e06146d98d828e0161461b565b9350506101006146eb8d828e0161401d565b9250506101206146fd8d828e0161401d565b9150509295989b9194979a5092959850565b61471881614315565b82525050565b6000602082019050614733600083018461470f565b92915050565b600080604083850312156147505761474f613b9b565b5b600061475e85828601613ca9565b925050602061476f85828601613ca9565b9150509250929050565b600080600080600080600080610100898b03121561479a57614799613b9b565b5b60006147a88b828c01613e62565b98505060206147b98b828c01613ca9565b97505060406147ca8b828c01613ca9565b96505060606147db8b828c01613f41565b95505060806147ec8b828c01613e62565b94505060a06147fd8b828c0161461b565b93505060c061480e8b828c0161401d565b92505060e061481f8b828c0161401d565b9150509295985092959890939650565b7f4e487b7100000000000000000000000000000000000000000000000000000000600052602260045260246000fd5b6000600282049050600182168061487657607f821691505b6020821081036148895761488861482f565b5b50919050565b7f4e487b7100000000000000000000000000000000000000000000000000000000600052601160045260246000fd5b60006148c982613d65565b91506148d483613d65565b92508282039050818111156148ec576148eb61488f565b5b92915050565b60006060820190506149076000830186613ea4565b6149146020830185613d6f565b6149216040830184613ea4565b949350505050565b600061493482613cbe565b915061493f83613cbe565b9250828201905067ffffffffffffffff81111561495f5761495e61488f565b5b92915050565b7f31342d64617920636f6f6c646f776e206e6f7420706173736564000000000000600082015250565b600061499b601a83613da4565b91506149a682614965565b602082019050919050565b600060208201905081810360008301526149ca8161498e565b9050919050565b7f4e6f2066756e647320746f206469737472696275746500000000000000000000600082015250565b6000614a07601683613da4565b9150614a12826149d1565b602082019050919050565b60006020820190508181036000830152614a36816149fa565b9050919050565b7f416d6f756e7420697320616c7265616479206469737472696275746564000000600082015250565b6000614a73601d83613da4565b9150614a7e82614a3d565b602082019050919050565b60006020820190508181036000830152614aa281614a66565b9050919050565b7f416d6f756e7420697320616c726561647920726566756e646564000000000000600082015250565b6000614adf601a83613da4565b9150614aea82614aa9565b602082019050919050565b60006020820190508181036000830152614b0e81614ad2565b9050919050565b6000614b2082613f0e565b9150614b2b83613f0e565b925082820190506fffffffffffffffffffffffffffffffff811115614b5357614b5261488f565b5b92915050565b6000604082019050614b6e6000830185613d6f565b614b7b6020830184614089565b9392505050565b60008190508160005260206000209050919050565b60006020601f8301049050919050565b600082821b905092915050565b600060088302614be47fffffffffffffffffffffffffffffffffffffffffffffffffffffffffffffffff82614ba7565b614bee8683614ba7565b95508019841693508086168417925050509392505050565b6000819050919050565b6000614c2b614c26614c2184613d65565b614c06565b613d65565b9050919050565b6000819050919050565b614c4583614c10565b614c59614c5182614c32565b848454614bb4565b825550505050565b600090565b614c6e614c61565b614c79818484614c3c565b505050565b5b81811015614c9d57614c92600082614c66565b600181019050614c7f565b5050565b601f821115614ce257614cb381614b82565b614cbc84614b97565b81016020851015614ccb578190505b614cdf614cd785614b97565b830182614c7e565b50505b505050565b600082821c905092915050565b6000614d0560001984600802614ce7565b1980831691505092915050565b6000614d1e8383614cf4565b9150826002028217905092915050565b614d3782613d99565b67ffffffffffffffff811115614d5057614d4f6140fd565b5b614d5a825461485e565b614d65828285614ca1565b600060209050601f831160018114614d985760008415614d86578287015190505b614d908582614d12565b865550614df8565b601f198416614da686614b82565b60005b82811015614dce57848901518255600182019150602085019450602081019050614da9565b86831015614deb5784890151614de7601f891682614cf4565b8355505b6001600288020188555050505b505050505050565b7f4163746976697479206973206e6f742066696e69736865640000000000000000600082015250565b6000614e36601883613da4565b9150614e4182614e00565b602082019050919050565b60006020820190508181036000830152614e6581614e29565b9050919050565b7f496e76616c696420616d6f756e74000000000000000000000000000000000000600082015250565b6000614ea2600e83613da4565b9150614ead82614e6c565b602082019050919050565b60006020820190508181036000830152614ed181614e95565b9050919050565b6000614ee382613f0e565b9150614eee83613f0e565b9250828202614efc81613f0e565b9150808214614f0e57614f0d61488f565b5b5092915050565b7f4e487b7100000000000000000000000000000000000000000000000000000000600052601260045260246000fd5b6000614f4f82613f0e565b9150614f5a83613f0e565b925082614f6a57614f69614f15565b5b828204905092915050565b6000614f8082613f0e565b9150614f8b83613f0e565b925082820390506fffffffffffffffffffffffffffffffff811115614fb357614fb261488f565b5b92915050565b6000606082019050614fce6000830186613d6f565b614fdb6020830185614089565b614fe86040830184614089565b949350505050565b7f496e76616c696420666565000000000000000000000000000000000000000000600082015250565b6000615026600b83613da4565b915061503182614ff0565b602082019050919050565b6000602082019050818103600083015261505581615019565b9050919050565b600081905092915050565b600081546150748161485e565b61507e818661505c565b9450600182166000811461509957600181146150ae576150e1565b60ff19831686528115158202860193506150e1565b6150b785614b82565b60005b838110156150d9578154818901526001820191506020810190506150ba565b838801955050505b50505092915050565b60006150f582613d99565b6150ff818561505c565b935061510f818560208601613db5565b80840191505092915050565b7f2f00000000000000000000000000000000000000000000000000000000000000815250565b600061514d8286615067565b915061515982856150ea565b91506151648261511b565b60018201915061517482846150ea565b9150819050949350505050565b600061519c61519761519284613f0e565b614c06565b613d65565b9050919050565b6151ac81615181565b82525050565b6151bb816145f7565b82525050565b600060e0820190506151d6600083018a613ea4565b6151e36020830189613ea4565b6151f060408301886151a3565b6151fd6060830187613d6f565b61520a60808301866151b2565b61521760a083018561405f565b61522460c083018461405f565b98975050505050505050565b7f53746172742074696d65206d757374206265206265666f726520656e6420746960008201527f6d65000000000000000000000000000000000000000000000000000000000000602082015250565b600061528c602283613da4565b915061529782615230565b604082019050919050565b600060208201905081810360008301526152bb8161527f565b9050919050565b60006152cd82613d65565b91507fffffffffffffffffffffffffffffffffffffffffffffffffffffffffffffffff82036152ff576152fe61488f565b5b600182019050919050565b61531381613cbe565b82525050565b600060808201905061532e6000830187613ea4565b61533b6020830186613d6f565b615348604083018561530a565b615355606083018461530a565b95945050505050565b7f41637469766974792069732066696e6973686564000000000000000000000000600082015250565b6000615394601483613da4565b915061539f8261535e565b602082019050919050565b600060208201905081810360008301526153c381615387565b9050919050565b7f496e76616c696420746f6b656e00000000000000000000000000000000000000600082015250565b6000615400600d83613da4565b915061540b826153ca565b602082019050919050565b6000602082019050818103600083015261542f816153f3565b9050919050565b600060408201905061544b6000830185613ea4565b6154586020830184613d6f565b9392505050565b600081519050919050565b600082825260208201905092915050565b60006154868261545f565b615490818561546a565b93506154a0818560208601613db5565b6154a981613ddf565b840191505092915050565b60006080820190506154c96000830187613ea4565b6154d66020830186613ea4565b6154e36040830185613d6f565b81810360608301526154f5818461547b565b905095945050505050565b60008151905061550f81613bd1565b92915050565b60006020828403121561552b5761552a613b9b565b5b600061553984828501615500565b91505092915050565b60006060820190506155576000830186613ea4565b6155646020830185613ea4565b6155716040830184613d6f565b949350505050565b600060408201905061558e6000830185613ea4565b61559b602083018461405f565b9392505050565b60006155ad82613d65565b91506155b883613d65565b92508282026155c681613d65565b915082820484148315176155dd576155dc61488f565b5b5092915050565b60006155ef82613d65565b91506155fa83613d65565b92508282019050808211156156125761561161488f565b5b92915050565b7f4e487b7100000000000000000000000000000000000000000000000000000000600052603260045260246000fd5b600061565282613d65565b9150600082036156655761566461488f565b5b600182039050919050565b60006040820190506156856000830185613d6f565b6156926020830184613d6f565b939250505056fea2646970667358221220d79b4e464ec43e9c5c7bdc1c0a465ece674e5e964e4884d7ec3b72423a011aaa64736f6c634300081b0033",
  "linkReferences": {},
  "deployedLinkReferences": {}
}