{
  "_format": "hh-sol-artifact-1",
  "contractName": "NonfungibleActivityManager",
  "sourceName": "contracts/NonfungibleActivityManager.sol",
  "abi": [
    {
      "inputs": [
        {
          "internalType": "address",
          "name": "_foundation",
          "type": "address"
        },
        {
          "internalType": "address",
          "name": "_treasury",
          "type": "address"
        },
        {
          "internalType": "address",
          "name": "_admin",
          "type": "address"
        },
        {
          "internalType": "address",
          "name": "_airdropManager",
          "type": "address"
        },
        {
          "internalType": "string",
          "name": "baseURI_",
          "type": "string"
        }
      ],
      "stateMutability": "nonpayable",
      "type": "constructor"
    },
    {
      "inputs": [],
      "name": "AccessControlBadConfirmation",
      "type": "error"
    },
    {
      "inputs": [
        {
          "internalType": "address",
          "name": "account",
          "type": "address"
        },
        {
          "internalType": "bytes32",
          "name": "neededRole",
          "type": "bytes32"
        }
      ],
      "name": "AccessControlUnauthorizedAccount",
      "type": "error"
    },
    {
      "inputs": [
        {
          "internalType": "address",
          "name": "sender",
          "type": "address"
        },
        {
          "internalType": "uint256",
          "name": "tokenId",
          "type": "uint256"
        },
        {
          "internalType": "address",
          "name": "owner",
          "type": "address"
        }
      ],
      "name": "ERC721IncorrectOwner",
      "type": "error"
    },
    {
      "inputs": [
        {
          "internalType": "address",
          "name": "operator",
          "type": "address"
        },
        {
          "internalType": "uint256",
          "name": "tokenId",
          "type": "uint256"
        }
      ],
      "name": "ERC721InsufficientApproval",
      "type": "error"
    },
    {
      "inputs": [
        {
          "internalType": "address",
          "name": "approver",
          "type": "address"
        }
      ],
      "name": "ERC721InvalidApprover",
      "type": "error"
    },
    {
      "inputs": [
        {
          "internalType": "address",
          "name": "operator",
          "type": "address"
        }
      ],
      "name": "ERC721InvalidOperator",
      "type": "error"
    },
    {
      "inputs": [
        {
          "internalType": "address",
          "name": "owner",
          "type": "address"
        }
      ],
      "name": "ERC721InvalidOwner",
      "type": "error"
    },
    {
      "inputs": [
        {
          "internalType": "address",
          "name": "receiver",
          "type": "address"
        }
      ],
      "name": "ERC721InvalidReceiver",
      "type": "error"
    },
    {
      "inputs": [
        {
          "internalType": "address",
          "name": "sender",
          "type": "address"
        }
      ],
      "name": "ERC721InvalidSender",
      "type": "error"
    },
    {
      "inputs": [
        {
          "internalType": "uint256",
          "name": "tokenId",
          "type": "uint256"
        }
      ],
      "name": "ERC721NonexistentToken",
      "type": "error"
    },
    {
      "inputs": [],
      "name": "EnforcedPause",
      "type": "error"
    },
    {
      "inputs": [],
      "name": "ExpectedPause",
      "type": "error"
    },
    {
      "inputs": [],
      "name": "ReentrancyGuardReentrantCall",
      "type": "error"
    },
    {
      "inputs": [
        {
          "internalType": "address",
          "name": "token",
          "type": "address"
        }
      ],
      "name": "SafeERC20FailedOperation",
      "type": "error"
    },
    {
      "inputs": [
        {
          "internalType": "uint256",
          "name": "value",
          "type": "uint256"
        },
        {
          "internalType": "uint256",
          "name": "length",
          "type": "uint256"
        }
      ],
      "name": "StringsInsufficientHexLength",
      "type": "error"
    },
    {
      "anonymous": false,
      "inputs": [
        {
          "indexed": true,
          "internalType": "address",
          "name": "owner",
          "type": "address"
        },
        {
          "indexed": true,
          "internalType": "address",
          "name": "approved",
          "type": "address"
        },
        {
          "indexed": true,
          "internalType": "uint256",
          "name": "tokenId",
          "type": "uint256"
        }
      ],
      "name": "Approval",
      "type": "event"
    },
    {
      "anonymous": false,
      "inputs": [
        {
          "indexed": true,
          "internalType": "address",
          "name": "owner",
          "type": "address"
        },
        {
          "indexed": true,
          "internalType": "address",
          "name": "operator",
          "type": "address"
        },
        {
          "indexed": false,
          "internalType": "bool",
          "name": "approved",
          "type": "bool"
        }
      ],
      "name": "ApprovalForAll",
      "type": "event"
    },
    {
      "anonymous": false,
      "inputs": [
        {
          "indexed": true,
          "internalType": "address",
          "name": "owner",
          "type": "address"
        },
        {
          "indexed": false,
          "internalType": "address",
          "name": "token",
          "type": "address"
        },
        {
          "indexed": false,
          "internalType": "uint256",
          "name": "tokenId",
          "type": "uint256"
        },
        {
          "indexed": false,
          "internalType": "uint64",
          "name": "startTime",
          "type": "uint64"
        },
        {
          "indexed": false,
          "internalType": "uint64",
          "name": "endTime",
          "type": "uint64"
        }
      ],
      "name": "Create",
      "type": "event"
    },
    {
      "anonymous": false,
      "inputs": [
        {
          "indexed": false,
          "internalType": "uint256",
          "name": "tokenId",
          "type": "uint256"
        },
        {
          "indexed": false,
          "internalType": "uint128",
          "name": "amount",
          "type": "uint128"
        },
        {
          "indexed": false,
          "internalType": "uint128",
          "name": "totalAmount",
          "type": "uint128"
        }
      ],
      "name": "Deposit",
      "type": "event"
    },
    {
      "anonymous": false,
      "inputs": [
        {
          "indexed": false,
          "internalType": "uint256",
          "name": "tokenId",
          "type": "uint256"
        },
        {
          "indexed": false,
          "internalType": "uint128",
          "name": "distributedAmount",
          "type": "uint128"
        },
        {
          "indexed": false,
          "internalType": "uint128",
          "name": "feeAmount",
          "type": "uint128"
        }
      ],
      "name": "Distribute",
      "type": "event"
    },
    {
      "anonymous": false,
      "inputs": [
        {
          "indexed": false,
          "internalType": "address",
          "name": "account",
          "type": "address"
        }
      ],
      "name": "Paused",
      "type": "event"
    },
    {
      "anonymous": false,
      "inputs": [
        {
          "indexed": false,
          "internalType": "uint256",
          "name": "tokenId",
          "type": "uint256"
        },
        {
          "indexed": false,
          "internalType": "uint128",
          "name": "refundedAmount",
          "type": "uint128"
        }
      ],
      "name": "Refund",
      "type": "event"
    },
    {
      "anonymous": false,
      "inputs": [
        {
          "indexed": true,
          "internalType": "bytes32",
          "name": "role",
          "type": "bytes32"
        },
        {
          "indexed": true,
          "internalType": "bytes32",
          "name": "previousAdminRole",
          "type": "bytes32"
        },
        {
          "indexed": true,
          "internalType": "bytes32",
          "name": "newAdminRole",
          "type": "bytes32"
        }
      ],
      "name": "RoleAdminChanged",
      "type": "event"
    },
    {
      "anonymous": false,
      "inputs": [
        {
          "indexed": true,
          "internalType": "bytes32",
          "name": "role",
          "type": "bytes32"
        },
        {
          "indexed": true,
          "internalType": "address",
          "name": "account",
          "type": "address"
        },
        {
          "indexed": true,
          "internalType": "address",
          "name": "sender",
          "type": "address"
        }
      ],
      "name": "RoleGranted",
      "type": "event"
    },
    {
      "anonymous": false,
      "inputs": [
        {
          "indexed": true,
          "internalType": "bytes32",
          "name": "role",
          "type": "bytes32"
        },
        {
          "indexed": true,
          "internalType": "address",
          "name": "account",
          "type": "address"
        },
        {
          "indexed": true,
          "internalType": "address",
          "name": "sender",
          "type": "address"
        }
      ],
      "name": "RoleRevoked",
      "type": "event"
    },
    {
      "anonymous": false,
      "inputs": [
        {
          "indexed": true,
          "internalType": "address",
          "name": "from",
          "type": "address"
        },
        {
          "indexed": true,
          "internalType": "address",
          "name": "to",
          "type": "address"
        },
        {
          "indexed": true,
          "internalType": "uint256",
          "name": "tokenId",
          "type": "uint256"
        }
      ],
      "name": "Transfer",
      "type": "event"
    },
    {
      "anonymous": false,
      "inputs": [
        {
          "indexed": false,
          "internalType": "address",
          "name": "account",
          "type": "address"
        }
      ],
      "name": "Unpaused",
      "type": "event"
    },
    {
      "inputs": [],
      "name": "ADMIN_ROLE",
      "outputs": [
        {
          "internalType": "bytes32",
          "name": "",
          "type": "bytes32"
        }
      ],
      "stateMutability": "view",
      "type": "function"
    },
    {
      "inputs": [],
      "name": "DEFAULT_ADMIN_ROLE",
      "outputs": [
        {
          "internalType": "bytes32",
          "name": "",
          "type": "bytes32"
        }
      ],
      "stateMutability": "view",
      "type": "function"
    },
    {
      "inputs": [],
      "name": "airdropManager",
      "outputs": [
        {
          "internalType": "address",
          "name": "",
          "type": "address"
        }
      ],
      "stateMutability": "view",
      "type": "function"
    },
    {
      "inputs": [
        {
          "internalType": "address",
          "name": "to",
          "type": "address"
        },
        {
          "internalType": "uint256",
          "name": "tokenId",
          "type": "uint256"
        }
      ],
      "name": "approve",
      "outputs": [],
      "stateMutability": "nonpayable",
      "type": "function"
    },
    {
      "inputs": [
        {
          "internalType": "address",
          "name": "owner",
          "type": "address"
        }
      ],
      "name": "balanceOf",
      "outputs": [
        {
          "internalType": "uint256",
          "name": "",
          "type": "uint256"
        }
      ],
      "stateMutability": "view",
      "type": "function"
    },
    {
      "inputs": [
        {
          "internalType": "address",
          "name": "owner",
          "type": "address"
        },
        {
          "internalType": "address",
          "name": "token",
          "type": "address"
        },
        {
          "internalType": "uint64",
          "name": "startTime",
          "type": "uint64"
        },
        {
          "internalType": "uint64",
          "name": "endTime",
          "type": "uint64"
        }
      ],
      "name": "create",
      "outputs": [
        {
          "internalType": "uint256",
          "name": "tokenId",
          "type": "uint256"
        }
      ],
      "stateMutability": "nonpayable",
      "type": "function"
    },
    {
      "inputs": [
        {
          "internalType": "address",
          "name": "owner",
          "type": "address"
        },
        {
          "internalType": "uint64",
          "name": "startTime",
          "type": "uint64"
        },
        {
          "internalType": "uint64",
          "name": "endTime",
          "type": "uint64"
        },
        {
          "internalType": "address",
          "name": "token",
          "type": "address"
        },
        {
          "internalType": "address",
          "name": "from",
          "type": "address"
        },
        {
          "internalType": "uint128",
          "name": "amount",
          "type": "uint128"
        },
        {
          "internalType": "uint256",
          "name": "deadline",
          "type": "uint256"
        },
        {
          "internalType": "uint8",
          "name": "v",
          "type": "uint8"
        },
        {
          "internalType": "bytes32",
          "name": "r",
          "type": "bytes32"
        },
        {
          "internalType": "bytes32",
          "name": "s",
          "type": "bytes32"
        }
      ],
      "name": "createAndDepositWithPermit",
      "outputs": [
        {
          "internalType": "uint256",
          "name": "tokenId",
          "type": "uint256"
        }
      ],
      "stateMutability": "nonpayable",
      "type": "function"
    },
    {
      "inputs": [
        {
          "internalType": "uint256",
          "name": "tokenId",
          "type": "uint256"
        },
        {
          "internalType": "address",
          "name": "token",
          "type": "address"
        },
        {
          "internalType": "uint128",
          "name": "amount",
          "type": "uint128"
        }
      ],
      "name": "deposit",
      "outputs": [
        {
          "internalType": "uint256",
          "name": "totalAmount",
          "type": "uint256"
        }
      ],
      "stateMutability": "nonpayable",
      "type": "function"
    },
    {
      "inputs": [
        {
          "internalType": "uint256",
          "name": "tokenId",
          "type": "uint256"
        },
        {
          "internalType": "address",
          "name": "token",
          "type": "address"
        },
        {
          "internalType": "address",
          "name": "owner",
          "type": "address"
        },
        {
          "internalType": "uint128",
          "name": "amount",
          "type": "uint128"
        },
        {
          "internalType": "uint256",
          "name": "deadline",
          "type": "uint256"
        },
        {
          "internalType": "uint8",
          "name": "v",
          "type": "uint8"
        },
        {
          "internalType": "bytes32",
          "name": "r",
          "type": "bytes32"
        },
        {
          "internalType": "bytes32",
          "name": "s",
          "type": "bytes32"
        }
      ],
      "name": "depositWithPermit",
      "outputs": [
        {
          "internalType": "uint256",
          "name": "totalAmount",
          "type": "uint256"
        }
      ],
      "stateMutability": "nonpayable",
      "type": "function"
    },
    {
      "inputs": [
        {
          "internalType": "uint256",
          "name": "tokenId",
          "type": "uint256"
        },
        {
          "internalType": "uint128",
          "name": "amount",
          "type": "uint128"
        }
      ],
      "name": "distribute",
      "outputs": [
        {
          "internalType": "uint128",
          "name": "distributedAmount",
          "type": "uint128"
        },
        {
          "internalType": "uint128",
          "name": "feeAmount",
          "type": "uint128"
        },
        {
          "internalType": "uint128",
          "name": "refundedAmount",
          "type": "uint128"
        }
      ],
      "stateMutability": "nonpayable",
      "type": "function"
    },
    {
      "inputs": [],
      "name": "fee",
      "outputs": [
        {
          "internalType": "uint16",
          "name": "",
          "type": "uint16"
        }
      ],
      "stateMutability": "view",
      "type": "function"
    },
    {
      "inputs": [],
      "name": "foundation",
      "outputs": [
        {
          "internalType": "address",
          "name": "",
          "type": "address"
        }
      ],
      "stateMutability": "view",
      "type": "function"
    },
    {
      "inputs": [
        {
          "internalType": "uint256",
          "name": "tokenId",
          "type": "uint256"
        }
      ],
      "name": "getActivity",
      "outputs": [
        {
          "components": [
            {
              "internalType": "address",
              "name": "owner",
              "type": "address"
            },
            {
              "internalType": "address",
              "name": "token",
              "type": "address"
            },
            {
              "internalType": "uint64",
              "name": "startTime",
              "type": "uint64"
            },
            {
              "internalType": "uint64",
              "name": "endTime",
              "type": "uint64"
            },
            {
              "internalType": "uint128",
              "name": "totalAmount",
              "type": "uint128"
            },
            {
              "internalType": "uint128",
              "name": "distributedAmount",
              "type": "uint128"
            },
            {
              "internalType": "uint128",
              "name": "refundedAmount",
              "type": "uint128"
            },
            {
              "internalType": "uint128",
              "name": "feeAmount",
              "type": "uint128"
            }
          ],
          "internalType": "struct NonfungibleActivityManager.Activity",
          "name": "activity",
          "type": "tuple"
        }
      ],
      "stateMutability": "view",
      "type": "function"
    },
    {
      "inputs": [
        {
          "internalType": "uint256",
          "name": "tokenId",
          "type": "uint256"
        }
      ],
      "name": "getApproved",
      "outputs": [
        {
          "internalType": "address",
          "name": "",
          "type": "address"
        }
      ],
      "stateMutability": "view",
      "type": "function"
    },
    {
      "inputs": [
        {
          "internalType": "bytes32",
          "name": "role",
          "type": "bytes32"
        }
      ],
      "name": "getRoleAdmin",
      "outputs": [
        {
          "internalType": "bytes32",
          "name": "",
          "type": "bytes32"
        }
      ],
      "stateMutability": "view",
      "type": "function"
    },
    {
      "inputs": [
        {
          "internalType": "bytes32",
          "name": "role",
          "type": "bytes32"
        },
        {
          "internalType": "address",
          "name": "account",
          "type": "address"
        }
      ],
      "name": "grantRole",
      "outputs": [],
      "stateMutability": "nonpayable",
      "type": "function"
    },
    {
      "inputs": [
        {
          "internalType": "bytes32",
          "name": "role",
          "type": "bytes32"
        },
        {
          "internalType": "address",
          "name": "account",
          "type": "address"
        }
      ],
      "name": "hasRole",
      "outputs": [
        {
          "internalType": "bool",
          "name": "",
          "type": "bool"
        }
      ],
      "stateMutability": "view",
      "type": "function"
    },
    {
      "inputs": [
        {
          "internalType": "address",
          "name": "owner",
          "type": "address"
        },
        {
          "internalType": "address",
          "name": "operator",
          "type": "address"
        }
      ],
      "name": "isApprovedForAll",
      "outputs": [
        {
          "internalType": "bool",
          "name": "",
          "type": "bool"
        }
      ],
      "stateMutability": "view",
      "type": "function"
    },
    {
      "inputs": [],
      "name": "name",
      "outputs": [
        {
          "internalType": "string",
          "name": "",
          "type": "string"
        }
      ],
      "stateMutability": "view",
      "type": "function"
    },
    {
      "inputs": [
        {
          "internalType": "uint256",
          "name": "tokenId",
          "type": "uint256"
        }
      ],
      "name": "ownerOf",
      "outputs": [
        {
          "internalType": "address",
          "name": "",
          "type": "address"
        }
      ],
      "stateMutability": "view",
      "type": "function"
    },
    {
      "inputs": [],
      "name": "pause",
      "outputs": [],
      "stateMutability": "nonpayable",
      "type": "function"
    },
    {
      "inputs": [],
      "name": "paused",
      "outputs": [
        {
          "internalType": "bool",
          "name": "",
          "type": "bool"
        }
      ],
      "stateMutability": "view",
      "type": "function"
    },
    {
      "inputs": [
        {
          "internalType": "uint256",
          "name": "tokenId",
          "type": "uint256"
        }
      ],
      "name": "refund",
      "outputs": [
        {
          "internalType": "uint128",
          "name": "refundedAmount",
          "type": "uint128"
        }
      ],
      "stateMutability": "nonpayable",
      "type": "function"
    },
    {
      "inputs": [
        {
          "internalType": "bytes32",
          "name": "role",
          "type": "bytes32"
        },
        {
          "internalType": "address",
          "name": "callerConfirmation",
          "type": "address"
        }
      ],
      "name": "renounceRole",
      "outputs": [],
      "stateMutability": "nonpayable",
      "type": "function"
    },
    {
      "inputs": [
        {
          "internalType": "bytes32",
          "name": "role",
          "type": "bytes32"
        },
        {
          "internalType": "address",
          "name": "account",
          "type": "address"
        }
      ],
      "name": "revokeRole",
      "outputs": [],
      "stateMutability": "nonpayable",
      "type": "function"
    },
    {
      "inputs": [
        {
          "internalType": "address",
          "name": "from",
          "type": "address"
        },
        {
          "internalType": "address",
          "name": "to",
          "type": "address"
        },
        {
          "internalType": "uint256",
          "name": "tokenId",
          "type": "uint256"
        }
      ],
      "name": "safeTransferFrom",
      "outputs": [],
      "stateMutability": "nonpayable",
      "type": "function"
    },
    {
      "inputs": [
        {
          "internalType": "address",
          "name": "from",
          "type": "address"
        },
        {
          "internalType": "address",
          "name": "to",
          "type": "address"
        },
        {
          "internalType": "uint256",
          "name": "tokenId",
          "type": "uint256"
        },
        {
          "internalType": "bytes",
          "name": "data",
          "type": "bytes"
        }
      ],
      "name": "safeTransferFrom",
      "outputs": [],
      "stateMutability": "nonpayable",
      "type": "function"
    },
    {
      "inputs": [
        {
          "internalType": "address",
          "name": "_airdropManager",
          "type": "address"
        }
      ],
      "name": "setAirdropManager",
      "outputs": [],
      "stateMutability": "nonpayable",
      "type": "function"
    },
    {
      "inputs": [
        {
          "internalType": "address",
          "name": "operator",
          "type": "address"
        },
        {
          "internalType": "bool",
          "name": "approved",
          "type": "bool"
        }
      ],
      "name": "setApprovalForAll",
      "outputs": [],
      "stateMutability": "nonpayable",
      "type": "function"
    },
    {
      "inputs": [
        {
          "internalType": "string",
          "name": "baseURI_",
          "type": "string"
        }
      ],
      "name": "setBaseURI",
      "outputs": [],
      "stateMutability": "nonpayable",
      "type": "function"
    },
    {
      "inputs": [
        {
          "internalType": "uint16",
          "name": "_fee",
          "type": "uint16"
        }
      ],
      "name": "setFee",
      "outputs": [],
      "stateMutability": "nonpayable",
      "type": "function"
    },
    {
      "inputs": [
        {
          "internalType": "bytes4",
          "name": "interfaceId",
          "type": "bytes4"
        }
      ],
      "name": "supportsInterface",
      "outputs": [
        {
          "internalType": "bool",
          "name": "",
          "type": "bool"
        }
      ],
      "stateMutability": "view",
      "type": "function"
    },
    {
      "inputs": [],
      "name": "symbol",
      "outputs": [
        {
          "internalType": "string",
          "name": "",
          "type": "string"
        }
      ],
      "stateMutability": "view",
      "type": "function"
    },
    {
      "inputs": [
        {
          "internalType": "uint256",
          "name": "tokenId",
          "type": "uint256"
        }
      ],
      "name": "tokenURI",
      "outputs": [
        {
          "internalType": "string",
          "name": "",
          "type": "string"
        }
      ],
      "stateMutability": "view",
      "type": "function"
    },
    {
      "inputs": [],
      "name": "totalSupply",
      "outputs": [
        {
          "internalType": "uint256",
          "name": "",
          "type": "uint256"
        }
      ],
      "stateMutability": "view",
      "type": "function"
    },
    {
      "inputs": [
        {
          "internalType": "address",
          "name": "from",
          "type": "address"
        },
        {
          "internalType": "address",
          "name": "to",
          "type": "address"
        },
        {
          "internalType": "uint256",
          "name": "tokenId",
          "type": "uint256"
        }
      ],
      "name": "transferFrom",
      "outputs": [],
      "stateMutability": "nonpayable",
      "type": "function"
    },
    {
      "inputs": [],
      "name": "treasury",
      "outputs": [
        {
          "internalType": "address",
          "name": "",
          "type": "address"
        }
      ],
      "stateMutability": "view",
      "type": "function"
    },
    {
      "inputs": [],
      "name": "unpause",
      "outputs": [],
      "stateMutability": "nonpayable",
      "type": "function"
    }
  ],
  "bytecode": "0x60c06040526001600a55601e600b60006101000a81548161ffff021916908361ffff16021790555034801561003357600080fd5b5060405161632538038061632583398181016040528101906100559190610552565b6040518060400160405280600881526020017f41637469766974790000000000000000000000000000000000000000000000008152506040518060400160405280600381526020017f414354000000000000000000000000000000000000000000000000000000000081525081600090816100d0919061080a565b5080600190816100e0919061080a565b5050506000600660006101000a81548160ff02191690831515021790555060016008819055508473ffffffffffffffffffffffffffffffffffffffff1660a08173ffffffffffffffffffffffffffffffffffffffff16815250508373ffffffffffffffffffffffffffffffffffffffff1660808173ffffffffffffffffffffffffffffffffffffffff168152505081600b60026101000a81548173ffffffffffffffffffffffffffffffffffffffff021916908373ffffffffffffffffffffffffffffffffffffffff16021790555080600990816101be919061080a565b506101d26000801b8661020e60201b60201c565b506102037fa49807205ce4d355092ef5a8a18f56e8913cf4a201fbe287825b095693c217758461020e60201b60201c565b5050505050506108dc565b6000610220838361030c60201b60201c565b6103015760016007600085815260200190815260200160002060000160008473ffffffffffffffffffffffffffffffffffffffff1673ffffffffffffffffffffffffffffffffffffffff16815260200190815260200160002060006101000a81548160ff02191690831515021790555061029e61037760201b60201c565b73ffffffffffffffffffffffffffffffffffffffff168273ffffffffffffffffffffffffffffffffffffffff16847f2f8788117e7eff1d82e926ec794901d17c78024a50270940304540a733656f0d60405160405180910390a460019050610306565b600090505b92915050565b60006007600084815260200190815260200160002060000160008373ffffffffffffffffffffffffffffffffffffffff1673ffffffffffffffffffffffffffffffffffffffff16815260200190815260200160002060009054906101000a900460ff16905092915050565b600033905090565b6000604051905090565b600080fd5b600080fd5b600073ffffffffffffffffffffffffffffffffffffffff82169050919050565b60006103be82610393565b9050919050565b6103ce816103b3565b81146103d957600080fd5b50565b6000815190506103eb816103c5565b92915050565b600080fd5b600080fd5b6000601f19601f8301169050919050565b7f4e487b7100000000000000000000000000000000000000000000000000000000600052604160045260246000fd5b610444826103fb565b810181811067ffffffffffffffff821117156104635761046261040c565b5b80604052505050565b600061047661037f565b9050610482828261043b565b919050565b600067ffffffffffffffff8211156104a2576104a161040c565b5b6104ab826103fb565b9050602081019050919050565b60005b838110156104d65780820151818401526020810190506104bb565b60008484015250505050565b60006104f56104f084610487565b61046c565b905082815260208101848484011115610511576105106103f6565b5b61051c8482856104b8565b509392505050565b600082601f830112610539576105386103f1565b5b81516105498482602086016104e2565b91505092915050565b600080600080600060a0868803121561056e5761056d610389565b5b600061057c888289016103dc565b955050602061058d888289016103dc565b945050604061059e888289016103dc565b93505060606105af888289016103dc565b925050608086015167ffffffffffffffff8111156105d0576105cf61038e565b5b6105dc88828901610524565b9150509295509295909350565b600081519050919050565b7f4e487b7100000000000000000000000000000000000000000000000000000000600052602260045260246000fd5b6000600282049050600182168061063b57607f821691505b60208210810361064e5761064d6105f4565b5b50919050565b60008190508160005260206000209050919050565b60006020601f8301049050919050565b600082821b905092915050565b6000600883026106b67fffffffffffffffffffffffffffffffffffffffffffffffffffffffffffffffff82610679565b6106c08683610679565b95508019841693508086168417925050509392505050565b6000819050919050565b6000819050919050565b60006107076107026106fd846106d8565b6106e2565b6106d8565b9050919050565b6000819050919050565b610721836106ec565b61073561072d8261070e565b848454610686565b825550505050565b600090565b61074a61073d565b610755818484610718565b505050565b5b818110156107795761076e600082610742565b60018101905061075b565b5050565b601f8211156107be5761078f81610654565b61079884610669565b810160208510156107a7578190505b6107bb6107b385610669565b83018261075a565b50505b505050565b600082821c905092915050565b60006107e1600019846008026107c3565b1980831691505092915050565b60006107fa83836107d0565b9150826002028217905092915050565b610813826105e9565b67ffffffffffffffff81111561082c5761082b61040c565b5b6108368254610623565b61084182828561077d565b600060209050601f8311600181146108745760008415610862578287015190505b61086c85826107ee565b8655506108d4565b601f19841661088286610654565b60005b828110156108aa57848901518255600182019150602085019450602081019050610885565b868310156108c757848901516108c3601f8916826107d0565b8355505b6001600288020188555050505b505050505050565b60805160a051615a1d6109086000396000610ea1015260008181610f3a01526115980152615a1d6000f3fe608060405234801561001057600080fd5b50600436106102325760003560e01c8063661c27a811610130578063a217fddf116100b8578063d0ba5cca1161007c578063d0ba5cca146106b3578063d547741f146106e3578063ddca3f43146106ff578063e985e9c51461071d578063ef84b2651461074d57610232565b8063a217fddf14610611578063a22cb4651461062f578063b88d4fde1461064b578063bec1de4814610667578063c87b56dd1461068357610232565b80638b49ecf9116100ff5780638b49ecf9146105455780638e0055531461057757806391d1485414610593578063922635d8146105c357806395d89b41146105f357610232565b8063661c27a8146104cf57806370a08231146104ed57806375b238fc1461051d5780638456cb591461053b57610232565b8063278ecde1116101be57806342842e0e1161018257806342842e0e1461042b57806355f804b3146104475780635c975abb1461046357806361d027b3146104815780636352211e1461049f57610232565b8063278ecde11461039b5780632f2ff15d146103cb57806336568abe146103e75780633f4ba83a1461040357806341fbb0501461040d57610232565b8063095ea7b311610205578063095ea7b3146102e557806314e7cc761461030157806318160ddd1461033157806323b872dd1461034f578063248a9ca31461036b57610232565b806301ffc9a71461023757806303fcaf831461026757806306fdde0314610297578063081812fc146102b5575b600080fd5b610251600480360381019061024c9190613e73565b61077d565b60405161025e9190613ebb565b60405180910390f35b610281600480360381019061027c9190613f74565b61078f565b60405161028e9190613ff4565b60405180910390f35b61029f6107af565b6040516102ac919061409f565b60405180910390f35b6102cf60048036038101906102ca91906140ed565b610841565b6040516102dc9190614129565b60405180910390f35b6102ff60048036038101906102fa9190614144565b61085d565b005b61031b600480360381019061031691906141cc565b610873565b6040516103289190613ff4565b60405180910390f35b6103396108bb565b6040516103469190613ff4565b60405180910390f35b6103696004803603810190610364919061421f565b6108d1565b005b610385600480360381019061038091906142a8565b6109d3565b60405161039291906142e4565b60405180910390f35b6103b560048036038101906103b091906140ed565b6109f3565b6040516103c2919061430e565b60405180910390f35b6103e560048036038101906103e09190614329565b610dcd565b005b61040160048036038101906103fc9190614329565b610def565b005b61040b610e6a565b005b610415610e9f565b6040516104229190614129565b60405180910390f35b6104456004803603810190610440919061421f565b610ec3565b005b610461600480360381019061045c919061449e565b610ee3565b005b61046b610f21565b6040516104789190613ebb565b60405180910390f35b610489610f38565b6040516104969190614129565b60405180910390f35b6104b960048036038101906104b491906140ed565b610f5c565b6040516104c69190614129565b60405180910390f35b6104d7610f6e565b6040516104e49190614129565b60405180910390f35b610507600480360381019061050291906144e7565b610f94565b6040516105149190613ff4565b60405180910390f35b61052561104e565b60405161053291906142e4565b60405180910390f35b610543611072565b005b61055f600480360381019061055a9190614514565b6110a7565b60405161056e93929190614554565b60405180910390f35b610591600480360381019061058c91906145c5565b6117cf565b005b6105ad60048036038101906105a89190614329565b611846565b6040516105ba9190613ebb565b60405180910390f35b6105dd60048036038101906105d891906140ed565b6118b1565b6040516105ea91906146c1565b60405180910390f35b6105fb611b8a565b604051610608919061409f565b60405180910390f35b610619611c1c565b60405161062691906142e4565b60405180910390f35b61064960048036038101906106449190614709565b611c23565b005b610665600480360381019061066091906147ea565b611c39565b005b610681600480360381019061067c91906144e7565b611c5e565b005b61069d600480360381019061069891906140ed565b611cb0565b6040516106aa919061409f565b60405180910390f35b6106cd60048036038101906106c891906148a6565b611d3a565b6040516106da9190613ff4565b60405180910390f35b6106fd60048036038101906106f89190614329565b611df4565b005b610707611e16565b6040516107149190614994565b60405180910390f35b610737600480360381019061073291906149af565b611e2a565b6040516107449190613ebb565b60405180910390f35b610767600480360381019061076291906149ef565b611ebe565b6040516107749190613ff4565b60405180910390f35b600061078882611f7b565b9050919050565b6000610799611ff5565b6107a585858585612036565b9050949350505050565b6060600080546107be90614ad4565b80601f01602080910402602001604051908101604052809291908181526020018280546107ea90614ad4565b80156108375780601f1061080c57610100808354040283529160200191610837565b820191906000526020600020905b81548152906001019060200180831161081a57829003601f168201915b5050505050905090565b600061084c826124b0565b5061085682612538565b9050919050565b61086f828261086a612575565b61257d565b5050565b600061087d61258f565b610885611ff5565b61089884610891612575565b85856125d5565b6fffffffffffffffffffffffffffffffff1690506108b4612843565b9392505050565b60006001600a546108cc9190614b34565b905090565b600073ffffffffffffffffffffffffffffffffffffffff168273ffffffffffffffffffffffffffffffffffffffff16036109435760006040517f64a0ae9200000000000000000000000000000000000000000000000000000000815260040161093a9190614129565b60405180910390fd5b60006109578383610952612575565b61284d565b90508373ffffffffffffffffffffffffffffffffffffffff168173ffffffffffffffffffffffffffffffffffffffff16146109cd578382826040517f64283d7b0000000000000000000000000000000000000000000000000000000081526004016109c493929190614b68565b60405180910390fd5b50505050565b600060076000838152602001908152602001600020600101549050919050565b60006109fd61258f565b6000600c60008481526020019081526020016000209050621275008160020160009054906101000a900467ffffffffffffffff16610a3b9190614b9f565b67ffffffffffffffff16421015610a87576040517f08c379a0000000000000000000000000000000000000000000000000000000008152600401610a7e90614c27565b60405180910390fd5b600073ffffffffffffffffffffffffffffffffffffffff168160000160009054906101000a900473ffffffffffffffffffffffffffffffffffffffff1673ffffffffffffffffffffffffffffffffffffffff1603610b1a576040517f08c379a0000000000000000000000000000000000000000000000000000000008152600401610b1190614c93565b60405180910390fd5b60008160020160089054906101000a90046fffffffffffffffffffffffffffffffff166fffffffffffffffffffffffffffffffff1611610b8f576040517f08c379a0000000000000000000000000000000000000000000000000000000008152600401610b8690614cff565b60405180910390fd5b60008160030160009054906101000a90046fffffffffffffffffffffffffffffffff166fffffffffffffffffffffffffffffffff1614610c04576040517f08c379a0000000000000000000000000000000000000000000000000000000008152600401610bfb90614d6b565b60405180910390fd5b60008160030160109054906101000a90046fffffffffffffffffffffffffffffffff166fffffffffffffffffffffffffffffffff1614610c79576040517f08c379a0000000000000000000000000000000000000000000000000000000008152600401610c7090614dd7565b60405180910390fd5b8060020160089054906101000a90046fffffffffffffffffffffffffffffffff169150818160030160108282829054906101000a90046fffffffffffffffffffffffffffffffff16610ccb9190614df7565b92506101000a8154816fffffffffffffffffffffffffffffffff02191690836fffffffffffffffffffffffffffffffff160217905550610d868160000160009054906101000a900473ffffffffffffffffffffffffffffffffffffffff16836fffffffffffffffffffffffffffffffff168360010160009054906101000a900473ffffffffffffffffffffffffffffffffffffffff1673ffffffffffffffffffffffffffffffffffffffff1661286b9092919063ffffffff16565b7f0ad8da1ab4be626cf64cf39be7793625fb35d2fcb9661960e4c8ce8c871b66ec8383604051610db7929190614e3b565b60405180910390a150610dc8612843565b919050565b610dd6826109d3565b610ddf816128ea565b610de983836128fe565b50505050565b610df7612575565b73ffffffffffffffffffffffffffffffffffffffff168173ffffffffffffffffffffffffffffffffffffffff1614610e5b576040517f6697b23200000000000000000000000000000000000000000000000000000000815260040160405180910390fd5b610e6582826129f0565b505050565b7fa49807205ce4d355092ef5a8a18f56e8913cf4a201fbe287825b095693c21775610e94816128ea565b610e9c612ae3565b50565b7f000000000000000000000000000000000000000000000000000000000000000081565b610ede83838360405180602001604052806000815250611c39565b505050565b7fa49807205ce4d355092ef5a8a18f56e8913cf4a201fbe287825b095693c21775610f0d816128ea565b8160099081610f1c9190615010565b505050565b6000600660009054906101000a900460ff16905090565b7f000000000000000000000000000000000000000000000000000000000000000081565b6000610f67826124b0565b9050919050565b600b60029054906101000a900473ffffffffffffffffffffffffffffffffffffffff1681565b60008073ffffffffffffffffffffffffffffffffffffffff168273ffffffffffffffffffffffffffffffffffffffff16036110075760006040517f89c62b64000000000000000000000000000000000000000000000000000000008152600401610ffe9190614129565b60405180910390fd5b600360008373ffffffffffffffffffffffffffffffffffffffff1673ffffffffffffffffffffffffffffffffffffffff168152602001908152602001600020549050919050565b7fa49807205ce4d355092ef5a8a18f56e8913cf4a201fbe287825b095693c2177581565b7fa49807205ce4d355092ef5a8a18f56e8913cf4a201fbe287825b095693c2177561109c816128ea565b6110a4612b46565b50565b60008060006110b461258f565b7fa49807205ce4d355092ef5a8a18f56e8913cf4a201fbe287825b095693c217756110de816128ea565b6000600c600088815260200190815260200160002090508060020160009054906101000a900467ffffffffffffffff1667ffffffffffffffff1642101561115a576040517f08c379a00000000000000000000000000000000000000000000000000000000081526004016111519061512e565b60405180910390fd5b600073ffffffffffffffffffffffffffffffffffffffff168160000160009054906101000a900473ffffffffffffffffffffffffffffffffffffffff1673ffffffffffffffffffffffffffffffffffffffff16036111ed576040517f08c379a00000000000000000000000000000000000000000000000000000000081526004016111e490614c93565b60405180910390fd5b60008160020160089054906101000a90046fffffffffffffffffffffffffffffffff166fffffffffffffffffffffffffffffffff1611611262576040517f08c379a000000000000000000000000000000000000000000000000000000000815260040161125990614cff565b60405180910390fd5b60008160030160009054906101000a90046fffffffffffffffffffffffffffffffff166fffffffffffffffffffffffffffffffff16146112d7576040517f08c379a00000000000000000000000000000000000000000000000000000000081526004016112ce90614d6b565b60405180910390fd5b60008160030160109054906101000a90046fffffffffffffffffffffffffffffffff166fffffffffffffffffffffffffffffffff161461134c576040517f08c379a000000000000000000000000000000000000000000000000000000000815260040161134390614dd7565b60405180910390fd5b8060020160089054906101000a90046fffffffffffffffffffffffffffffffff166fffffffffffffffffffffffffffffffff16866fffffffffffffffffffffffffffffffff1611156113d3576040517f08c379a00000000000000000000000000000000000000000000000000000000081526004016113ca9061519a565b60405180910390fd5b6000866fffffffffffffffffffffffffffffffff16111561165157612710600b60009054906101000a900461ffff1661ffff168761141191906151ba565b61141b9190615226565b935083866114299190615257565b9450848160030160008282829054906101000a90046fffffffffffffffffffffffffffffffff1661145a9190614df7565b92506101000a8154816fffffffffffffffffffffffffffffffff02191690836fffffffffffffffffffffffffffffffff160217905550611513600b60029054906101000a900473ffffffffffffffffffffffffffffffffffffffff16866fffffffffffffffffffffffffffffffff168360010160009054906101000a900473ffffffffffffffffffffffffffffffffffffffff1673ffffffffffffffffffffffffffffffffffffffff1661286b9092919063ffffffff16565b6000846fffffffffffffffffffffffffffffffff16111561161557838160040160008282829054906101000a90046fffffffffffffffffffffffffffffffff1661155d9190614df7565b92506101000a8154816fffffffffffffffffffffffffffffffff02191690836fffffffffffffffffffffffffffffffff1602179055506116147f0000000000000000000000000000000000000000000000000000000000000000856fffffffffffffffffffffffffffffffff168360010160009054906101000a900473ffffffffffffffffffffffffffffffffffffffff1673ffffffffffffffffffffffffffffffffffffffff1661286b9092919063ffffffff16565b5b7fd336a2ffb44612c209a7f211c8a51d8785afdd5f609ded5c6dd3f83708953fb58786866040516116489392919061529b565b60405180910390a15b858160020160089054906101000a90046fffffffffffffffffffffffffffffffff1661167d9190615257565b92506000836fffffffffffffffffffffffffffffffff1611156117be57828160030160108282829054906101000a90046fffffffffffffffffffffffffffffffff166116c99190614df7565b92506101000a8154816fffffffffffffffffffffffffffffffff02191690836fffffffffffffffffffffffffffffffff1602179055506117848160000160009054906101000a900473ffffffffffffffffffffffffffffffffffffffff16846fffffffffffffffffffffffffffffffff168360010160009054906101000a900473ffffffffffffffffffffffffffffffffffffffff1673ffffffffffffffffffffffffffffffffffffffff1661286b9092919063ffffffff16565b7f0ad8da1ab4be626cf64cf39be7793625fb35d2fcb9661960e4c8ce8c871b66ec87846040516117b5929190614e3b565b60405180910390a15b50506117c8612843565b9250925092565b6000801b6117dc816128ea565b6127108261ffff161115611825576040517f08c379a000000000000000000000000000000000000000000000000000000000815260040161181c9061531e565b60405180910390fd5b81600b60006101000a81548161ffff021916908361ffff1602179055505050565b60006007600084815260200190815260200160002060000160008373ffffffffffffffffffffffffffffffffffffffff1673ffffffffffffffffffffffffffffffffffffffff16815260200190815260200160002060009054906101000a900460ff16905092915050565b6118b9613d3a565b600c6000838152602001908152602001600020604051806101000160405290816000820160009054906101000a900473ffffffffffffffffffffffffffffffffffffffff1673ffffffffffffffffffffffffffffffffffffffff1673ffffffffffffffffffffffffffffffffffffffff1681526020016001820160009054906101000a900473ffffffffffffffffffffffffffffffffffffffff1673ffffffffffffffffffffffffffffffffffffffff1673ffffffffffffffffffffffffffffffffffffffff1681526020016001820160149054906101000a900467ffffffffffffffff1667ffffffffffffffff1667ffffffffffffffff1681526020016002820160009054906101000a900467ffffffffffffffff1667ffffffffffffffff1667ffffffffffffffff1681526020016002820160089054906101000a90046fffffffffffffffffffffffffffffffff166fffffffffffffffffffffffffffffffff166fffffffffffffffffffffffffffffffff1681526020016003820160009054906101000a90046fffffffffffffffffffffffffffffffff166fffffffffffffffffffffffffffffffff166fffffffffffffffffffffffffffffffff1681526020016003820160109054906101000a90046fffffffffffffffffffffffffffffffff166fffffffffffffffffffffffffffffffff166fffffffffffffffffffffffffffffffff1681526020016004820160009054906101000a90046fffffffffffffffffffffffffffffffff166fffffffffffffffffffffffffffffffff166fffffffffffffffffffffffffffffffff16815250509050600073ffffffffffffffffffffffffffffffffffffffff16816000015173ffffffffffffffffffffffffffffffffffffffff1603611b85576040517f08c379a0000000000000000000000000000000000000000000000000000000008152600401611b7c90614c93565b60405180910390fd5b919050565b606060018054611b9990614ad4565b80601f0160208091040260200160405190810160405280929190818152602001828054611bc590614ad4565b8015611c125780601f10611be757610100808354040283529160200191611c12565b820191906000526020600020905b815481529060010190602001808311611bf557829003601f168201915b5050505050905090565b6000801b81565b611c35611c2e612575565b8383612ba9565b5050565b611c448484846108d1565b611c58611c4f612575565b85858585612d18565b50505050565b6000801b611c6b816128ea565b81600b60026101000a81548173ffffffffffffffffffffffffffffffffffffffff021916908373ffffffffffffffffffffffffffffffffffffffff1602179055505050565b6060611cbb826124b0565b50600060098054611ccb90614ad4565b905011611ce75760405180602001604052806000815250611d33565b6009611d083073ffffffffffffffffffffffffffffffffffffffff16612ec9565b611d1184612ef6565b604051602001611d2393929190615423565b6040516020818303038152906040525b9050919050565b6000611d4461258f565b611d4c611ff5565b611d588b898c8c612036565b90508773ffffffffffffffffffffffffffffffffffffffff1663d505accf883089898989896040518863ffffffff1660e01b8152600401611d9f97969594939291906154a3565b600060405180830381600087803b158015611db957600080fd5b505af1158015611dcd573d6000803e3d6000fd5b50505050611ddd81888a896125d5565b50611de6612843565b9a9950505050505050505050565b611dfd826109d3565b611e06816128ea565b611e1083836129f0565b50505050565b600b60009054906101000a900461ffff1681565b6000600560008473ffffffffffffffffffffffffffffffffffffffff1673ffffffffffffffffffffffffffffffffffffffff16815260200190815260200160002060008373ffffffffffffffffffffffffffffffffffffffff1673ffffffffffffffffffffffffffffffffffffffff16815260200190815260200160002060009054906101000a900460ff16905092915050565b6000611ec861258f565b611ed0611ff5565b8773ffffffffffffffffffffffffffffffffffffffff1663d505accf883089898989896040518863ffffffff1660e01b8152600401611f1597969594939291906154a3565b600060405180830381600087803b158015611f2f57600080fd5b505af1158015611f43573d6000803e3d6000fd5b50505050611f5389888a896125d5565b6fffffffffffffffffffffffffffffffff169050611f6f612843565b98975050505050505050565b60007f7965db0b000000000000000000000000000000000000000000000000000000007bffffffffffffffffffffffffffffffffffffffffffffffffffffffff1916827bffffffffffffffffffffffffffffffffffffffffffffffffffffffff19161480611fee5750611fed82612fc4565b5b9050919050565b611ffd610f21565b15612034576040517fd93c066500000000000000000000000000000000000000000000000000000000815260040160405180910390fd5b565b60008073ffffffffffffffffffffffffffffffffffffffff168573ffffffffffffffffffffffffffffffffffffffff16036120a6576040517f08c379a000000000000000000000000000000000000000000000000000000000815260040161209d9061555e565b60405180910390fd5b600073ffffffffffffffffffffffffffffffffffffffff168473ffffffffffffffffffffffffffffffffffffffff1603612115576040517f08c379a000000000000000000000000000000000000000000000000000000000815260040161210c906155ca565b60405180910390fd5b8167ffffffffffffffff168367ffffffffffffffff161061216b576040517f08c379a00000000000000000000000000000000000000000000000000000000081526004016121629061565c565b60405180910390fd5b600a54905061217a85826130a6565b6040518061010001604052808673ffffffffffffffffffffffffffffffffffffffff1681526020018573ffffffffffffffffffffffffffffffffffffffff1681526020018467ffffffffffffffff1681526020018367ffffffffffffffff16815260200160006fffffffffffffffffffffffffffffffff16815260200160006fffffffffffffffffffffffffffffffff16815260200160006fffffffffffffffffffffffffffffffff16815260200160006fffffffffffffffffffffffffffffffff16815250600c600083815260200190815260200160002060008201518160000160006101000a81548173ffffffffffffffffffffffffffffffffffffffff021916908373ffffffffffffffffffffffffffffffffffffffff16021790555060208201518160010160006101000a81548173ffffffffffffffffffffffffffffffffffffffff021916908373ffffffffffffffffffffffffffffffffffffffff16021790555060408201518160010160146101000a81548167ffffffffffffffff021916908367ffffffffffffffff16021790555060608201518160020160006101000a81548167ffffffffffffffff021916908367ffffffffffffffff16021790555060808201518160020160086101000a8154816fffffffffffffffffffffffffffffffff02191690836fffffffffffffffffffffffffffffffff16021790555060a08201518160030160006101000a8154816fffffffffffffffffffffffffffffffff02191690836fffffffffffffffffffffffffffffffff16021790555060c08201518160030160106101000a8154816fffffffffffffffffffffffffffffffff02191690836fffffffffffffffffffffffffffffffff16021790555060e08201518160040160006101000a8154816fffffffffffffffffffffffffffffffff02191690836fffffffffffffffffffffffffffffffff160217905550905050600a6000815461244d9061567c565b919050819055508473ffffffffffffffffffffffffffffffffffffffff167fb5b292858f198e945f7f90976fa9693bfb9aafa85ddb263d5baaf4aeafa9bed2858386866040516124a094939291906156d3565b60405180910390a2949350505050565b6000806124bc836130c4565b9050600073ffffffffffffffffffffffffffffffffffffffff168173ffffffffffffffffffffffffffffffffffffffff160361252f57826040517f7e2732890000000000000000000000000000000000000000000000000000000081526004016125269190613ff4565b60405180910390fd5b80915050919050565b60006004600083815260200190815260200160002060009054906101000a900473ffffffffffffffffffffffffffffffffffffffff169050919050565b600033905090565b61258a8383836001613101565b505050565b6002600854036125cb576040517f3ee5aeb500000000000000000000000000000000000000000000000000000000815260040160405180910390fd5b6002600881905550565b600080600c600087815260200190815260200160002090508060020160009054906101000a900467ffffffffffffffff1667ffffffffffffffff164210612651576040517f08c379a000000000000000000000000000000000000000000000000000000000815260040161264890615764565b60405180910390fd5b8060010160009054906101000a900473ffffffffffffffffffffffffffffffffffffffff1673ffffffffffffffffffffffffffffffffffffffff168473ffffffffffffffffffffffffffffffffffffffff16146126e3576040517f08c379a00000000000000000000000000000000000000000000000000000000081526004016126da906155ca565b60405180910390fd5b6000836fffffffffffffffffffffffffffffffff1611612738576040517f08c379a000000000000000000000000000000000000000000000000000000000815260040161272f9061519a565b60405180910390fd5b6127778530856fffffffffffffffffffffffffffffffff168773ffffffffffffffffffffffffffffffffffffffff166132c6909392919063ffffffff16565b828160020160088282829054906101000a90046fffffffffffffffffffffffffffffffff166127a69190614df7565b92506101000a8154816fffffffffffffffffffffffffffffffff02191690836fffffffffffffffffffffffffffffffff1602179055508060020160089054906101000a90046fffffffffffffffffffffffffffffffff1691507f42b5aa796d7c00d82ad4a384a09e41f602be2e6f69198c4403f361bf7d65165b8684846040516128329392919061529b565b60405180910390a150949350505050565b6001600881905550565b6000612857611ff5565b612862848484613348565b90509392505050565b6128e5838473ffffffffffffffffffffffffffffffffffffffff1663a9059cbb858560405160240161289e929190615784565b604051602081830303815290604052915060e01b6020820180517bffffffffffffffffffffffffffffffffffffffffffffffffffffffff8381831617835250505050613562565b505050565b6128fb816128f6612575565b613604565b50565b600061290a8383611846565b6129e55760016007600085815260200190815260200160002060000160008473ffffffffffffffffffffffffffffffffffffffff1673ffffffffffffffffffffffffffffffffffffffff16815260200190815260200160002060006101000a81548160ff021916908315150217905550612982612575565b73ffffffffffffffffffffffffffffffffffffffff168273ffffffffffffffffffffffffffffffffffffffff16847f2f8788117e7eff1d82e926ec794901d17c78024a50270940304540a733656f0d60405160405180910390a4600190506129ea565b600090505b92915050565b60006129fc8383611846565b15612ad85760006007600085815260200190815260200160002060000160008473ffffffffffffffffffffffffffffffffffffffff1673ffffffffffffffffffffffffffffffffffffffff16815260200190815260200160002060006101000a81548160ff021916908315150217905550612a75612575565b73ffffffffffffffffffffffffffffffffffffffff168273ffffffffffffffffffffffffffffffffffffffff16847ff6391f5c32d9c69d2a47ea670b442974b53935d1edc7fd64eb21e047a839171b60405160405180910390a460019050612add565b600090505b92915050565b612aeb613655565b6000600660006101000a81548160ff0219169083151502179055507f5db9ee0a495bf2e6ff9c91a7834c1ba4fdd244a5e8aa4e537bd38aeae4b073aa612b2f612575565b604051612b3c9190614129565b60405180910390a1565b612b4e611ff5565b6001600660006101000a81548160ff0219169083151502179055507f62e78cea01bee320cd4e420270b5ea74000d11b0c9f74754ebdbfc544b05a258612b92612575565b604051612b9f9190614129565b60405180910390a1565b600073ffffffffffffffffffffffffffffffffffffffff168273ffffffffffffffffffffffffffffffffffffffff1603612c1a57816040517f5b08ba18000000000000000000000000000000000000000000000000000000008152600401612c119190614129565b60405180910390fd5b80600560008573ffffffffffffffffffffffffffffffffffffffff1673ffffffffffffffffffffffffffffffffffffffff16815260200190815260200160002060008473ffffffffffffffffffffffffffffffffffffffff1673ffffffffffffffffffffffffffffffffffffffff16815260200190815260200160002060006101000a81548160ff0219169083151502179055508173ffffffffffffffffffffffffffffffffffffffff168373ffffffffffffffffffffffffffffffffffffffff167f17307eab39ab6107e8899845ad3d59bd9653f200f220920489ca2b5937696c3183604051612d0b9190613ebb565b60405180910390a3505050565b60008373ffffffffffffffffffffffffffffffffffffffff163b1115612ec2578273ffffffffffffffffffffffffffffffffffffffff1663150b7a02868685856040518563ffffffff1660e01b8152600401612d779493929190615802565b6020604051808303816000875af1925050508015612db357506040513d601f19601f82011682018060405250810190612db09190615863565b60015b612e37573d8060008114612de3576040519150601f19603f3d011682016040523d82523d6000602084013e612de8565b606091505b506000815103612e2f57836040517f64a0ae92000000000000000000000000000000000000000000000000000000008152600401612e269190614129565b60405180910390fd5b805181602001fd5b63150b7a0260e01b7bffffffffffffffffffffffffffffffffffffffffffffffffffffffff1916817bffffffffffffffffffffffffffffffffffffffffffffffffffffffff191614612ec057836040517f64a0ae92000000000000000000000000000000000000000000000000000000008152600401612eb79190614129565b60405180910390fd5b505b5050505050565b6060612eef8273ffffffffffffffffffffffffffffffffffffffff16601460ff16613695565b9050919050565b606060006001612f05846138db565b01905060008167ffffffffffffffff811115612f2457612f23614373565b5b6040519080825280601f01601f191660200182016040528015612f565781602001600182028036833780820191505090505b509050600082602001820190505b600115612fb9578080600190039150507f3031323334353637383961626364656600000000000000000000000000000000600a86061a8153600a8581612fad57612fac6151f7565b5b04945060008503612f64575b819350505050919050565b60007f80ac58cd000000000000000000000000000000000000000000000000000000007bffffffffffffffffffffffffffffffffffffffffffffffffffffffff1916827bffffffffffffffffffffffffffffffffffffffffffffffffffffffff1916148061308f57507f5b5e139f000000000000000000000000000000000000000000000000000000007bffffffffffffffffffffffffffffffffffffffffffffffffffffffff1916827bffffffffffffffffffffffffffffffffffffffffffffffffffffffff1916145b8061309f575061309e82613a2e565b5b9050919050565b6130c0828260405180602001604052806000815250613a98565b5050565b60006002600083815260200190815260200160002060009054906101000a900473ffffffffffffffffffffffffffffffffffffffff169050919050565b808061313a5750600073ffffffffffffffffffffffffffffffffffffffff168273ffffffffffffffffffffffffffffffffffffffff1614155b1561326e57600061314a846124b0565b9050600073ffffffffffffffffffffffffffffffffffffffff168373ffffffffffffffffffffffffffffffffffffffff16141580156131b557508273ffffffffffffffffffffffffffffffffffffffff168173ffffffffffffffffffffffffffffffffffffffff1614155b80156131c857506131c68184611e2a565b155b1561320a57826040517fa9fbf51f0000000000000000000000000000000000000000000000000000000081526004016132019190614129565b60405180910390fd5b811561326c57838573ffffffffffffffffffffffffffffffffffffffff168273ffffffffffffffffffffffffffffffffffffffff167f8c5be1e5ebec7d5bd14f71427d1e84f3dd0314c0f7b2291e5b200ac8c7c3b92560405160405180910390a45b505b836004600085815260200190815260200160002060006101000a81548173ffffffffffffffffffffffffffffffffffffffff021916908373ffffffffffffffffffffffffffffffffffffffff16021790555050505050565b613342848573ffffffffffffffffffffffffffffffffffffffff166323b872dd8686866040516024016132fb93929190615890565b604051602081830303815290604052915060e01b6020820180517bffffffffffffffffffffffffffffffffffffffffffffffffffffffff8381831617835250505050613562565b50505050565b600080613354846130c4565b9050600073ffffffffffffffffffffffffffffffffffffffff168373ffffffffffffffffffffffffffffffffffffffff161461339657613395818486613abc565b5b600073ffffffffffffffffffffffffffffffffffffffff168173ffffffffffffffffffffffffffffffffffffffff1614613427576133d8600085600080613101565b6001600360008373ffffffffffffffffffffffffffffffffffffffff1673ffffffffffffffffffffffffffffffffffffffff168152602001908152602001600020600082825403925050819055505b600073ffffffffffffffffffffffffffffffffffffffff168573ffffffffffffffffffffffffffffffffffffffff16146134aa576001600360008773ffffffffffffffffffffffffffffffffffffffff1673ffffffffffffffffffffffffffffffffffffffff168152602001908152602001600020600082825401925050819055505b846002600086815260200190815260200160002060006101000a81548173ffffffffffffffffffffffffffffffffffffffff021916908373ffffffffffffffffffffffffffffffffffffffff160217905550838573ffffffffffffffffffffffffffffffffffffffff168273ffffffffffffffffffffffffffffffffffffffff167fddf252ad1be2c89b69c2b068fc378daa952ba7f163c4a11628f55a4df523b3ef60405160405180910390a4809150509392505050565b600080602060008451602086016000885af180613585576040513d6000823e3d81fd5b3d9250600051915050600082146135a05760018114156135bc565b60008473ffffffffffffffffffffffffffffffffffffffff163b145b156135fe57836040517f5274afe70000000000000000000000000000000000000000000000000000000081526004016135f59190614129565b60405180910390fd5b50505050565b61360e8282611846565b6136515780826040517fe2517d3f0000000000000000000000000000000000000000000000000000000081526004016136489291906158c7565b60405180910390fd5b5050565b61365d610f21565b613693576040517f8dfc202b00000000000000000000000000000000000000000000000000000000815260040160405180910390fd5b565b60606000839050600060028460026136ad91906158f0565b6136b79190615932565b67ffffffffffffffff8111156136d0576136cf614373565b5b6040519080825280601f01601f1916602001820160405280156137025781602001600182028036833780820191505090505b5090507f30000000000000000000000000000000000000000000000000000000000000008160008151811061373a57613739615966565b5b60200101907effffffffffffffffffffffffffffffffffffffffffffffffffffffffffffff1916908160001a9053507f78000000000000000000000000000000000000000000000000000000000000008160018151811061379e5761379d615966565b5b60200101907effffffffffffffffffffffffffffffffffffffffffffffffffffffffffffff1916908160001a905350600060018560026137de91906158f0565b6137e89190615932565b90505b6001811115613888577f3031323334353637383961626364656600000000000000000000000000000000600f84166010811061382a57613829615966565b5b1a60f81b82828151811061384157613840615966565b5b60200101907effffffffffffffffffffffffffffffffffffffffffffffffffffffffffffff1916908160001a905350600483901c92508061388190615995565b90506137eb565b50600082146138d05784846040517fe22e27eb0000000000000000000000000000000000000000000000000000000081526004016138c79291906159be565b60405180910390fd5b809250505092915050565b600080600090507a184f03e93ff9f4daa797ed6e38ed64bf6a1f0100000000000000008310613939577a184f03e93ff9f4daa797ed6e38ed64bf6a1f010000000000000000838161392f5761392e6151f7565b5b0492506040810190505b6d04ee2d6d415b85acef81000000008310613976576d04ee2d6d415b85acef8100000000838161396c5761396b6151f7565b5b0492506020810190505b662386f26fc1000083106139a557662386f26fc10000838161399b5761399a6151f7565b5b0492506010810190505b6305f5e10083106139ce576305f5e10083816139c4576139c36151f7565b5b0492506008810190505b61271083106139f35761271083816139e9576139e86151f7565b5b0492506004810190505b60648310613a165760648381613a0c57613a0b6151f7565b5b0492506002810190505b600a8310613a25576001810190505b80915050919050565b60007f01ffc9a7000000000000000000000000000000000000000000000000000000007bffffffffffffffffffffffffffffffffffffffffffffffffffffffff1916827bffffffffffffffffffffffffffffffffffffffffffffffffffffffff1916149050919050565b613aa28383613b80565b613ab7613aad612575565b6000858585612d18565b505050565b613ac7838383613c79565b613b7b57600073ffffffffffffffffffffffffffffffffffffffff168373ffffffffffffffffffffffffffffffffffffffff1603613b3c57806040517f7e273289000000000000000000000000000000000000000000000000000000008152600401613b339190613ff4565b60405180910390fd5b81816040517f177e802f000000000000000000000000000000000000000000000000000000008152600401613b72929190615784565b60405180910390fd5b505050565b600073ffffffffffffffffffffffffffffffffffffffff168273ffffffffffffffffffffffffffffffffffffffff1603613bf25760006040517f64a0ae92000000000000000000000000000000000000000000000000000000008152600401613be99190614129565b60405180910390fd5b6000613c008383600061284d565b9050600073ffffffffffffffffffffffffffffffffffffffff168173ffffffffffffffffffffffffffffffffffffffff1614613c745760006040517f73c6ac6e000000000000000000000000000000000000000000000000000000008152600401613c6b9190614129565b60405180910390fd5b505050565b60008073ffffffffffffffffffffffffffffffffffffffff168373ffffffffffffffffffffffffffffffffffffffff1614158015613d3157508273ffffffffffffffffffffffffffffffffffffffff168473ffffffffffffffffffffffffffffffffffffffff161480613cf25750613cf18484611e2a565b5b80613d3057508273ffffffffffffffffffffffffffffffffffffffff16613d1883612538565b73ffffffffffffffffffffffffffffffffffffffff16145b5b90509392505050565b604051806101000160405280600073ffffffffffffffffffffffffffffffffffffffff168152602001600073ffffffffffffffffffffffffffffffffffffffff168152602001600067ffffffffffffffff168152602001600067ffffffffffffffff16815260200160006fffffffffffffffffffffffffffffffff16815260200160006fffffffffffffffffffffffffffffffff16815260200160006fffffffffffffffffffffffffffffffff16815260200160006fffffffffffffffffffffffffffffffff1681525090565b6000604051905090565b600080fd5b600080fd5b60007fffffffff0000000000000000000000000000000000000000000000000000000082169050919050565b613e5081613e1b565b8114613e5b57600080fd5b50565b600081359050613e6d81613e47565b92915050565b600060208284031215613e8957613e88613e11565b5b6000613e9784828501613e5e565b91505092915050565b60008115159050919050565b613eb581613ea0565b82525050565b6000602082019050613ed06000830184613eac565b92915050565b600073ffffffffffffffffffffffffffffffffffffffff82169050919050565b6000613f0182613ed6565b9050919050565b613f1181613ef6565b8114613f1c57600080fd5b50565b600081359050613f2e81613f08565b92915050565b600067ffffffffffffffff82169050919050565b613f5181613f34565b8114613f5c57600080fd5b50565b600081359050613f6e81613f48565b92915050565b60008060008060808587031215613f8e57613f8d613e11565b5b6000613f9c87828801613f1f565b9450506020613fad87828801613f1f565b9350506040613fbe87828801613f5f565b9250506060613fcf87828801613f5f565b91505092959194509250565b6000819050919050565b613fee81613fdb565b82525050565b60006020820190506140096000830184613fe5565b92915050565b600081519050919050565b600082825260208201905092915050565b60005b8381101561404957808201518184015260208101905061402e565b60008484015250505050565b6000601f19601f8301169050919050565b60006140718261400f565b61407b818561401a565b935061408b81856020860161402b565b61409481614055565b840191505092915050565b600060208201905081810360008301526140b98184614066565b905092915050565b6140ca81613fdb565b81146140d557600080fd5b50565b6000813590506140e7816140c1565b92915050565b60006020828403121561410357614102613e11565b5b6000614111848285016140d8565b91505092915050565b61412381613ef6565b82525050565b600060208201905061413e600083018461411a565b92915050565b6000806040838503121561415b5761415a613e11565b5b600061416985828601613f1f565b925050602061417a858286016140d8565b9150509250929050565b60006fffffffffffffffffffffffffffffffff82169050919050565b6141a981614184565b81146141b457600080fd5b50565b6000813590506141c6816141a0565b92915050565b6000806000606084860312156141e5576141e4613e11565b5b60006141f3868287016140d8565b935050602061420486828701613f1f565b9250506040614215868287016141b7565b9150509250925092565b60008060006060848603121561423857614237613e11565b5b600061424686828701613f1f565b935050602061425786828701613f1f565b9250506040614268868287016140d8565b9150509250925092565b6000819050919050565b61428581614272565b811461429057600080fd5b50565b6000813590506142a28161427c565b92915050565b6000602082840312156142be576142bd613e11565b5b60006142cc84828501614293565b91505092915050565b6142de81614272565b82525050565b60006020820190506142f960008301846142d5565b92915050565b61430881614184565b82525050565b600060208201905061432360008301846142ff565b92915050565b600080604083850312156143405761433f613e11565b5b600061434e85828601614293565b925050602061435f85828601613f1f565b9150509250929050565b600080fd5b600080fd5b7f4e487b7100000000000000000000000000000000000000000000000000000000600052604160045260246000fd5b6143ab82614055565b810181811067ffffffffffffffff821117156143ca576143c9614373565b5b80604052505050565b60006143dd613e07565b90506143e982826143a2565b919050565b600067ffffffffffffffff82111561440957614408614373565b5b61441282614055565b9050602081019050919050565b82818337600083830152505050565b600061444161443c846143ee565b6143d3565b90508281526020810184848401111561445d5761445c61436e565b5b61446884828561441f565b509392505050565b600082601f83011261448557614484614369565b5b813561449584826020860161442e565b91505092915050565b6000602082840312156144b4576144b3613e11565b5b600082013567ffffffffffffffff8111156144d2576144d1613e16565b5b6144de84828501614470565b91505092915050565b6000602082840312156144fd576144fc613e11565b5b600061450b84828501613f1f565b91505092915050565b6000806040838503121561452b5761452a613e11565b5b6000614539858286016140d8565b925050602061454a858286016141b7565b9150509250929050565b600060608201905061456960008301866142ff565b61457660208301856142ff565b61458360408301846142ff565b949350505050565b600061ffff82169050919050565b6145a28161458b565b81146145ad57600080fd5b50565b6000813590506145bf81614599565b92915050565b6000602082840312156145db576145da613e11565b5b60006145e9848285016145b0565b91505092915050565b6145fb81613ef6565b82525050565b61460a81613f34565b82525050565b61461981614184565b82525050565b6101008201600082015161463660008501826145f2565b50602082015161464960208501826145f2565b50604082015161465c6040850182614601565b50606082015161466f6060850182614601565b5060808201516146826080850182614610565b5060a082015161469560a0850182614610565b5060c08201516146a860c0850182614610565b5060e08201516146bb60e0850182614610565b50505050565b6000610100820190506146d7600083018461461f565b92915050565b6146e681613ea0565b81146146f157600080fd5b50565b600081359050614703816146dd565b92915050565b600080604083850312156147205761471f613e11565b5b600061472e85828601613f1f565b925050602061473f858286016146f4565b9150509250929050565b600067ffffffffffffffff82111561476457614763614373565b5b61476d82614055565b9050602081019050919050565b600061478d61478884614749565b6143d3565b9050828152602081018484840111156147a9576147a861436e565b5b6147b484828561441f565b509392505050565b600082601f8301126147d1576147d0614369565b5b81356147e184826020860161477a565b91505092915050565b6000806000806080858703121561480457614803613e11565b5b600061481287828801613f1f565b945050602061482387828801613f1f565b9350506040614834878288016140d8565b925050606085013567ffffffffffffffff81111561485557614854613e16565b5b614861878288016147bc565b91505092959194509250565b600060ff82169050919050565b6148838161486d565b811461488e57600080fd5b50565b6000813590506148a08161487a565b92915050565b6000806000806000806000806000806101408b8d0312156148ca576148c9613e11565b5b60006148d88d828e01613f1f565b9a505060206148e98d828e01613f5f565b99505060406148fa8d828e01613f5f565b985050606061490b8d828e01613f1f565b975050608061491c8d828e01613f1f565b96505060a061492d8d828e016141b7565b95505060c061493e8d828e016140d8565b94505060e061494f8d828e01614891565b9350506101006149618d828e01614293565b9250506101206149738d828e01614293565b9150509295989b9194979a5092959850565b61498e8161458b565b82525050565b60006020820190506149a96000830184614985565b92915050565b600080604083850312156149c6576149c5613e11565b5b60006149d485828601613f1f565b92505060206149e585828601613f1f565b9150509250929050565b600080600080600080600080610100898b031215614a1057614a0f613e11565b5b6000614a1e8b828c016140d8565b9850506020614a2f8b828c01613f1f565b9750506040614a408b828c01613f1f565b9650506060614a518b828c016141b7565b9550506080614a628b828c016140d8565b94505060a0614a738b828c01614891565b93505060c0614a848b828c01614293565b92505060e0614a958b828c01614293565b9150509295985092959890939650565b7f4e487b7100000000000000000000000000000000000000000000000000000000600052602260045260246000fd5b60006002820490506001821680614aec57607f821691505b602082108103614aff57614afe614aa5565b5b50919050565b7f4e487b7100000000000000000000000000000000000000000000000000000000600052601160045260246000fd5b6000614b3f82613fdb565b9150614b4a83613fdb565b9250828203905081811115614b6257614b61614b05565b5b92915050565b6000606082019050614b7d600083018661411a565b614b8a6020830185613fe5565b614b97604083018461411a565b949350505050565b6000614baa82613f34565b9150614bb583613f34565b9250828201905067ffffffffffffffff811115614bd557614bd4614b05565b5b92915050565b7f31342d64617920636f6f6c646f776e206e6f7420706173736564000000000000600082015250565b6000614c11601a8361401a565b9150614c1c82614bdb565b602082019050919050565b60006020820190508181036000830152614c4081614c04565b9050919050565b7f496e76616c696420616374697669747900000000000000000000000000000000600082015250565b6000614c7d60108361401a565b9150614c8882614c47565b602082019050919050565b60006020820190508181036000830152614cac81614c70565b9050919050565b7f4e6f2066756e647320746f206469737472696275746500000000000000000000600082015250565b6000614ce960168361401a565b9150614cf482614cb3565b602082019050919050565b60006020820190508181036000830152614d1881614cdc565b9050919050565b7f416d6f756e7420697320616c7265616479206469737472696275746564000000600082015250565b6000614d55601d8361401a565b9150614d6082614d1f565b602082019050919050565b60006020820190508181036000830152614d8481614d48565b9050919050565b7f416d6f756e7420697320616c726561647920726566756e646564000000000000600082015250565b6000614dc1601a8361401a565b9150614dcc82614d8b565b602082019050919050565b60006020820190508181036000830152614df081614db4565b9050919050565b6000614e0282614184565b9150614e0d83614184565b925082820190506fffffffffffffffffffffffffffffffff811115614e3557614e34614b05565b5b92915050565b6000604082019050614e506000830185613fe5565b614e5d60208301846142ff565b9392505050565b60008190508160005260206000209050919050565b60006020601f8301049050919050565b600082821b905092915050565b600060088302614ec67fffffffffffffffffffffffffffffffffffffffffffffffffffffffffffffffff82614e89565b614ed08683614e89565b95508019841693508086168417925050509392505050565b6000819050919050565b6000614f0d614f08614f0384613fdb565b614ee8565b613fdb565b9050919050565b6000819050919050565b614f2783614ef2565b614f3b614f3382614f14565b848454614e96565b825550505050565b600090565b614f50614f43565b614f5b818484614f1e565b505050565b5b81811015614f7f57614f74600082614f48565b600181019050614f61565b5050565b601f821115614fc457614f9581614e64565b614f9e84614e79565b81016020851015614fad578190505b614fc1614fb985614e79565b830182614f60565b50505b505050565b600082821c905092915050565b6000614fe760001984600802614fc9565b1980831691505092915050565b60006150008383614fd6565b9150826002028217905092915050565b6150198261400f565b67ffffffffffffffff81111561503257615031614373565b5b61503c8254614ad4565b615047828285614f83565b600060209050601f83116001811461507a5760008415615068578287015190505b6150728582614ff4565b8655506150da565b601f19841661508886614e64565b60005b828110156150b05784890151825560018201915060208501945060208101905061508b565b868310156150cd57848901516150c9601f891682614fd6565b8355505b6001600288020188555050505b505050505050565b7f4163746976697479206973206e6f742066696e69736865640000000000000000600082015250565b600061511860188361401a565b9150615123826150e2565b602082019050919050565b600060208201905081810360008301526151478161510b565b9050919050565b7f496e76616c696420616d6f756e74000000000000000000000000000000000000600082015250565b6000615184600e8361401a565b915061518f8261514e565b602082019050919050565b600060208201905081810360008301526151b381615177565b9050919050565b60006151c582614184565b91506151d083614184565b92508282026151de81614184565b91508082146151f0576151ef614b05565b5b5092915050565b7f4e487b7100000000000000000000000000000000000000000000000000000000600052601260045260246000fd5b600061523182614184565b915061523c83614184565b92508261524c5761524b6151f7565b5b828204905092915050565b600061526282614184565b915061526d83614184565b925082820390506fffffffffffffffffffffffffffffffff81111561529557615294614b05565b5b92915050565b60006060820190506152b06000830186613fe5565b6152bd60208301856142ff565b6152ca60408301846142ff565b949350505050565b7f496e76616c696420666565000000000000000000000000000000000000000000600082015250565b6000615308600b8361401a565b9150615313826152d2565b602082019050919050565b60006020820190508181036000830152615337816152fb565b9050919050565b600081905092915050565b6000815461535681614ad4565b615360818661533e565b9450600182166000811461537b5760018114615390576153c3565b60ff19831686528115158202860193506153c3565b61539985614e64565b60005b838110156153bb5781548189015260018201915060208101905061539c565b838801955050505b50505092915050565b60006153d78261400f565b6153e1818561533e565b93506153f181856020860161402b565b80840191505092915050565b7f2f00000000000000000000000000000000000000000000000000000000000000815250565b600061542f8286615349565b915061543b82856153cc565b9150615446826153fd565b60018201915061545682846153cc565b9150819050949350505050565b600061547e61547961547484614184565b614ee8565b613fdb565b9050919050565b61548e81615463565b82525050565b61549d8161486d565b82525050565b600060e0820190506154b8600083018a61411a565b6154c5602083018961411a565b6154d26040830188615485565b6154df6060830187613fe5565b6154ec6080830186615494565b6154f960a08301856142d5565b61550660c08301846142d5565b98975050505050505050565b7f496e76616c6964206f776e657200000000000000000000000000000000000000600082015250565b6000615548600d8361401a565b915061555382615512565b602082019050919050565b600060208201905081810360008301526155778161553b565b9050919050565b7f496e76616c696420746f6b656e00000000000000000000000000000000000000600082015250565b60006155b4600d8361401a565b91506155bf8261557e565b602082019050919050565b600060208201905081810360008301526155e3816155a7565b9050919050565b7f53746172742074696d65206d757374206265206265666f726520656e6420746960008201527f6d65000000000000000000000000000000000000000000000000000000000000602082015250565b600061564660228361401a565b9150615651826155ea565b604082019050919050565b6000602082019050818103600083015261567581615639565b9050919050565b600061568782613fdb565b91507fffffffffffffffffffffffffffffffffffffffffffffffffffffffffffffffff82036156b9576156b8614b05565b5b600182019050919050565b6156cd81613f34565b82525050565b60006080820190506156e8600083018761411a565b6156f56020830186613fe5565b61570260408301856156c4565b61570f60608301846156c4565b95945050505050565b7f41637469766974792069732066696e6973686564000000000000000000000000600082015250565b600061574e60148361401a565b915061575982615718565b602082019050919050565b6000602082019050818103600083015261577d81615741565b9050919050565b6000604082019050615799600083018561411a565b6157a66020830184613fe5565b9392505050565b600081519050919050565b600082825260208201905092915050565b60006157d4826157ad565b6157de81856157b8565b93506157ee81856020860161402b565b6157f781614055565b840191505092915050565b6000608082019050615817600083018761411a565b615824602083018661411a565b6158316040830185613fe5565b818103606083015261584381846157c9565b905095945050505050565b60008151905061585d81613e47565b92915050565b60006020828403121561587957615878613e11565b5b60006158878482850161584e565b91505092915050565b60006060820190506158a5600083018661411a565b6158b2602083018561411a565b6158bf6040830184613fe5565b949350505050565b60006040820190506158dc600083018561411a565b6158e960208301846142d5565b9392505050565b60006158fb82613fdb565b915061590683613fdb565b925082820261591481613fdb565b9150828204841483151761592b5761592a614b05565b5b5092915050565b600061593d82613fdb565b915061594883613fdb565b92508282019050808211156159605761595f614b05565b5b92915050565b7f4e487b7100000000000000000000000000000000000000000000000000000000600052603260045260246000fd5b60006159a082613fdb565b9150600082036159b3576159b2614b05565b5b600182039050919050565b60006040820190506159d36000830185613fe5565b6159e06020830184613fe5565b939250505056fea26469706673582212200763bef2d916e2f68258c5f5060927d622a2eb91e7ea92957ce400cfd54e9d7c64736f6c634300081b0033",
  "linkReferences": {},
  "deployedLinkReferences": {}
}