{
  "_format": "hh-sol-artifact-1",
  "contractName": "NonfungibleActivityManager",
  "sourceName": "contracts/NonfungibleActivityManager.sol",
  "abi": [
    {
      "inputs": [
        {
          "internalType": "address",
          "name": "_treasury",
          "type": "address"
        },
        {
          "internalType": "address",
          "name": "_admin",
          "type": "address"
        },
        {
          "internalType": "address",
          "name": "_airdropManager",
          "type": "address"
        },
        {
          "internalType": "string",
          "name": "baseURI_",
          "type": "string"
        }
      ],
      "stateMutability": "nonpayable",
      "type": "constructor"
    },
    {
      "inputs": [],
      "name": "AccessControlBadConfirmation",
      "type": "error"
    },
    {
      "inputs": [
        {
          "internalType": "address",
          "name": "account",
          "type": "address"
        },
        {
          "internalType": "bytes32",
          "name": "neededRole",
          "type": "bytes32"
        }
      ],
      "name": "AccessControlUnauthorizedAccount",
      "type": "error"
    },
    {
      "inputs": [
        {
          "internalType": "address",
          "name": "sender",
          "type": "address"
        },
        {
          "internalType": "uint256",
          "name": "tokenId",
          "type": "uint256"
        },
        {
          "internalType": "address",
          "name": "owner",
          "type": "address"
        }
      ],
      "name": "ERC721IncorrectOwner",
      "type": "error"
    },
    {
      "inputs": [
        {
          "internalType": "address",
          "name": "operator",
          "type": "address"
        },
        {
          "internalType": "uint256",
          "name": "tokenId",
          "type": "uint256"
        }
      ],
      "name": "ERC721InsufficientApproval",
      "type": "error"
    },
    {
      "inputs": [
        {
          "internalType": "address",
          "name": "approver",
          "type": "address"
        }
      ],
      "name": "ERC721InvalidApprover",
      "type": "error"
    },
    {
      "inputs": [
        {
          "internalType": "address",
          "name": "operator",
          "type": "address"
        }
      ],
      "name": "ERC721InvalidOperator",
      "type": "error"
    },
    {
      "inputs": [
        {
          "internalType": "address",
          "name": "owner",
          "type": "address"
        }
      ],
      "name": "ERC721InvalidOwner",
      "type": "error"
    },
    {
      "inputs": [
        {
          "internalType": "address",
          "name": "receiver",
          "type": "address"
        }
      ],
      "name": "ERC721InvalidReceiver",
      "type": "error"
    },
    {
      "inputs": [
        {
          "internalType": "address",
          "name": "sender",
          "type": "address"
        }
      ],
      "name": "ERC721InvalidSender",
      "type": "error"
    },
    {
      "inputs": [
        {
          "internalType": "uint256",
          "name": "tokenId",
          "type": "uint256"
        }
      ],
      "name": "ERC721NonexistentToken",
      "type": "error"
    },
    {
      "inputs": [],
      "name": "EnforcedPause",
      "type": "error"
    },
    {
      "inputs": [],
      "name": "ExpectedPause",
      "type": "error"
    },
    {
      "inputs": [
        {
          "internalType": "address",
          "name": "token",
          "type": "address"
        }
      ],
      "name": "SafeERC20FailedOperation",
      "type": "error"
    },
    {
      "anonymous": false,
      "inputs": [
        {
          "indexed": true,
          "internalType": "address",
          "name": "owner",
          "type": "address"
        },
        {
          "indexed": true,
          "internalType": "address",
          "name": "approved",
          "type": "address"
        },
        {
          "indexed": true,
          "internalType": "uint256",
          "name": "tokenId",
          "type": "uint256"
        }
      ],
      "name": "Approval",
      "type": "event"
    },
    {
      "anonymous": false,
      "inputs": [
        {
          "indexed": true,
          "internalType": "address",
          "name": "owner",
          "type": "address"
        },
        {
          "indexed": true,
          "internalType": "address",
          "name": "operator",
          "type": "address"
        },
        {
          "indexed": false,
          "internalType": "bool",
          "name": "approved",
          "type": "bool"
        }
      ],
      "name": "ApprovalForAll",
      "type": "event"
    },
    {
      "anonymous": false,
      "inputs": [
        {
          "indexed": true,
          "internalType": "uint256",
          "name": "tokenId",
          "type": "uint256"
        },
        {
          "indexed": true,
          "internalType": "address",
          "name": "owner",
          "type": "address"
        },
        {
          "indexed": false,
          "internalType": "address",
          "name": "token",
          "type": "address"
        },
        {
          "indexed": false,
          "internalType": "uint64",
          "name": "startTime",
          "type": "uint64"
        },
        {
          "indexed": false,
          "internalType": "uint64",
          "name": "endTime",
          "type": "uint64"
        }
      ],
      "name": "Create",
      "type": "event"
    },
    {
      "anonymous": false,
      "inputs": [
        {
          "indexed": true,
          "internalType": "uint256",
          "name": "tokenId",
          "type": "uint256"
        },
        {
          "indexed": false,
          "internalType": "uint128",
          "name": "amount",
          "type": "uint128"
        },
        {
          "indexed": false,
          "internalType": "uint128",
          "name": "totalAmount",
          "type": "uint128"
        }
      ],
      "name": "Deposit",
      "type": "event"
    },
    {
      "anonymous": false,
      "inputs": [
        {
          "indexed": true,
          "internalType": "uint256",
          "name": "tokenId",
          "type": "uint256"
        },
        {
          "indexed": true,
          "internalType": "address",
          "name": "to",
          "type": "address"
        },
        {
          "indexed": false,
          "internalType": "uint128",
          "name": "amount",
          "type": "uint128"
        },
        {
          "indexed": false,
          "internalType": "uint128",
          "name": "feeAmount",
          "type": "uint128"
        }
      ],
      "name": "Distribute",
      "type": "event"
    },
    {
      "anonymous": false,
      "inputs": [
        {
          "indexed": false,
          "internalType": "address",
          "name": "account",
          "type": "address"
        }
      ],
      "name": "Paused",
      "type": "event"
    },
    {
      "anonymous": false,
      "inputs": [
        {
          "indexed": true,
          "internalType": "uint256",
          "name": "tokenId",
          "type": "uint256"
        },
        {
          "indexed": true,
          "internalType": "address",
          "name": "to",
          "type": "address"
        },
        {
          "indexed": false,
          "internalType": "uint128",
          "name": "amount",
          "type": "uint128"
        }
      ],
      "name": "Refund",
      "type": "event"
    },
    {
      "anonymous": false,
      "inputs": [
        {
          "indexed": true,
          "internalType": "bytes32",
          "name": "role",
          "type": "bytes32"
        },
        {
          "indexed": true,
          "internalType": "bytes32",
          "name": "previousAdminRole",
          "type": "bytes32"
        },
        {
          "indexed": true,
          "internalType": "bytes32",
          "name": "newAdminRole",
          "type": "bytes32"
        }
      ],
      "name": "RoleAdminChanged",
      "type": "event"
    },
    {
      "anonymous": false,
      "inputs": [
        {
          "indexed": true,
          "internalType": "bytes32",
          "name": "role",
          "type": "bytes32"
        },
        {
          "indexed": true,
          "internalType": "address",
          "name": "account",
          "type": "address"
        },
        {
          "indexed": true,
          "internalType": "address",
          "name": "sender",
          "type": "address"
        }
      ],
      "name": "RoleGranted",
      "type": "event"
    },
    {
      "anonymous": false,
      "inputs": [
        {
          "indexed": true,
          "internalType": "bytes32",
          "name": "role",
          "type": "bytes32"
        },
        {
          "indexed": true,
          "internalType": "address",
          "name": "account",
          "type": "address"
        },
        {
          "indexed": true,
          "internalType": "address",
          "name": "sender",
          "type": "address"
        }
      ],
      "name": "RoleRevoked",
      "type": "event"
    },
    {
      "anonymous": false,
      "inputs": [
        {
          "indexed": true,
          "internalType": "address",
          "name": "from",
          "type": "address"
        },
        {
          "indexed": true,
          "internalType": "address",
          "name": "to",
          "type": "address"
        },
        {
          "indexed": true,
          "internalType": "uint256",
          "name": "tokenId",
          "type": "uint256"
        }
      ],
      "name": "Transfer",
      "type": "event"
    },
    {
      "anonymous": false,
      "inputs": [
        {
          "indexed": false,
          "internalType": "address",
          "name": "account",
          "type": "address"
        }
      ],
      "name": "Unpaused",
      "type": "event"
    },
    {
      "inputs": [],
      "name": "ADMIN_ROLE",
      "outputs": [
        {
          "internalType": "bytes32",
          "name": "",
          "type": "bytes32"
        }
      ],
      "stateMutability": "view",
      "type": "function"
    },
    {
      "inputs": [],
      "name": "DEFAULT_ADMIN_ROLE",
      "outputs": [
        {
          "internalType": "bytes32",
          "name": "",
          "type": "bytes32"
        }
      ],
      "stateMutability": "view",
      "type": "function"
    },
    {
      "inputs": [],
      "name": "airdropManager",
      "outputs": [
        {
          "internalType": "address",
          "name": "",
          "type": "address"
        }
      ],
      "stateMutability": "view",
      "type": "function"
    },
    {
      "inputs": [
        {
          "internalType": "address",
          "name": "to",
          "type": "address"
        },
        {
          "internalType": "uint256",
          "name": "tokenId",
          "type": "uint256"
        }
      ],
      "name": "approve",
      "outputs": [],
      "stateMutability": "nonpayable",
      "type": "function"
    },
    {
      "inputs": [
        {
          "internalType": "address",
          "name": "owner",
          "type": "address"
        }
      ],
      "name": "balanceOf",
      "outputs": [
        {
          "internalType": "uint256",
          "name": "",
          "type": "uint256"
        }
      ],
      "stateMutability": "view",
      "type": "function"
    },
    {
      "inputs": [
        {
          "internalType": "address",
          "name": "owner",
          "type": "address"
        },
        {
          "internalType": "address",
          "name": "token",
          "type": "address"
        },
        {
          "internalType": "uint64",
          "name": "startTime",
          "type": "uint64"
        },
        {
          "internalType": "uint64",
          "name": "endTime",
          "type": "uint64"
        }
      ],
      "name": "create",
      "outputs": [
        {
          "internalType": "uint256",
          "name": "tokenId",
          "type": "uint256"
        }
      ],
      "stateMutability": "nonpayable",
      "type": "function"
    },
    {
      "inputs": [
        {
          "internalType": "address",
          "name": "owner",
          "type": "address"
        },
        {
          "internalType": "uint64",
          "name": "startTime",
          "type": "uint64"
        },
        {
          "internalType": "uint64",
          "name": "endTime",
          "type": "uint64"
        },
        {
          "internalType": "address",
          "name": "token",
          "type": "address"
        },
        {
          "internalType": "uint128",
          "name": "amount",
          "type": "uint128"
        }
      ],
      "name": "createAndDeposit",
      "outputs": [
        {
          "internalType": "uint256",
          "name": "tokenId",
          "type": "uint256"
        }
      ],
      "stateMutability": "nonpayable",
      "type": "function"
    },
    {
      "inputs": [
        {
          "internalType": "address",
          "name": "owner",
          "type": "address"
        },
        {
          "internalType": "uint64",
          "name": "startTime",
          "type": "uint64"
        },
        {
          "internalType": "uint64",
          "name": "endTime",
          "type": "uint64"
        },
        {
          "internalType": "address",
          "name": "from",
          "type": "address"
        },
        {
          "internalType": "address",
          "name": "token",
          "type": "address"
        },
        {
          "internalType": "uint128",
          "name": "amount",
          "type": "uint128"
        },
        {
          "internalType": "uint256",
          "name": "deadline",
          "type": "uint256"
        },
        {
          "internalType": "uint8",
          "name": "v",
          "type": "uint8"
        },
        {
          "internalType": "bytes32",
          "name": "r",
          "type": "bytes32"
        },
        {
          "internalType": "bytes32",
          "name": "s",
          "type": "bytes32"
        }
      ],
      "name": "createAndDepositWithPermit",
      "outputs": [
        {
          "internalType": "uint256",
          "name": "tokenId",
          "type": "uint256"
        }
      ],
      "stateMutability": "nonpayable",
      "type": "function"
    },
    {
      "inputs": [
        {
          "internalType": "uint256",
          "name": "tokenId",
          "type": "uint256"
        },
        {
          "internalType": "address",
          "name": "token",
          "type": "address"
        },
        {
          "internalType": "uint128",
          "name": "amount",
          "type": "uint128"
        }
      ],
      "name": "deposit",
      "outputs": [],
      "stateMutability": "nonpayable",
      "type": "function"
    },
    {
      "inputs": [
        {
          "internalType": "uint256",
          "name": "tokenId",
          "type": "uint256"
        },
        {
          "internalType": "address",
          "name": "token",
          "type": "address"
        },
        {
          "internalType": "address",
          "name": "from",
          "type": "address"
        },
        {
          "internalType": "uint128",
          "name": "amount",
          "type": "uint128"
        },
        {
          "internalType": "uint256",
          "name": "deadline",
          "type": "uint256"
        },
        {
          "internalType": "uint8",
          "name": "v",
          "type": "uint8"
        },
        {
          "internalType": "bytes32",
          "name": "r",
          "type": "bytes32"
        },
        {
          "internalType": "bytes32",
          "name": "s",
          "type": "bytes32"
        }
      ],
      "name": "depositWithPermit",
      "outputs": [],
      "stateMutability": "nonpayable",
      "type": "function"
    },
    {
      "inputs": [
        {
          "internalType": "uint256",
          "name": "tokenId",
          "type": "uint256"
        },
        {
          "internalType": "uint128",
          "name": "amount",
          "type": "uint128"
        }
      ],
      "name": "distribute",
      "outputs": [],
      "stateMutability": "nonpayable",
      "type": "function"
    },
    {
      "inputs": [],
      "name": "fee",
      "outputs": [
        {
          "internalType": "uint16",
          "name": "",
          "type": "uint16"
        }
      ],
      "stateMutability": "view",
      "type": "function"
    },
    {
      "inputs": [
        {
          "internalType": "uint256",
          "name": "tokenId",
          "type": "uint256"
        }
      ],
      "name": "getActivity",
      "outputs": [
        {
          "components": [
            {
              "internalType": "address",
              "name": "owner",
              "type": "address"
            },
            {
              "internalType": "address",
              "name": "token",
              "type": "address"
            },
            {
              "internalType": "uint64",
              "name": "startTime",
              "type": "uint64"
            },
            {
              "internalType": "uint64",
              "name": "endTime",
              "type": "uint64"
            },
            {
              "internalType": "uint128",
              "name": "totalAmount",
              "type": "uint128"
            },
            {
              "internalType": "enum NonfungibleActivityManager.ActivityStatus",
              "name": "status",
              "type": "uint8"
            }
          ],
          "internalType": "struct NonfungibleActivityManager.Activity",
          "name": "activity",
          "type": "tuple"
        }
      ],
      "stateMutability": "view",
      "type": "function"
    },
    {
      "inputs": [
        {
          "internalType": "uint256",
          "name": "tokenId",
          "type": "uint256"
        }
      ],
      "name": "getApproved",
      "outputs": [
        {
          "internalType": "address",
          "name": "",
          "type": "address"
        }
      ],
      "stateMutability": "view",
      "type": "function"
    },
    {
      "inputs": [
        {
          "internalType": "bytes32",
          "name": "role",
          "type": "bytes32"
        }
      ],
      "name": "getRoleAdmin",
      "outputs": [
        {
          "internalType": "bytes32",
          "name": "",
          "type": "bytes32"
        }
      ],
      "stateMutability": "view",
      "type": "function"
    },
    {
      "inputs": [
        {
          "internalType": "bytes32",
          "name": "role",
          "type": "bytes32"
        },
        {
          "internalType": "address",
          "name": "account",
          "type": "address"
        }
      ],
      "name": "grantRole",
      "outputs": [],
      "stateMutability": "nonpayable",
      "type": "function"
    },
    {
      "inputs": [
        {
          "internalType": "bytes32",
          "name": "role",
          "type": "bytes32"
        },
        {
          "internalType": "address",
          "name": "account",
          "type": "address"
        }
      ],
      "name": "hasRole",
      "outputs": [
        {
          "internalType": "bool",
          "name": "",
          "type": "bool"
        }
      ],
      "stateMutability": "view",
      "type": "function"
    },
    {
      "inputs": [
        {
          "internalType": "address",
          "name": "owner",
          "type": "address"
        },
        {
          "internalType": "address",
          "name": "operator",
          "type": "address"
        }
      ],
      "name": "isApprovedForAll",
      "outputs": [
        {
          "internalType": "bool",
          "name": "",
          "type": "bool"
        }
      ],
      "stateMutability": "view",
      "type": "function"
    },
    {
      "inputs": [
        {
          "internalType": "uint256",
          "name": "tokenId",
          "type": "uint256"
        }
      ],
      "name": "isRefundable",
      "outputs": [
        {
          "internalType": "bool",
          "name": "",
          "type": "bool"
        }
      ],
      "stateMutability": "view",
      "type": "function"
    },
    {
      "inputs": [],
      "name": "name",
      "outputs": [
        {
          "internalType": "string",
          "name": "",
          "type": "string"
        }
      ],
      "stateMutability": "view",
      "type": "function"
    },
    {
      "inputs": [
        {
          "internalType": "uint256",
          "name": "tokenId",
          "type": "uint256"
        }
      ],
      "name": "ownerOf",
      "outputs": [
        {
          "internalType": "address",
          "name": "",
          "type": "address"
        }
      ],
      "stateMutability": "view",
      "type": "function"
    },
    {
      "inputs": [],
      "name": "pause",
      "outputs": [],
      "stateMutability": "nonpayable",
      "type": "function"
    },
    {
      "inputs": [],
      "name": "paused",
      "outputs": [
        {
          "internalType": "bool",
          "name": "",
          "type": "bool"
        }
      ],
      "stateMutability": "view",
      "type": "function"
    },
    {
      "inputs": [
        {
          "internalType": "uint256",
          "name": "tokenId",
          "type": "uint256"
        }
      ],
      "name": "refund",
      "outputs": [],
      "stateMutability": "nonpayable",
      "type": "function"
    },
    {
      "inputs": [
        {
          "internalType": "bytes32",
          "name": "role",
          "type": "bytes32"
        },
        {
          "internalType": "address",
          "name": "callerConfirmation",
          "type": "address"
        }
      ],
      "name": "renounceRole",
      "outputs": [],
      "stateMutability": "nonpayable",
      "type": "function"
    },
    {
      "inputs": [
        {
          "internalType": "bytes32",
          "name": "role",
          "type": "bytes32"
        },
        {
          "internalType": "address",
          "name": "account",
          "type": "address"
        }
      ],
      "name": "revokeRole",
      "outputs": [],
      "stateMutability": "nonpayable",
      "type": "function"
    },
    {
      "inputs": [
        {
          "internalType": "address",
          "name": "from",
          "type": "address"
        },
        {
          "internalType": "address",
          "name": "to",
          "type": "address"
        },
        {
          "internalType": "uint256",
          "name": "tokenId",
          "type": "uint256"
        }
      ],
      "name": "safeTransferFrom",
      "outputs": [],
      "stateMutability": "nonpayable",
      "type": "function"
    },
    {
      "inputs": [
        {
          "internalType": "address",
          "name": "from",
          "type": "address"
        },
        {
          "internalType": "address",
          "name": "to",
          "type": "address"
        },
        {
          "internalType": "uint256",
          "name": "tokenId",
          "type": "uint256"
        },
        {
          "internalType": "bytes",
          "name": "data",
          "type": "bytes"
        }
      ],
      "name": "safeTransferFrom",
      "outputs": [],
      "stateMutability": "nonpayable",
      "type": "function"
    },
    {
      "inputs": [
        {
          "internalType": "address",
          "name": "_airdropManager",
          "type": "address"
        }
      ],
      "name": "setAirdropManager",
      "outputs": [],
      "stateMutability": "nonpayable",
      "type": "function"
    },
    {
      "inputs": [
        {
          "internalType": "address",
          "name": "operator",
          "type": "address"
        },
        {
          "internalType": "bool",
          "name": "approved",
          "type": "bool"
        }
      ],
      "name": "setApprovalForAll",
      "outputs": [],
      "stateMutability": "nonpayable",
      "type": "function"
    },
    {
      "inputs": [
        {
          "internalType": "string",
          "name": "baseURI_",
          "type": "string"
        }
      ],
      "name": "setBaseURI",
      "outputs": [],
      "stateMutability": "nonpayable",
      "type": "function"
    },
    {
      "inputs": [
        {
          "internalType": "uint16",
          "name": "_fee",
          "type": "uint16"
        }
      ],
      "name": "setFee",
      "outputs": [],
      "stateMutability": "nonpayable",
      "type": "function"
    },
    {
      "inputs": [
        {
          "internalType": "bytes4",
          "name": "interfaceId",
          "type": "bytes4"
        }
      ],
      "name": "supportsInterface",
      "outputs": [
        {
          "internalType": "bool",
          "name": "",
          "type": "bool"
        }
      ],
      "stateMutability": "view",
      "type": "function"
    },
    {
      "inputs": [],
      "name": "symbol",
      "outputs": [
        {
          "internalType": "string",
          "name": "",
          "type": "string"
        }
      ],
      "stateMutability": "view",
      "type": "function"
    },
    {
      "inputs": [
        {
          "internalType": "uint256",
          "name": "tokenId",
          "type": "uint256"
        }
      ],
      "name": "tokenURI",
      "outputs": [
        {
          "internalType": "string",
          "name": "",
          "type": "string"
        }
      ],
      "stateMutability": "view",
      "type": "function"
    },
    {
      "inputs": [],
      "name": "totalSupply",
      "outputs": [
        {
          "internalType": "uint256",
          "name": "",
          "type": "uint256"
        }
      ],
      "stateMutability": "view",
      "type": "function"
    },
    {
      "inputs": [
        {
          "internalType": "address",
          "name": "from",
          "type": "address"
        },
        {
          "internalType": "address",
          "name": "to",
          "type": "address"
        },
        {
          "internalType": "uint256",
          "name": "tokenId",
          "type": "uint256"
        }
      ],
      "name": "transferFrom",
      "outputs": [],
      "stateMutability": "nonpayable",
      "type": "function"
    },
    {
      "inputs": [],
      "name": "treasury",
      "outputs": [
        {
          "internalType": "address",
          "name": "",
          "type": "address"
        }
      ],
      "stateMutability": "view",
      "type": "function"
    },
    {
      "inputs": [],
      "name": "unpause",
      "outputs": [],
      "stateMutability": "nonpayable",
      "type": "function"
    }
  ],
  "bytecode": "0x60a06040526001600955601e600a60006101000a81548161ffff021916908361ffff16021790555034801561003357600080fd5b50604051615b97380380615b9783398181016040528101906100559190610515565b6040518060400160405280600881526020017f41637469766974790000000000000000000000000000000000000000000000008152506040518060400160405280600381526020017f414354000000000000000000000000000000000000000000000000000000000081525081600090816100d091906107b9565b5080600190816100e091906107b9565b5050506000600660006101000a81548160ff0219169083151502179055508373ffffffffffffffffffffffffffffffffffffffff1660808173ffffffffffffffffffffffffffffffffffffffff168152505081600a60026101000a81548173ffffffffffffffffffffffffffffffffffffffff021916908373ffffffffffffffffffffffffffffffffffffffff160217905550806008908161018291906107b9565b506101966000801b846101d160201b60201c565b506101c77fa49807205ce4d355092ef5a8a18f56e8913cf4a201fbe287825b095693c21775846101d160201b60201c565b505050505061088b565b60006101e383836102cf60201b60201c565b6102c45760016007600085815260200190815260200160002060000160008473ffffffffffffffffffffffffffffffffffffffff1673ffffffffffffffffffffffffffffffffffffffff16815260200190815260200160002060006101000a81548160ff02191690831515021790555061026161033a60201b60201c565b73ffffffffffffffffffffffffffffffffffffffff168273ffffffffffffffffffffffffffffffffffffffff16847f2f8788117e7eff1d82e926ec794901d17c78024a50270940304540a733656f0d60405160405180910390a4600190506102c9565b600090505b92915050565b60006007600084815260200190815260200160002060000160008373ffffffffffffffffffffffffffffffffffffffff1673ffffffffffffffffffffffffffffffffffffffff16815260200190815260200160002060009054906101000a900460ff16905092915050565b600033905090565b6000604051905090565b600080fd5b600080fd5b600073ffffffffffffffffffffffffffffffffffffffff82169050919050565b600061038182610356565b9050919050565b61039181610376565b811461039c57600080fd5b50565b6000815190506103ae81610388565b92915050565b600080fd5b600080fd5b6000601f19601f8301169050919050565b7f4e487b7100000000000000000000000000000000000000000000000000000000600052604160045260246000fd5b610407826103be565b810181811067ffffffffffffffff82111715610426576104256103cf565b5b80604052505050565b6000610439610342565b905061044582826103fe565b919050565b600067ffffffffffffffff821115610465576104646103cf565b5b61046e826103be565b9050602081019050919050565b60005b8381101561049957808201518184015260208101905061047e565b60008484015250505050565b60006104b86104b38461044a565b61042f565b9050828152602081018484840111156104d4576104d36103b9565b5b6104df84828561047b565b509392505050565b600082601f8301126104fc576104fb6103b4565b5b815161050c8482602086016104a5565b91505092915050565b6000806000806080858703121561052f5761052e61034c565b5b600061053d8782880161039f565b945050602061054e8782880161039f565b935050604061055f8782880161039f565b925050606085015167ffffffffffffffff8111156105805761057f610351565b5b61058c878288016104e7565b91505092959194509250565b600081519050919050565b7f4e487b7100000000000000000000000000000000000000000000000000000000600052602260045260246000fd5b600060028204905060018216806105ea57607f821691505b6020821081036105fd576105fc6105a3565b5b50919050565b60008190508160005260206000209050919050565b60006020601f8301049050919050565b600082821b905092915050565b6000600883026106657fffffffffffffffffffffffffffffffffffffffffffffffffffffffffffffffff82610628565b61066f8683610628565b95508019841693508086168417925050509392505050565b6000819050919050565b6000819050919050565b60006106b66106b16106ac84610687565b610691565b610687565b9050919050565b6000819050919050565b6106d08361069b565b6106e46106dc826106bd565b848454610635565b825550505050565b600090565b6106f96106ec565b6107048184846106c7565b505050565b5b818110156107285761071d6000826106f1565b60018101905061070a565b5050565b601f82111561076d5761073e81610603565b61074784610618565b81016020851015610756578190505b61076a61076285610618565b830182610709565b50505b505050565b600082821c905092915050565b600061079060001984600802610772565b1980831691505092915050565b60006107a9838361077f565b9150826002028217905092915050565b6107c282610598565b67ffffffffffffffff8111156107db576107da6103cf565b5b6107e582546105d2565b6107f082828561072c565b600060209050601f8311600181146108235760008415610811578287015190505b61081b858261079d565b865550610883565b601f19841661083186610603565b60005b8281101561085957848901518255600182019150602085019450602081019050610834565b868310156108765784890151610872601f89168261077f565b8355505b6001600288020188555050505b505050505050565b6080516152ea6108ad60003960008181610da801526110bb01526152ea6000f3fe608060405234801561001057600080fd5b506004361061023d5760003560e01c8063661c27a81161013b578063a22cb465116100b8578063d0ba5cca1161007c578063d0ba5cca146106c2578063d547741f146106f2578063ddca3f431461070e578063e985e9c51461072c578063ef84b2651461075c5761023d565b8063a22cb4651461060e578063b88d4fde1461062a578063bec1de4814610646578063c87b56dd14610662578063cce6ef44146106925761023d565b80638e005553116100ff5780638e0055531461055657806391d1485414610572578063922635d8146105a257806395d89b41146105d2578063a217fddf146105f05761023d565b8063661c27a8146104c457806370a08231146104e257806375b238fc146105125780638456cb59146105305780638b49ecf91461053a5761023d565b8063278ecde1116101c957806342842e0e1161018d57806342842e0e1461042057806355f804b31461043c5780635c975abb1461045857806361d027b3146104765780636352211e146104945761023d565b8063278ecde1146103925780632b72c4e9146103ae5780632f2ff15d146103de57806336568abe146103fa5780633f4ba83a146104165761023d565b8063095ea7b311610210578063095ea7b3146102f057806314e7cc761461030c57806318160ddd1461032857806323b872dd14610346578063248a9ca3146103625761023d565b806301ffc9a71461024257806303fcaf831461027257806306fdde03146102a2578063081812fc146102c0575b600080fd5b61025c6004803603810190610257919061382b565b610778565b6040516102699190613873565b60405180910390f35b61028c6004803603810190610287919061392c565b61078a565b60405161029991906139ac565b60405180910390f35b6102aa6107aa565b6040516102b79190613a57565b60405180910390f35b6102da60048036038101906102d59190613aa5565b61083c565b6040516102e79190613ae1565b60405180910390f35b61030a60048036038101906103059190613afc565b610858565b005b61032660048036038101906103219190613b84565b61086e565b005b61033061088e565b60405161033d91906139ac565b60405180910390f35b610360600480360381019061035b9190613bd7565b6108a4565b005b61037c60048036038101906103779190613c60565b6109a6565b6040516103899190613c9c565b60405180910390f35b6103ac60048036038101906103a79190613aa5565b6109c6565b005b6103c860048036038101906103c39190613cb7565b610c2b565b6040516103d591906139ac565b60405180910390f35b6103f860048036038101906103f39190613d32565b610c5f565b005b610414600480360381019061040f9190613d32565b610c81565b005b61041e610cfc565b005b61043a60048036038101906104359190613bd7565b610d31565b005b61045660048036038101906104519190613ea7565b610d51565b005b610460610d8f565b60405161046d9190613873565b60405180910390f35b61047e610da6565b60405161048b9190613ae1565b60405180910390f35b6104ae60048036038101906104a99190613aa5565b610dca565b6040516104bb9190613ae1565b60405180910390f35b6104cc610ddc565b6040516104d99190613ae1565b60405180910390f35b6104fc60048036038101906104f79190613ef0565b610e02565b60405161050991906139ac565b60405180910390f35b61051a610ebc565b6040516105279190613c9c565b60405180910390f35b610538610ee0565b005b610554600480360381019061054f9190613f1d565b610f15565b005b610570600480360381019061056b9190613f97565b611397565b005b61058c60048036038101906105879190613d32565b61140e565b6040516105999190613873565b60405180910390f35b6105bc60048036038101906105b79190613aa5565b611479565b6040516105c991906140e3565b60405180910390f35b6105da6116ae565b6040516105e79190613a57565b60405180910390f35b6105f8611740565b6040516106059190613c9c565b60405180910390f35b6106286004803603810190610623919061412a565b611747565b005b610644600480360381019061063f919061420b565b61175d565b005b610660600480360381019061065b9190613ef0565b611782565b005b61067c60048036038101906106779190613aa5565b6117d4565b6040516106899190613a57565b60405180910390f35b6106ac60048036038101906106a79190613aa5565b61183e565b6040516106b99190613873565b60405180910390f35b6106dc60048036038101906106d791906142c7565b611a73565b6040516106e991906139ac565b60405180910390f35b61070c60048036038101906107079190613d32565b611aa9565b005b610716611acb565b60405161072391906143b5565b60405180910390f35b610746600480360381019061074191906143d0565b611adf565b6040516107539190613873565b60405180910390f35b61077660048036038101906107719190614410565b611b73565b005b600061078382611b95565b9050919050565b6000610794611c0f565b6107a085858585611c50565b9050949350505050565b6060600080546107b9906144f5565b80601f01602080910402602001604051908101604052809291908181526020018280546107e5906144f5565b80156108325780601f1061080757610100808354040283529160200191610832565b820191906000526020600020905b81548152906001019060200180831161081557829003601f168201915b5050505050905090565b600061084782612009565b5061085182612091565b9050919050565b61086a82826108656120ce565b6120d6565b5050565b610876611c0f565b610889836108826120ce565b84846120e8565b505050565b6000600160095461089f9190614555565b905090565b600073ffffffffffffffffffffffffffffffffffffffff168273ffffffffffffffffffffffffffffffffffffffff16036109165760006040517f64a0ae9200000000000000000000000000000000000000000000000000000000815260040161090d9190613ae1565b60405180910390fd5b600061092a83836109256120ce565b612345565b90508373ffffffffffffffffffffffffffffffffffffffff168173ffffffffffffffffffffffffffffffffffffffff16146109a0578382826040517f64283d7b00000000000000000000000000000000000000000000000000000000815260040161099793929190614589565b60405180910390fd5b50505050565b600060076000838152602001908152602001600020600101549050919050565b6109ce611c0f565b60006109d982612363565b905060008160020160089054906101000a90046fffffffffffffffffffffffffffffffff166fffffffffffffffffffffffffffffffff1611610a50576040517f08c379a0000000000000000000000000000000000000000000000000000000008152600401610a479061460c565b60405180910390fd5b621275008160020160009054906101000a900467ffffffffffffffff16610a77919061462c565b67ffffffffffffffff164211610ac2576040517f08c379a0000000000000000000000000000000000000000000000000000000008152600401610ab9906146b4565b60405180910390fd5b60028160020160186101000a81548160ff02191690836002811115610aea57610ae9613ff1565b5b0217905550610b948160000160009054906101000a900473ffffffffffffffffffffffffffffffffffffffff168260020160089054906101000a90046fffffffffffffffffffffffffffffffff166fffffffffffffffffffffffffffffffff168360010160009054906101000a900473ffffffffffffffffffffffffffffffffffffffff1673ffffffffffffffffffffffffffffffffffffffff166123f79092919063ffffffff16565b8060000160009054906101000a900473ffffffffffffffffffffffffffffffffffffffff1673ffffffffffffffffffffffffffffffffffffffff16827f75ad57570b4e42e885597e4903a4316971a17f7d9eccf0097d43277dd4b11ab18360020160089054906101000a90046fffffffffffffffffffffffffffffffff16604051610c1f91906146e3565b60405180910390a35050565b6000610c35611c0f565b610c4186848787611c50565b9050610c5681610c4f6120ce565b85856120e8565b95945050505050565b610c68826109a6565b610c7181612476565b610c7b838361248a565b50505050565b610c896120ce565b73ffffffffffffffffffffffffffffffffffffffff168173ffffffffffffffffffffffffffffffffffffffff1614610ced576040517f6697b23200000000000000000000000000000000000000000000000000000000815260040160405180910390fd5b610cf7828261257c565b505050565b7fa49807205ce4d355092ef5a8a18f56e8913cf4a201fbe287825b095693c21775610d2681612476565b610d2e61266f565b50565b610d4c8383836040518060200160405280600081525061175d565b505050565b7fa49807205ce4d355092ef5a8a18f56e8913cf4a201fbe287825b095693c21775610d7b81612476565b8160089081610d8a91906148aa565b505050565b6000600660009054906101000a900460ff16905090565b7f000000000000000000000000000000000000000000000000000000000000000081565b6000610dd582612009565b9050919050565b600a60029054906101000a900473ffffffffffffffffffffffffffffffffffffffff1681565b60008073ffffffffffffffffffffffffffffffffffffffff168273ffffffffffffffffffffffffffffffffffffffff1603610e755760006040517f89c62b64000000000000000000000000000000000000000000000000000000008152600401610e6c9190613ae1565b60405180910390fd5b600360008373ffffffffffffffffffffffffffffffffffffffff1673ffffffffffffffffffffffffffffffffffffffff168152602001908152602001600020549050919050565b7fa49807205ce4d355092ef5a8a18f56e8913cf4a201fbe287825b095693c2177581565b7fa49807205ce4d355092ef5a8a18f56e8913cf4a201fbe287825b095693c21775610f0a81612476565b610f126126d2565b50565b610f1d611c0f565b7fa49807205ce4d355092ef5a8a18f56e8913cf4a201fbe287825b095693c21775610f4781612476565b6000610f5284612363565b90508060020160009054906101000a900467ffffffffffffffff1667ffffffffffffffff16421015610fb9576040517f08c379a0000000000000000000000000000000000000000000000000000000008152600401610fb0906149c8565b60405180910390fd5b6000836fffffffffffffffffffffffffffffffff1611801561101f57508060020160089054906101000a90046fffffffffffffffffffffffffffffffff166fffffffffffffffffffffffffffffffff16836fffffffffffffffffffffffffffffffff1611155b61105e576040517f08c379a000000000000000000000000000000000000000000000000000000000815260040161105590614a34565b60405180910390fd5b60018160020160186101000a81548160ff0219169083600281111561108657611085613ff1565b5b021790555060008061109785612735565b915091506000826fffffffffffffffffffffffffffffffff161115611138576111377f0000000000000000000000000000000000000000000000000000000000000000836fffffffffffffffffffffffffffffffff168560010160009054906101000a900473ffffffffffffffffffffffffffffffffffffffff1673ffffffffffffffffffffffffffffffffffffffff166123f79092919063ffffffff16565b5b6000816fffffffffffffffffffffffffffffffff1611156111d7576111d6600a60029054906101000a900473ffffffffffffffffffffffffffffffffffffffff16826fffffffffffffffffffffffffffffffff168560010160009054906101000a900473ffffffffffffffffffffffffffffffffffffffff1673ffffffffffffffffffffffffffffffffffffffff166123f79092919063ffffffff16565b5b6000858460020160089054906101000a90046fffffffffffffffffffffffffffffffff166112059190614a54565b90506000816fffffffffffffffffffffffffffffffff16111561131b576112a78460000160009054906101000a900473ffffffffffffffffffffffffffffffffffffffff16826fffffffffffffffffffffffffffffffff168660010160009054906101000a900473ffffffffffffffffffffffffffffffffffffffff1673ffffffffffffffffffffffffffffffffffffffff166123f79092919063ffffffff16565b8360000160009054906101000a900473ffffffffffffffffffffffffffffffffffffffff1673ffffffffffffffffffffffffffffffffffffffff16877f75ad57570b4e42e885597e4903a4316971a17f7d9eccf0097d43277dd4b11ab18360405161131291906146e3565b60405180910390a35b600a60029054906101000a900473ffffffffffffffffffffffffffffffffffffffff1673ffffffffffffffffffffffffffffffffffffffff16877fb28880f401b82ef8bec0461d06514ffbfc89a577295627d3aaf8911d2280e1468486604051611386929190614a98565b60405180910390a350505050505050565b6000801b6113a481612476565b6127108261ffff1611156113ed576040517f08c379a00000000000000000000000000000000000000000000000000000000081526004016113e490614b0d565b60405180910390fd5b81600a60006101000a81548161ffff021916908361ffff1602179055505050565b60006007600084815260200190815260200160002060000160008373ffffffffffffffffffffffffffffffffffffffff1673ffffffffffffffffffffffffffffffffffffffff16815260200190815260200160002060009054906101000a900460ff16905092915050565b611481613725565b600b60008381526020019081526020016000206040518060c00160405290816000820160009054906101000a900473ffffffffffffffffffffffffffffffffffffffff1673ffffffffffffffffffffffffffffffffffffffff1673ffffffffffffffffffffffffffffffffffffffff1681526020016001820160009054906101000a900473ffffffffffffffffffffffffffffffffffffffff1673ffffffffffffffffffffffffffffffffffffffff1673ffffffffffffffffffffffffffffffffffffffff1681526020016001820160149054906101000a900467ffffffffffffffff1667ffffffffffffffff1667ffffffffffffffff1681526020016002820160009054906101000a900467ffffffffffffffff1667ffffffffffffffff1667ffffffffffffffff1681526020016002820160089054906101000a90046fffffffffffffffffffffffffffffffff166fffffffffffffffffffffffffffffffff166fffffffffffffffffffffffffffffffff1681526020016002820160189054906101000a900460ff16600281111561161e5761161d613ff1565b5b60028111156116305761162f613ff1565b5b815250509050600073ffffffffffffffffffffffffffffffffffffffff16816000015173ffffffffffffffffffffffffffffffffffffffff16036116a9576040517f08c379a00000000000000000000000000000000000000000000000000000000081526004016116a090614b79565b60405180910390fd5b919050565b6060600180546116bd906144f5565b80601f01602080910402602001604051908101604052809291908181526020018280546116e9906144f5565b80156117365780601f1061170b57610100808354040283529160200191611736565b820191906000526020600020905b81548152906001019060200180831161171957829003601f168201915b5050505050905090565b6000801b81565b6117596117526120ce565b838361277a565b5050565b6117688484846108a4565b61177c6117736120ce565b858585856128e9565b50505050565b6000801b61178f81612476565b81600a60026101000a81548173ffffffffffffffffffffffffffffffffffffffff021916908373ffffffffffffffffffffffffffffffffffffffff1602179055505050565b60606117df82612009565b506000600880546117ef906144f5565b90501161180b5760405180602001604052806000815250611837565b600861181683612a9a565b604051602001611827929190614c58565b6040516020818303038152906040525b9050919050565b600080600b60008481526020019081526020016000206040518060c00160405290816000820160009054906101000a900473ffffffffffffffffffffffffffffffffffffffff1673ffffffffffffffffffffffffffffffffffffffff1673ffffffffffffffffffffffffffffffffffffffff1681526020016001820160009054906101000a900473ffffffffffffffffffffffffffffffffffffffff1673ffffffffffffffffffffffffffffffffffffffff1673ffffffffffffffffffffffffffffffffffffffff1681526020016001820160149054906101000a900467ffffffffffffffff1667ffffffffffffffff1667ffffffffffffffff1681526020016002820160009054906101000a900467ffffffffffffffff1667ffffffffffffffff1667ffffffffffffffff1681526020016002820160089054906101000a90046fffffffffffffffffffffffffffffffff166fffffffffffffffffffffffffffffffff166fffffffffffffffffffffffffffffffff1681526020016002820160189054906101000a900460ff1660028111156119de576119dd613ff1565b5b60028111156119f0576119ef613ff1565b5b81525050905060006002811115611a0a57611a09613ff1565b5b8160a001516002811115611a2157611a20613ff1565b5b148015611a445750600081608001516fffffffffffffffffffffffffffffffff16115b8015611a6b5750621275008160600151611a5e919061462c565b67ffffffffffffffff1642115b915050919050565b6000611a7d611c0f565b611a898b888c8c611c50565b9050611a9b81888a8989898989612b68565b9a9950505050505050505050565b611ab2826109a6565b611abb81612476565b611ac5838361257c565b50505050565b600a60009054906101000a900461ffff1681565b6000600560008473ffffffffffffffffffffffffffffffffffffffff1673ffffffffffffffffffffffffffffffffffffffff16815260200190815260200160002060008373ffffffffffffffffffffffffffffffffffffffff1673ffffffffffffffffffffffffffffffffffffffff16815260200190815260200160002060009054906101000a900460ff16905092915050565b611b7b611c0f565b611b8b8888888888888888612b68565b5050505050505050565b60007f7965db0b000000000000000000000000000000000000000000000000000000007bffffffffffffffffffffffffffffffffffffffffffffffffffffffff1916827bffffffffffffffffffffffffffffffffffffffffffffffffffffffff19161480611c085750611c0782612bf5565b5b9050919050565b611c17610d8f565b15611c4e576040517fd93c066500000000000000000000000000000000000000000000000000000000815260040160405180910390fd5b565b60008073ffffffffffffffffffffffffffffffffffffffff168573ffffffffffffffffffffffffffffffffffffffff1603611cc0576040517f08c379a0000000000000000000000000000000000000000000000000000000008152600401611cb790614cc8565b60405180910390fd5b600073ffffffffffffffffffffffffffffffffffffffff168473ffffffffffffffffffffffffffffffffffffffff1603611d2f576040517f08c379a0000000000000000000000000000000000000000000000000000000008152600401611d2690614d34565b60405180910390fd5b8167ffffffffffffffff168367ffffffffffffffff1610611d85576040517f08c379a0000000000000000000000000000000000000000000000000000000008152600401611d7c90614dc6565b60405180910390fd5b6009549050611d948582612cd7565b6040518060c001604052808673ffffffffffffffffffffffffffffffffffffffff1681526020018573ffffffffffffffffffffffffffffffffffffffff1681526020018467ffffffffffffffff1681526020018367ffffffffffffffff16815260200160006fffffffffffffffffffffffffffffffff16815260200160006002811115611e2457611e23613ff1565b5b815250600b600083815260200190815260200160002060008201518160000160006101000a81548173ffffffffffffffffffffffffffffffffffffffff021916908373ffffffffffffffffffffffffffffffffffffffff16021790555060208201518160010160006101000a81548173ffffffffffffffffffffffffffffffffffffffff021916908373ffffffffffffffffffffffffffffffffffffffff16021790555060408201518160010160146101000a81548167ffffffffffffffff021916908367ffffffffffffffff16021790555060608201518160020160006101000a81548167ffffffffffffffff021916908367ffffffffffffffff16021790555060808201518160020160086101000a8154816fffffffffffffffffffffffffffffffff02191690836fffffffffffffffffffffffffffffffff16021790555060a08201518160020160186101000a81548160ff02191690836002811115611f9057611f8f613ff1565b5b0217905550905050600960008154611fa790614de6565b919050819055508473ffffffffffffffffffffffffffffffffffffffff16817ff344f92acffbc9469f3e4abf24e2e0d16aebf0a26e0ef855c99cf3df81aa18c0868686604051611ff993929190614e3d565b60405180910390a3949350505050565b60008061201583612cf5565b9050600073ffffffffffffffffffffffffffffffffffffffff168173ffffffffffffffffffffffffffffffffffffffff160361208857826040517f7e27328900000000000000000000000000000000000000000000000000000000815260040161207f91906139ac565b60405180910390fd5b80915050919050565b60006004600083815260200190815260200160002060009054906101000a900473ffffffffffffffffffffffffffffffffffffffff169050919050565b600033905090565b6120e38383836001612d32565b505050565b60006120f385612363565b90508060020160009054906101000a900467ffffffffffffffff1667ffffffffffffffff164210612159576040517f08c379a000000000000000000000000000000000000000000000000000000000815260040161215090614ec0565b60405180910390fd5b8060010160009054906101000a900473ffffffffffffffffffffffffffffffffffffffff1673ffffffffffffffffffffffffffffffffffffffff168373ffffffffffffffffffffffffffffffffffffffff16146121eb576040517f08c379a00000000000000000000000000000000000000000000000000000000081526004016121e290614d34565b60405180910390fd5b6000826fffffffffffffffffffffffffffffffff1611612240576040517f08c379a000000000000000000000000000000000000000000000000000000000815260040161223790614f2c565b60405180910390fd5b61227f8430846fffffffffffffffffffffffffffffffff168673ffffffffffffffffffffffffffffffffffffffff16612ef7909392919063ffffffff16565b818160020160088282829054906101000a90046fffffffffffffffffffffffffffffffff166122ae9190614f4c565b92506101000a8154816fffffffffffffffffffffffffffffffff02191690836fffffffffffffffffffffffffffffffff160217905550847f42b5aa796d7c00d82ad4a384a09e41f602be2e6f69198c4403f361bf7d65165b838360020160089054906101000a90046fffffffffffffffffffffffffffffffff16604051612336929190614a98565b60405180910390a25050505050565b600061234f611c0f565b61235a848484612f79565b90509392505050565b6000600b600083815260200190815260200160002090506000600281111561238e5761238d613ff1565b5b8160020160189054906101000a900460ff1660028111156123b2576123b1613ff1565b5b146123f2576040517f08c379a00000000000000000000000000000000000000000000000000000000081526004016123e990614fdc565b60405180910390fd5b919050565b612471838473ffffffffffffffffffffffffffffffffffffffff1663a9059cbb858560405160240161242a929190614ffc565b604051602081830303815290604052915060e01b6020820180517bffffffffffffffffffffffffffffffffffffffffffffffffffffffff8381831617835250505050613193565b505050565b612487816124826120ce565b613235565b50565b6000612496838361140e565b6125715760016007600085815260200190815260200160002060000160008473ffffffffffffffffffffffffffffffffffffffff1673ffffffffffffffffffffffffffffffffffffffff16815260200190815260200160002060006101000a81548160ff02191690831515021790555061250e6120ce565b73ffffffffffffffffffffffffffffffffffffffff168273ffffffffffffffffffffffffffffffffffffffff16847f2f8788117e7eff1d82e926ec794901d17c78024a50270940304540a733656f0d60405160405180910390a460019050612576565b600090505b92915050565b6000612588838361140e565b156126645760006007600085815260200190815260200160002060000160008473ffffffffffffffffffffffffffffffffffffffff1673ffffffffffffffffffffffffffffffffffffffff16815260200190815260200160002060006101000a81548160ff0219169083151502179055506126016120ce565b73ffffffffffffffffffffffffffffffffffffffff168273ffffffffffffffffffffffffffffffffffffffff16847ff6391f5c32d9c69d2a47ea670b442974b53935d1edc7fd64eb21e047a839171b60405160405180910390a460019050612669565b600090505b92915050565b612677613286565b6000600660006101000a81548160ff0219169083151502179055507f5db9ee0a495bf2e6ff9c91a7834c1ba4fdd244a5e8aa4e537bd38aeae4b073aa6126bb6120ce565b6040516126c89190613ae1565b60405180910390a1565b6126da611c0f565b6001600660006101000a81548160ff0219169083151502179055507f62e78cea01bee320cd4e420270b5ea74000d11b0c9f74754ebdbfc544b05a25861271e6120ce565b60405161272b9190613ae1565b60405180910390a1565b600080612710600a60009054906101000a900461ffff1661ffff168461275b9190615025565b6127659190615091565b915081836127739190614a54565b9050915091565b600073ffffffffffffffffffffffffffffffffffffffff168273ffffffffffffffffffffffffffffffffffffffff16036127eb57816040517f5b08ba180000000000000000000000000000000000000000000000000000000081526004016127e29190613ae1565b60405180910390fd5b80600560008573ffffffffffffffffffffffffffffffffffffffff1673ffffffffffffffffffffffffffffffffffffffff16815260200190815260200160002060008473ffffffffffffffffffffffffffffffffffffffff1673ffffffffffffffffffffffffffffffffffffffff16815260200190815260200160002060006101000a81548160ff0219169083151502179055508173ffffffffffffffffffffffffffffffffffffffff168373ffffffffffffffffffffffffffffffffffffffff167f17307eab39ab6107e8899845ad3d59bd9653f200f220920489ca2b5937696c31836040516128dc9190613873565b60405180910390a3505050565b60008373ffffffffffffffffffffffffffffffffffffffff163b1115612a93578273ffffffffffffffffffffffffffffffffffffffff1663150b7a02868685856040518563ffffffff1660e01b81526004016129489493929190615117565b6020604051808303816000875af192505050801561298457506040513d601f19601f820116820180604052508101906129819190615178565b60015b612a08573d80600081146129b4576040519150601f19603f3d011682016040523d82523d6000602084013e6129b9565b606091505b506000815103612a0057836040517f64a0ae920000000000000000000000000000000000000000000000000000000081526004016129f79190613ae1565b60405180910390fd5b805181602001fd5b63150b7a0260e01b7bffffffffffffffffffffffffffffffffffffffffffffffffffffffff1916817bffffffffffffffffffffffffffffffffffffffffffffffffffffffff191614612a9157836040517f64a0ae92000000000000000000000000000000000000000000000000000000008152600401612a889190613ae1565b60405180910390fd5b505b5050505050565b606060006001612aa9846132c6565b01905060008167ffffffffffffffff811115612ac857612ac7613d7c565b5b6040519080825280601f01601f191660200182016040528015612afa5781602001600182028036833780820191505090505b509050600082602001820190505b600115612b5d578080600190039150507f3031323334353637383961626364656600000000000000000000000000000000600a86061a8153600a8581612b5157612b50615062565b5b04945060008503612b08575b819350505050919050565b8673ffffffffffffffffffffffffffffffffffffffff1663d505accf873088888888886040518863ffffffff1660e01b8152600401612bad97969594939291906151e5565b600060405180830381600087803b158015612bc757600080fd5b505af1158015612bdb573d6000803e3d6000fd5b50505050612beb888789886120e8565b5050505050505050565b60007f80ac58cd000000000000000000000000000000000000000000000000000000007bffffffffffffffffffffffffffffffffffffffffffffffffffffffff1916827bffffffffffffffffffffffffffffffffffffffffffffffffffffffff19161480612cc057507f5b5e139f000000000000000000000000000000000000000000000000000000007bffffffffffffffffffffffffffffffffffffffffffffffffffffffff1916827bffffffffffffffffffffffffffffffffffffffffffffffffffffffff1916145b80612cd05750612ccf82613419565b5b9050919050565b612cf1828260405180602001604052806000815250613483565b5050565b60006002600083815260200190815260200160002060009054906101000a900473ffffffffffffffffffffffffffffffffffffffff169050919050565b8080612d6b5750600073ffffffffffffffffffffffffffffffffffffffff168273ffffffffffffffffffffffffffffffffffffffff1614155b15612e9f576000612d7b84612009565b9050600073ffffffffffffffffffffffffffffffffffffffff168373ffffffffffffffffffffffffffffffffffffffff1614158015612de657508273ffffffffffffffffffffffffffffffffffffffff168173ffffffffffffffffffffffffffffffffffffffff1614155b8015612df95750612df78184611adf565b155b15612e3b57826040517fa9fbf51f000000000000000000000000000000000000000000000000000000008152600401612e329190613ae1565b60405180910390fd5b8115612e9d57838573ffffffffffffffffffffffffffffffffffffffff168273ffffffffffffffffffffffffffffffffffffffff167f8c5be1e5ebec7d5bd14f71427d1e84f3dd0314c0f7b2291e5b200ac8c7c3b92560405160405180910390a45b505b836004600085815260200190815260200160002060006101000a81548173ffffffffffffffffffffffffffffffffffffffff021916908373ffffffffffffffffffffffffffffffffffffffff16021790555050505050565b612f73848573ffffffffffffffffffffffffffffffffffffffff166323b872dd868686604051602401612f2c93929190615254565b604051602081830303815290604052915060e01b6020820180517bffffffffffffffffffffffffffffffffffffffffffffffffffffffff8381831617835250505050613193565b50505050565b600080612f8584612cf5565b9050600073ffffffffffffffffffffffffffffffffffffffff168373ffffffffffffffffffffffffffffffffffffffff1614612fc757612fc68184866134a7565b5b600073ffffffffffffffffffffffffffffffffffffffff168173ffffffffffffffffffffffffffffffffffffffff161461305857613009600085600080612d32565b6001600360008373ffffffffffffffffffffffffffffffffffffffff1673ffffffffffffffffffffffffffffffffffffffff168152602001908152602001600020600082825403925050819055505b600073ffffffffffffffffffffffffffffffffffffffff168573ffffffffffffffffffffffffffffffffffffffff16146130db576001600360008773ffffffffffffffffffffffffffffffffffffffff1673ffffffffffffffffffffffffffffffffffffffff168152602001908152602001600020600082825401925050819055505b846002600086815260200190815260200160002060006101000a81548173ffffffffffffffffffffffffffffffffffffffff021916908373ffffffffffffffffffffffffffffffffffffffff160217905550838573ffffffffffffffffffffffffffffffffffffffff168273ffffffffffffffffffffffffffffffffffffffff167fddf252ad1be2c89b69c2b068fc378daa952ba7f163c4a11628f55a4df523b3ef60405160405180910390a4809150509392505050565b600080602060008451602086016000885af1806131b6576040513d6000823e3d81fd5b3d9250600051915050600082146131d15760018114156131ed565b60008473ffffffffffffffffffffffffffffffffffffffff163b145b1561322f57836040517f5274afe70000000000000000000000000000000000000000000000000000000081526004016132269190613ae1565b60405180910390fd5b50505050565b61323f828261140e565b6132825780826040517fe2517d3f00000000000000000000000000000000000000000000000000000000815260040161327992919061528b565b60405180910390fd5b5050565b61328e610d8f565b6132c4576040517f8dfc202b00000000000000000000000000000000000000000000000000000000815260040160405180910390fd5b565b600080600090507a184f03e93ff9f4daa797ed6e38ed64bf6a1f0100000000000000008310613324577a184f03e93ff9f4daa797ed6e38ed64bf6a1f010000000000000000838161331a57613319615062565b5b0492506040810190505b6d04ee2d6d415b85acef81000000008310613361576d04ee2d6d415b85acef8100000000838161335757613356615062565b5b0492506020810190505b662386f26fc10000831061339057662386f26fc10000838161338657613385615062565b5b0492506010810190505b6305f5e10083106133b9576305f5e10083816133af576133ae615062565b5b0492506008810190505b61271083106133de5761271083816133d4576133d3615062565b5b0492506004810190505b6064831061340157606483816133f7576133f6615062565b5b0492506002810190505b600a8310613410576001810190505b80915050919050565b60007f01ffc9a7000000000000000000000000000000000000000000000000000000007bffffffffffffffffffffffffffffffffffffffffffffffffffffffff1916827bffffffffffffffffffffffffffffffffffffffffffffffffffffffff1916149050919050565b61348d838361356b565b6134a26134986120ce565b60008585856128e9565b505050565b6134b2838383613664565b61356657600073ffffffffffffffffffffffffffffffffffffffff168373ffffffffffffffffffffffffffffffffffffffff160361352757806040517f7e27328900000000000000000000000000000000000000000000000000000000815260040161351e91906139ac565b60405180910390fd5b81816040517f177e802f00000000000000000000000000000000000000000000000000000000815260040161355d929190614ffc565b60405180910390fd5b505050565b600073ffffffffffffffffffffffffffffffffffffffff168273ffffffffffffffffffffffffffffffffffffffff16036135dd5760006040517f64a0ae920000000000000000000000000000000000000000000000000000000081526004016135d49190613ae1565b60405180910390fd5b60006135eb83836000612345565b9050600073ffffffffffffffffffffffffffffffffffffffff168173ffffffffffffffffffffffffffffffffffffffff161461365f5760006040517f73c6ac6e0000000000000000000000000000000000000000000000000000000081526004016136569190613ae1565b60405180910390fd5b505050565b60008073ffffffffffffffffffffffffffffffffffffffff168373ffffffffffffffffffffffffffffffffffffffff161415801561371c57508273ffffffffffffffffffffffffffffffffffffffff168473ffffffffffffffffffffffffffffffffffffffff1614806136dd57506136dc8484611adf565b5b8061371b57508273ffffffffffffffffffffffffffffffffffffffff1661370383612091565b73ffffffffffffffffffffffffffffffffffffffff16145b5b90509392505050565b6040518060c00160405280600073ffffffffffffffffffffffffffffffffffffffff168152602001600073ffffffffffffffffffffffffffffffffffffffff168152602001600067ffffffffffffffff168152602001600067ffffffffffffffff16815260200160006fffffffffffffffffffffffffffffffff168152602001600060028111156137b9576137b8613ff1565b5b81525090565b6000604051905090565b600080fd5b600080fd5b60007fffffffff0000000000000000000000000000000000000000000000000000000082169050919050565b613808816137d3565b811461381357600080fd5b50565b600081359050613825816137ff565b92915050565b600060208284031215613841576138406137c9565b5b600061384f84828501613816565b91505092915050565b60008115159050919050565b61386d81613858565b82525050565b60006020820190506138886000830184613864565b92915050565b600073ffffffffffffffffffffffffffffffffffffffff82169050919050565b60006138b98261388e565b9050919050565b6138c9816138ae565b81146138d457600080fd5b50565b6000813590506138e6816138c0565b92915050565b600067ffffffffffffffff82169050919050565b613909816138ec565b811461391457600080fd5b50565b60008135905061392681613900565b92915050565b60008060008060808587031215613946576139456137c9565b5b6000613954878288016138d7565b9450506020613965878288016138d7565b935050604061397687828801613917565b925050606061398787828801613917565b91505092959194509250565b6000819050919050565b6139a681613993565b82525050565b60006020820190506139c1600083018461399d565b92915050565b600081519050919050565b600082825260208201905092915050565b60005b83811015613a015780820151818401526020810190506139e6565b60008484015250505050565b6000601f19601f8301169050919050565b6000613a29826139c7565b613a3381856139d2565b9350613a438185602086016139e3565b613a4c81613a0d565b840191505092915050565b60006020820190508181036000830152613a718184613a1e565b905092915050565b613a8281613993565b8114613a8d57600080fd5b50565b600081359050613a9f81613a79565b92915050565b600060208284031215613abb57613aba6137c9565b5b6000613ac984828501613a90565b91505092915050565b613adb816138ae565b82525050565b6000602082019050613af66000830184613ad2565b92915050565b60008060408385031215613b1357613b126137c9565b5b6000613b21858286016138d7565b9250506020613b3285828601613a90565b9150509250929050565b60006fffffffffffffffffffffffffffffffff82169050919050565b613b6181613b3c565b8114613b6c57600080fd5b50565b600081359050613b7e81613b58565b92915050565b600080600060608486031215613b9d57613b9c6137c9565b5b6000613bab86828701613a90565b9350506020613bbc868287016138d7565b9250506040613bcd86828701613b6f565b9150509250925092565b600080600060608486031215613bf057613bef6137c9565b5b6000613bfe868287016138d7565b9350506020613c0f868287016138d7565b9250506040613c2086828701613a90565b9150509250925092565b6000819050919050565b613c3d81613c2a565b8114613c4857600080fd5b50565b600081359050613c5a81613c34565b92915050565b600060208284031215613c7657613c756137c9565b5b6000613c8484828501613c4b565b91505092915050565b613c9681613c2a565b82525050565b6000602082019050613cb16000830184613c8d565b92915050565b600080600080600060a08688031215613cd357613cd26137c9565b5b6000613ce1888289016138d7565b9550506020613cf288828901613917565b9450506040613d0388828901613917565b9350506060613d14888289016138d7565b9250506080613d2588828901613b6f565b9150509295509295909350565b60008060408385031215613d4957613d486137c9565b5b6000613d5785828601613c4b565b9250506020613d68858286016138d7565b9150509250929050565b600080fd5b600080fd5b7f4e487b7100000000000000000000000000000000000000000000000000000000600052604160045260246000fd5b613db482613a0d565b810181811067ffffffffffffffff82111715613dd357613dd2613d7c565b5b80604052505050565b6000613de66137bf565b9050613df28282613dab565b919050565b600067ffffffffffffffff821115613e1257613e11613d7c565b5b613e1b82613a0d565b9050602081019050919050565b82818337600083830152505050565b6000613e4a613e4584613df7565b613ddc565b905082815260208101848484011115613e6657613e65613d77565b5b613e71848285613e28565b509392505050565b600082601f830112613e8e57613e8d613d72565b5b8135613e9e848260208601613e37565b91505092915050565b600060208284031215613ebd57613ebc6137c9565b5b600082013567ffffffffffffffff811115613edb57613eda6137ce565b5b613ee784828501613e79565b91505092915050565b600060208284031215613f0657613f056137c9565b5b6000613f14848285016138d7565b91505092915050565b60008060408385031215613f3457613f336137c9565b5b6000613f4285828601613a90565b9250506020613f5385828601613b6f565b9150509250929050565b600061ffff82169050919050565b613f7481613f5d565b8114613f7f57600080fd5b50565b600081359050613f9181613f6b565b92915050565b600060208284031215613fad57613fac6137c9565b5b6000613fbb84828501613f82565b91505092915050565b613fcd816138ae565b82525050565b613fdc816138ec565b82525050565b613feb81613b3c565b82525050565b7f4e487b7100000000000000000000000000000000000000000000000000000000600052602160045260246000fd5b6003811061403157614030613ff1565b5b50565b600081905061404282614020565b919050565b600061405282614034565b9050919050565b61406281614047565b82525050565b60c08201600082015161407e6000850182613fc4565b5060208201516140916020850182613fc4565b5060408201516140a46040850182613fd3565b5060608201516140b76060850182613fd3565b5060808201516140ca6080850182613fe2565b5060a08201516140dd60a0850182614059565b50505050565b600060c0820190506140f86000830184614068565b92915050565b61410781613858565b811461411257600080fd5b50565b600081359050614124816140fe565b92915050565b60008060408385031215614141576141406137c9565b5b600061414f858286016138d7565b925050602061416085828601614115565b9150509250929050565b600067ffffffffffffffff82111561418557614184613d7c565b5b61418e82613a0d565b9050602081019050919050565b60006141ae6141a98461416a565b613ddc565b9050828152602081018484840111156141ca576141c9613d77565b5b6141d5848285613e28565b509392505050565b600082601f8301126141f2576141f1613d72565b5b813561420284826020860161419b565b91505092915050565b60008060008060808587031215614225576142246137c9565b5b6000614233878288016138d7565b9450506020614244878288016138d7565b935050604061425587828801613a90565b925050606085013567ffffffffffffffff811115614276576142756137ce565b5b614282878288016141dd565b91505092959194509250565b600060ff82169050919050565b6142a48161428e565b81146142af57600080fd5b50565b6000813590506142c18161429b565b92915050565b6000806000806000806000806000806101408b8d0312156142eb576142ea6137c9565b5b60006142f98d828e016138d7565b9a5050602061430a8d828e01613917565b995050604061431b8d828e01613917565b985050606061432c8d828e016138d7565b975050608061433d8d828e016138d7565b96505060a061434e8d828e01613b6f565b95505060c061435f8d828e01613a90565b94505060e06143708d828e016142b2565b9350506101006143828d828e01613c4b565b9250506101206143948d828e01613c4b565b9150509295989b9194979a5092959850565b6143af81613f5d565b82525050565b60006020820190506143ca60008301846143a6565b92915050565b600080604083850312156143e7576143e66137c9565b5b60006143f5858286016138d7565b9250506020614406858286016138d7565b9150509250929050565b600080600080600080600080610100898b031215614431576144306137c9565b5b600061443f8b828c01613a90565b98505060206144508b828c016138d7565b97505060406144618b828c016138d7565b96505060606144728b828c01613b6f565b95505060806144838b828c01613a90565b94505060a06144948b828c016142b2565b93505060c06144a58b828c01613c4b565b92505060e06144b68b828c01613c4b565b9150509295985092959890939650565b7f4e487b7100000000000000000000000000000000000000000000000000000000600052602260045260246000fd5b6000600282049050600182168061450d57607f821691505b6020821081036145205761451f6144c6565b5b50919050565b7f4e487b7100000000000000000000000000000000000000000000000000000000600052601160045260246000fd5b600061456082613993565b915061456b83613993565b925082820390508181111561458357614582614526565b5b92915050565b600060608201905061459e6000830186613ad2565b6145ab602083018561399d565b6145b86040830184613ad2565b949350505050565b7f4e6f2066756e647320746f206469737472696275746500000000000000000000600082015250565b60006145f66016836139d2565b9150614601826145c0565b602082019050919050565b60006020820190508181036000830152614625816145e9565b9050919050565b6000614637826138ec565b9150614642836138ec565b9250828201905067ffffffffffffffff81111561466257614661614526565b5b92915050565b7f526566756e642074696d6520686173206e6f7420636f6d652079657400000000600082015250565b600061469e601c836139d2565b91506146a982614668565b602082019050919050565b600060208201905081810360008301526146cd81614691565b9050919050565b6146dd81613b3c565b82525050565b60006020820190506146f860008301846146d4565b92915050565b60008190508160005260206000209050919050565b60006020601f8301049050919050565b600082821b905092915050565b6000600883026147607fffffffffffffffffffffffffffffffffffffffffffffffffffffffffffffffff82614723565b61476a8683614723565b95508019841693508086168417925050509392505050565b6000819050919050565b60006147a76147a261479d84613993565b614782565b613993565b9050919050565b6000819050919050565b6147c18361478c565b6147d56147cd826147ae565b848454614730565b825550505050565b600090565b6147ea6147dd565b6147f58184846147b8565b505050565b5b818110156148195761480e6000826147e2565b6001810190506147fb565b5050565b601f82111561485e5761482f816146fe565b61483884614713565b81016020851015614847578190505b61485b61485385614713565b8301826147fa565b50505b505050565b600082821c905092915050565b600061488160001984600802614863565b1980831691505092915050565b600061489a8383614870565b9150826002028217905092915050565b6148b3826139c7565b67ffffffffffffffff8111156148cc576148cb613d7c565b5b6148d682546144f5565b6148e182828561481d565b600060209050601f8311600181146149145760008415614902578287015190505b61490c858261488e565b865550614974565b601f198416614922866146fe565b60005b8281101561494a57848901518255600182019150602085019450602081019050614925565b868310156149675784890151614963601f891682614870565b8355505b6001600288020188555050505b505050505050565b7f4163746976697479206e6f742066696e69736865640000000000000000000000600082015250565b60006149b26015836139d2565b91506149bd8261497c565b602082019050919050565b600060208201905081810360008301526149e1816149a5565b9050919050565b7f496e76616c696420616d6f756e74000000000000000000000000000000000000600082015250565b6000614a1e600e836139d2565b9150614a29826149e8565b602082019050919050565b60006020820190508181036000830152614a4d81614a11565b9050919050565b6000614a5f82613b3c565b9150614a6a83613b3c565b925082820390506fffffffffffffffffffffffffffffffff811115614a9257614a91614526565b5b92915050565b6000604082019050614aad60008301856146d4565b614aba60208301846146d4565b9392505050565b7f496e76616c696420666565000000000000000000000000000000000000000000600082015250565b6000614af7600b836139d2565b9150614b0282614ac1565b602082019050919050565b60006020820190508181036000830152614b2681614aea565b9050919050565b7f496e76616c696420616374697669747900000000000000000000000000000000600082015250565b6000614b636010836139d2565b9150614b6e82614b2d565b602082019050919050565b60006020820190508181036000830152614b9281614b56565b9050919050565b600081905092915050565b60008154614bb1816144f5565b614bbb8186614b99565b94506001821660008114614bd65760018114614beb57614c1e565b60ff1983168652811515820286019350614c1e565b614bf4856146fe565b60005b83811015614c1657815481890152600182019150602081019050614bf7565b838801955050505b50505092915050565b6000614c32826139c7565b614c3c8185614b99565b9350614c4c8185602086016139e3565b80840191505092915050565b6000614c648285614ba4565b9150614c708284614c27565b91508190509392505050565b7f496e76616c6964206f776e657200000000000000000000000000000000000000600082015250565b6000614cb2600d836139d2565b9150614cbd82614c7c565b602082019050919050565b60006020820190508181036000830152614ce181614ca5565b9050919050565b7f496e76616c696420746f6b656e00000000000000000000000000000000000000600082015250565b6000614d1e600d836139d2565b9150614d2982614ce8565b602082019050919050565b60006020820190508181036000830152614d4d81614d11565b9050919050565b7f53746172742074696d65206d757374206265206265666f726520656e6420746960008201527f6d65000000000000000000000000000000000000000000000000000000000000602082015250565b6000614db06022836139d2565b9150614dbb82614d54565b604082019050919050565b60006020820190508181036000830152614ddf81614da3565b9050919050565b6000614df182613993565b91507fffffffffffffffffffffffffffffffffffffffffffffffffffffffffffffffff8203614e2357614e22614526565b5b600182019050919050565b614e37816138ec565b82525050565b6000606082019050614e526000830186613ad2565b614e5f6020830185614e2e565b614e6c6040830184614e2e565b949350505050565b7f41637469766974792069732066696e6973686564000000000000000000000000600082015250565b6000614eaa6014836139d2565b9150614eb582614e74565b602082019050919050565b60006020820190508181036000830152614ed981614e9d565b9050919050565b7f416d6f756e74206d7573742062652067726561746572207468616e207a65726f600082015250565b6000614f166020836139d2565b9150614f2182614ee0565b602082019050919050565b60006020820190508181036000830152614f4581614f09565b9050919050565b6000614f5782613b3c565b9150614f6283613b3c565b925082820190506fffffffffffffffffffffffffffffffff811115614f8a57614f89614526565b5b92915050565b7f416374697669747920616c72656164792066696e616c697a6564000000000000600082015250565b6000614fc6601a836139d2565b9150614fd182614f90565b602082019050919050565b60006020820190508181036000830152614ff581614fb9565b9050919050565b60006040820190506150116000830185613ad2565b61501e602083018461399d565b9392505050565b600061503082613b3c565b915061503b83613b3c565b925082820261504981613b3c565b915080821461505b5761505a614526565b5b5092915050565b7f4e487b7100000000000000000000000000000000000000000000000000000000600052601260045260246000fd5b600061509c82613b3c565b91506150a783613b3c565b9250826150b7576150b6615062565b5b828204905092915050565b600081519050919050565b600082825260208201905092915050565b60006150e9826150c2565b6150f381856150cd565b93506151038185602086016139e3565b61510c81613a0d565b840191505092915050565b600060808201905061512c6000830187613ad2565b6151396020830186613ad2565b615146604083018561399d565b818103606083015261515881846150de565b905095945050505050565b600081519050615172816137ff565b92915050565b60006020828403121561518e5761518d6137c9565b5b600061519c84828501615163565b91505092915050565b60006151c06151bb6151b684613b3c565b614782565b613993565b9050919050565b6151d0816151a5565b82525050565b6151df8161428e565b82525050565b600060e0820190506151fa600083018a613ad2565b6152076020830189613ad2565b61521460408301886151c7565b615221606083018761399d565b61522e60808301866151d6565b61523b60a0830185613c8d565b61524860c0830184613c8d565b98975050505050505050565b60006060820190506152696000830186613ad2565b6152766020830185613ad2565b615283604083018461399d565b949350505050565b60006040820190506152a06000830185613ad2565b6152ad6020830184613c8d565b939250505056fea264697066735822122058946a3bc55dc504121636a2f8d99da6fd9baa97fcfd9b55ef9660b1e6b21b5f64736f6c634300081b0033",
  "linkReferences": {},
  "deployedLinkReferences": {}
}