{
  "_format": "hh-sol-artifact-1",
  "contractName": "TokenManager",
  "sourceName": "contracts/TokenManager.sol",
  "abi": [
    {
      "inputs": [
        {
          "internalType": "address",
          "name": "_foundation",
          "type": "address"
        },
        {
          "internalType": "address",
          "name": "_treasury",
          "type": "address"
        },
        {
          "internalType": "address",
          "name": "_admin",
          "type": "address"
        }
      ],
      "stateMutability": "nonpayable",
      "type": "constructor"
    },
    {
      "inputs": [],
      "name": "AccessControlBadConfirmation",
      "type": "error"
    },
    {
      "inputs": [
        {
          "internalType": "address",
          "name": "account",
          "type": "address"
        },
        {
          "internalType": "bytes32",
          "name": "neededRole",
          "type": "bytes32"
        }
      ],
      "name": "AccessControlUnauthorizedAccount",
      "type": "error"
    },
    {
      "anonymous": false,
      "inputs": [
        {
          "indexed": true,
          "internalType": "address",
          "name": "owner",
          "type": "address"
        },
        {
          "indexed": false,
          "internalType": "address",
          "name": "token",
          "type": "address"
        }
      ],
      "name": "Deploy",
      "type": "event"
    },
    {
      "anonymous": false,
      "inputs": [
        {
          "indexed": true,
          "internalType": "bytes32",
          "name": "role",
          "type": "bytes32"
        },
        {
          "indexed": true,
          "internalType": "bytes32",
          "name": "previousAdminRole",
          "type": "bytes32"
        },
        {
          "indexed": true,
          "internalType": "bytes32",
          "name": "newAdminRole",
          "type": "bytes32"
        }
      ],
      "name": "RoleAdminChanged",
      "type": "event"
    },
    {
      "anonymous": false,
      "inputs": [
        {
          "indexed": true,
          "internalType": "bytes32",
          "name": "role",
          "type": "bytes32"
        },
        {
          "indexed": true,
          "internalType": "address",
          "name": "account",
          "type": "address"
        },
        {
          "indexed": true,
          "internalType": "address",
          "name": "sender",
          "type": "address"
        }
      ],
      "name": "RoleGranted",
      "type": "event"
    },
    {
      "anonymous": false,
      "inputs": [
        {
          "indexed": true,
          "internalType": "bytes32",
          "name": "role",
          "type": "bytes32"
        },
        {
          "indexed": true,
          "internalType": "address",
          "name": "account",
          "type": "address"
        },
        {
          "indexed": true,
          "internalType": "address",
          "name": "sender",
          "type": "address"
        }
      ],
      "name": "RoleRevoked",
      "type": "event"
    },
    {
      "inputs": [],
      "name": "ADMIN_ROLE",
      "outputs": [
        {
          "internalType": "bytes32",
          "name": "",
          "type": "bytes32"
        }
      ],
      "stateMutability": "view",
      "type": "function"
    },
    {
      "inputs": [],
      "name": "DEFAULT_ADMIN_ROLE",
      "outputs": [
        {
          "internalType": "bytes32",
          "name": "",
          "type": "bytes32"
        }
      ],
      "stateMutability": "view",
      "type": "function"
    },
    {
      "inputs": [
        {
          "internalType": "address",
          "name": "owner",
          "type": "address"
        },
        {
          "internalType": "string",
          "name": "_name",
          "type": "string"
        },
        {
          "internalType": "string",
          "name": "_symbol",
          "type": "string"
        }
      ],
      "name": "deploy",
      "outputs": [
        {
          "internalType": "address",
          "name": "token",
          "type": "address"
        }
      ],
      "stateMutability": "nonpayable",
      "type": "function"
    },
    {
      "inputs": [],
      "name": "foundation",
      "outputs": [
        {
          "internalType": "address",
          "name": "",
          "type": "address"
        }
      ],
      "stateMutability": "view",
      "type": "function"
    },
    {
      "inputs": [
        {
          "internalType": "bytes32",
          "name": "role",
          "type": "bytes32"
        }
      ],
      "name": "getRoleAdmin",
      "outputs": [
        {
          "internalType": "bytes32",
          "name": "",
          "type": "bytes32"
        }
      ],
      "stateMutability": "view",
      "type": "function"
    },
    {
      "inputs": [
        {
          "internalType": "address",
          "name": "owner",
          "type": "address"
        }
      ],
      "name": "getToken",
      "outputs": [
        {
          "internalType": "address",
          "name": "token",
          "type": "address"
        }
      ],
      "stateMutability": "view",
      "type": "function"
    },
    {
      "inputs": [
        {
          "internalType": "bytes32",
          "name": "role",
          "type": "bytes32"
        },
        {
          "internalType": "address",
          "name": "account",
          "type": "address"
        }
      ],
      "name": "grantRole",
      "outputs": [],
      "stateMutability": "nonpayable",
      "type": "function"
    },
    {
      "inputs": [
        {
          "internalType": "bytes32",
          "name": "role",
          "type": "bytes32"
        },
        {
          "internalType": "address",
          "name": "account",
          "type": "address"
        }
      ],
      "name": "hasRole",
      "outputs": [
        {
          "internalType": "bool",
          "name": "",
          "type": "bool"
        }
      ],
      "stateMutability": "view",
      "type": "function"
    },
    {
      "inputs": [],
      "name": "parameters",
      "outputs": [
        {
          "internalType": "address",
          "name": "owner",
          "type": "address"
        },
        {
          "internalType": "address",
          "name": "treasury",
          "type": "address"
        },
        {
          "internalType": "string",
          "name": "_name",
          "type": "string"
        },
        {
          "internalType": "string",
          "name": "_symbol",
          "type": "string"
        }
      ],
      "stateMutability": "view",
      "type": "function"
    },
    {
      "inputs": [
        {
          "internalType": "bytes32",
          "name": "role",
          "type": "bytes32"
        },
        {
          "internalType": "address",
          "name": "callerConfirmation",
          "type": "address"
        }
      ],
      "name": "renounceRole",
      "outputs": [],
      "stateMutability": "nonpayable",
      "type": "function"
    },
    {
      "inputs": [
        {
          "internalType": "bytes32",
          "name": "role",
          "type": "bytes32"
        },
        {
          "internalType": "address",
          "name": "account",
          "type": "address"
        }
      ],
      "name": "revokeRole",
      "outputs": [],
      "stateMutability": "nonpayable",
      "type": "function"
    },
    {
      "inputs": [
        {
          "internalType": "bytes4",
          "name": "interfaceId",
          "type": "bytes4"
        }
      ],
      "name": "supportsInterface",
      "outputs": [
        {
          "internalType": "bool",
          "name": "",
          "type": "bool"
        }
      ],
      "stateMutability": "view",
      "type": "function"
    },
    {
      "inputs": [],
      "name": "treasury",
      "outputs": [
        {
          "internalType": "address",
          "name": "",
          "type": "address"
        }
      ],
      "stateMutability": "view",
      "type": "function"
    }
  ],
  "bytecode": "0x60c060405234801561001057600080fd5b50604051614855380380614855833981810160405281019061003291906102b9565b8273ffffffffffffffffffffffffffffffffffffffff1660a08173ffffffffffffffffffffffffffffffffffffffff16815250508173ffffffffffffffffffffffffffffffffffffffff1660808173ffffffffffffffffffffffffffffffffffffffff16815250506100ad6000801b846100e760201b60201c565b506100de7fa49807205ce4d355092ef5a8a18f56e8913cf4a201fbe287825b095693c21775826100e760201b60201c565b5050505061030c565b60006100f983836101e460201b60201c565b6101d957600160008085815260200190815260200160002060000160008473ffffffffffffffffffffffffffffffffffffffff1673ffffffffffffffffffffffffffffffffffffffff16815260200190815260200160002060006101000a81548160ff02191690831515021790555061017661024e60201b60201c565b73ffffffffffffffffffffffffffffffffffffffff168273ffffffffffffffffffffffffffffffffffffffff16847f2f8788117e7eff1d82e926ec794901d17c78024a50270940304540a733656f0d60405160405180910390a4600190506101de565b600090505b92915050565b600080600084815260200190815260200160002060000160008373ffffffffffffffffffffffffffffffffffffffff1673ffffffffffffffffffffffffffffffffffffffff16815260200190815260200160002060009054906101000a900460ff16905092915050565b600033905090565b600080fd5b600073ffffffffffffffffffffffffffffffffffffffff82169050919050565b60006102868261025b565b9050919050565b6102968161027b565b81146102a157600080fd5b50565b6000815190506102b38161028d565b92915050565b6000806000606084860312156102d2576102d1610256565b5b60006102e0868287016102a4565b93505060206102f1868287016102a4565b9250506040610302868287016102a4565b9150509250925092565b60805160a05161451d610338600039600061081b0152600081816104dc01526108a8015261451d6000f3fe608060405234801561001057600080fd5b50600436106100cf5760003560e01c8063597704381161008c5780638903573011610066578063890357301461022657806391d1485414610247578063a217fddf14610277578063d547741f14610295576100cf565b806359770438146101ba57806361d027b3146101ea57806375b238fc14610208576100cf565b806301ffc9a7146100d4578063248a9ca31461010457806325d3b044146101345780632f2ff15d1461016457806336568abe1461018057806341fbb0501461019c575b600080fd5b6100ee60048036038101906100e99190610e7f565b6102b1565b6040516100fb9190610ec7565b60405180910390f35b61011e60048036038101906101199190610f18565b61032b565b60405161012b9190610f54565b60405180910390f35b61014e60048036038101906101499190611113565b61034a565b60405161015b91906111ad565b60405180910390f35b61017e600480360381019061017991906111c8565b61077c565b005b61019a600480360381019061019591906111c8565b61079e565b005b6101a4610819565b6040516101b191906111ad565b60405180910390f35b6101d460048036038101906101cf9190611208565b61083d565b6040516101e191906111ad565b60405180910390f35b6101f26108a6565b6040516101ff91906111ad565b60405180910390f35b6102106108ca565b60405161021d9190610f54565b60405180910390f35b61022e6108ee565b60405161023e94939291906112b4565b60405180910390f35b610261600480360381019061025c91906111c8565b610a5c565b60405161026e9190610ec7565b60405180910390f35b61027f610ac6565b60405161028c9190610f54565b60405180910390f35b6102af60048036038101906102aa91906111c8565b610acd565b005b60007f7965db0b000000000000000000000000000000000000000000000000000000007bffffffffffffffffffffffffffffffffffffffffffffffffffffffff1916827bffffffffffffffffffffffffffffffffffffffffffffffffffffffff19161480610324575061032382610aef565b5b9050919050565b6000806000838152602001908152602001600020600101549050919050565b60007fa49807205ce4d355092ef5a8a18f56e8913cf4a201fbe287825b095693c2177561037681610b59565b600073ffffffffffffffffffffffffffffffffffffffff168573ffffffffffffffffffffffffffffffffffffffff16036103e5576040517f08c379a00000000000000000000000000000000000000000000000000000000081526004016103dc90611379565b60405180910390fd5b600073ffffffffffffffffffffffffffffffffffffffff16600560008773ffffffffffffffffffffffffffffffffffffffff1673ffffffffffffffffffffffffffffffffffffffff16815260200190815260200160002060009054906101000a900473ffffffffffffffffffffffffffffffffffffffff1673ffffffffffffffffffffffffffffffffffffffff16146104b3576040517f08c379a00000000000000000000000000000000000000000000000000000000081526004016104aa906113e5565b60405180910390fd5b60405180608001604052808673ffffffffffffffffffffffffffffffffffffffff1681526020017f000000000000000000000000000000000000000000000000000000000000000073ffffffffffffffffffffffffffffffffffffffff16815260200185815260200184815250600160008201518160000160006101000a81548173ffffffffffffffffffffffffffffffffffffffff021916908373ffffffffffffffffffffffffffffffffffffffff16021790555060208201518160010160006101000a81548173ffffffffffffffffffffffffffffffffffffffff021916908373ffffffffffffffffffffffffffffffffffffffff16021790555060408201518160020190816105c5919061161b565b5060608201518160030190816105db919061161b565b50905050846040516020016105f091906111ad565b6040516020818303038152906040528051906020012060405161061290610da9565b8190604051809103906000f5905080158015610632573d6000803e3d6000fd5b50915081600560008773ffffffffffffffffffffffffffffffffffffffff1673ffffffffffffffffffffffffffffffffffffffff16815260200190815260200160002060006101000a81548173ffffffffffffffffffffffffffffffffffffffff021916908373ffffffffffffffffffffffffffffffffffffffff1602179055506001600080820160006101000a81549073ffffffffffffffffffffffffffffffffffffffff02191690556001820160006101000a81549073ffffffffffffffffffffffffffffffffffffffff02191690556002820160006107149190610db6565b6003820160006107249190610db6565b50508473ffffffffffffffffffffffffffffffffffffffff167fb1a29087760d8e8f9b263f598962f752e7bd23badd44897e2966d376d1a59dca8360405161076c91906111ad565b60405180910390a2509392505050565b6107858261032b565b61078e81610b59565b6107988383610b6d565b50505050565b6107a6610c5e565b73ffffffffffffffffffffffffffffffffffffffff168173ffffffffffffffffffffffffffffffffffffffff161461080a576040517f6697b23200000000000000000000000000000000000000000000000000000000815260040160405180910390fd5b6108148282610c66565b505050565b7f000000000000000000000000000000000000000000000000000000000000000081565b6000600560008373ffffffffffffffffffffffffffffffffffffffff1673ffffffffffffffffffffffffffffffffffffffff16815260200190815260200160002060009054906101000a900473ffffffffffffffffffffffffffffffffffffffff169050919050565b7f000000000000000000000000000000000000000000000000000000000000000081565b7fa49807205ce4d355092ef5a8a18f56e8913cf4a201fbe287825b095693c2177581565b60018060000160009054906101000a900473ffffffffffffffffffffffffffffffffffffffff16908060010160009054906101000a900473ffffffffffffffffffffffffffffffffffffffff169080600201805461094b90611434565b80601f016020809104026020016040519081016040528092919081815260200182805461097790611434565b80156109c45780601f10610999576101008083540402835291602001916109c4565b820191906000526020600020905b8154815290600101906020018083116109a757829003601f168201915b5050505050908060030180546109d990611434565b80601f0160208091040260200160405190810160405280929190818152602001828054610a0590611434565b8015610a525780601f10610a2757610100808354040283529160200191610a52565b820191906000526020600020905b815481529060010190602001808311610a3557829003601f168201915b5050505050905084565b600080600084815260200190815260200160002060000160008373ffffffffffffffffffffffffffffffffffffffff1673ffffffffffffffffffffffffffffffffffffffff16815260200190815260200160002060009054906101000a900460ff16905092915050565b6000801b81565b610ad68261032b565b610adf81610b59565b610ae98383610c66565b50505050565b60007f01ffc9a7000000000000000000000000000000000000000000000000000000007bffffffffffffffffffffffffffffffffffffffffffffffffffffffff1916827bffffffffffffffffffffffffffffffffffffffffffffffffffffffff1916149050919050565b610b6a81610b65610c5e565b610d58565b50565b6000610b798383610a5c565b610c5357600160008085815260200190815260200160002060000160008473ffffffffffffffffffffffffffffffffffffffff1673ffffffffffffffffffffffffffffffffffffffff16815260200190815260200160002060006101000a81548160ff021916908315150217905550610bf0610c5e565b73ffffffffffffffffffffffffffffffffffffffff168273ffffffffffffffffffffffffffffffffffffffff16847f2f8788117e7eff1d82e926ec794901d17c78024a50270940304540a733656f0d60405160405180910390a460019050610c58565b600090505b92915050565b600033905090565b6000610c728383610a5c565b15610d4d57600080600085815260200190815260200160002060000160008473ffffffffffffffffffffffffffffffffffffffff1673ffffffffffffffffffffffffffffffffffffffff16815260200190815260200160002060006101000a81548160ff021916908315150217905550610cea610c5e565b73ffffffffffffffffffffffffffffffffffffffff168273ffffffffffffffffffffffffffffffffffffffff16847ff6391f5c32d9c69d2a47ea670b442974b53935d1edc7fd64eb21e047a839171b60405160405180910390a460019050610d52565b600090505b92915050565b610d628282610a5c565b610da55780826040517fe2517d3f000000000000000000000000000000000000000000000000000000008152600401610d9c9291906116ed565b60405180910390fd5b5050565b612dd18061171783390190565b508054610dc290611434565b6000825580601f10610dd45750610df3565b601f016020900490600052602060002090810190610df29190610df6565b5b50565b5b80821115610e0f576000816000905550600101610df7565b5090565b6000604051905090565b600080fd5b600080fd5b60007fffffffff0000000000000000000000000000000000000000000000000000000082169050919050565b610e5c81610e27565b8114610e6757600080fd5b50565b600081359050610e7981610e53565b92915050565b600060208284031215610e9557610e94610e1d565b5b6000610ea384828501610e6a565b91505092915050565b60008115159050919050565b610ec181610eac565b82525050565b6000602082019050610edc6000830184610eb8565b92915050565b6000819050919050565b610ef581610ee2565b8114610f0057600080fd5b50565b600081359050610f1281610eec565b92915050565b600060208284031215610f2e57610f2d610e1d565b5b6000610f3c84828501610f03565b91505092915050565b610f4e81610ee2565b82525050565b6000602082019050610f696000830184610f45565b92915050565b600073ffffffffffffffffffffffffffffffffffffffff82169050919050565b6000610f9a82610f6f565b9050919050565b610faa81610f8f565b8114610fb557600080fd5b50565b600081359050610fc781610fa1565b92915050565b600080fd5b600080fd5b6000601f19601f8301169050919050565b7f4e487b7100000000000000000000000000000000000000000000000000000000600052604160045260246000fd5b61102082610fd7565b810181811067ffffffffffffffff8211171561103f5761103e610fe8565b5b80604052505050565b6000611052610e13565b905061105e8282611017565b919050565b600067ffffffffffffffff82111561107e5761107d610fe8565b5b61108782610fd7565b9050602081019050919050565b82818337600083830152505050565b60006110b66110b184611063565b611048565b9050828152602081018484840111156110d2576110d1610fd2565b5b6110dd848285611094565b509392505050565b600082601f8301126110fa576110f9610fcd565b5b813561110a8482602086016110a3565b91505092915050565b60008060006060848603121561112c5761112b610e1d565b5b600061113a86828701610fb8565b935050602084013567ffffffffffffffff81111561115b5761115a610e22565b5b611167868287016110e5565b925050604084013567ffffffffffffffff81111561118857611187610e22565b5b611194868287016110e5565b9150509250925092565b6111a781610f8f565b82525050565b60006020820190506111c2600083018461119e565b92915050565b600080604083850312156111df576111de610e1d565b5b60006111ed85828601610f03565b92505060206111fe85828601610fb8565b9150509250929050565b60006020828403121561121e5761121d610e1d565b5b600061122c84828501610fb8565b91505092915050565b600081519050919050565b600082825260208201905092915050565b60005b8381101561126f578082015181840152602081019050611254565b60008484015250505050565b600061128682611235565b6112908185611240565b93506112a0818560208601611251565b6112a981610fd7565b840191505092915050565b60006080820190506112c9600083018761119e565b6112d6602083018661119e565b81810360408301526112e8818561127b565b905081810360608301526112fc818461127b565b905095945050505050565b7f546f6b656e206f776e65722063616e6e6f74206265207a65726f20616464726560008201527f7373000000000000000000000000000000000000000000000000000000000000602082015250565b6000611363602283611240565b915061136e82611307565b604082019050919050565b6000602082019050818103600083015261139281611356565b9050919050565b7f546f6b656e20616c7265616479206465706c6f79656400000000000000000000600082015250565b60006113cf601683611240565b91506113da82611399565b602082019050919050565b600060208201905081810360008301526113fe816113c2565b9050919050565b7f4e487b7100000000000000000000000000000000000000000000000000000000600052602260045260246000fd5b6000600282049050600182168061144c57607f821691505b60208210810361145f5761145e611405565b5b50919050565b60008190508160005260206000209050919050565b60006020601f8301049050919050565b600082821b905092915050565b6000600883026114c77fffffffffffffffffffffffffffffffffffffffffffffffffffffffffffffffff8261148a565b6114d1868361148a565b95508019841693508086168417925050509392505050565b6000819050919050565b6000819050919050565b600061151861151361150e846114e9565b6114f3565b6114e9565b9050919050565b6000819050919050565b611532836114fd565b61154661153e8261151f565b848454611497565b825550505050565b600090565b61155b61154e565b611566818484611529565b505050565b5b8181101561158a5761157f600082611553565b60018101905061156c565b5050565b601f8211156115cf576115a081611465565b6115a98461147a565b810160208510156115b8578190505b6115cc6115c48561147a565b83018261156b565b50505b505050565b600082821c905092915050565b60006115f2600019846008026115d4565b1980831691505092915050565b600061160b83836115e1565b9150826002028217905092915050565b61162482611235565b67ffffffffffffffff81111561163d5761163c610fe8565b5b6116478254611434565b61165282828561158e565b600060209050601f8311600181146116855760008415611673578287015190505b61167d85826115ff565b8655506116e5565b601f19841661169386611465565b60005b828110156116bb57848901518255600182019150602085019450602081019050611696565b868310156116d857848901516116d4601f8916826115e1565b8355505b6001600288020188555050505b505050505050565b6000604082019050611702600083018561119e565b61170f6020830184610f45565b939250505056fe6101a060405234801561001157600080fd5b506040518060400160405280600981526020017f436c7562546f6b656e0000000000000000000000000000000000000000000000815250806040518060400160405280600181526020017f31000000000000000000000000000000000000000000000000000000000000008152506040518060400160405280600981526020017f436c7562546f6b656e00000000000000000000000000000000000000000000008152506040518060400160405280600481526020017f434c55420000000000000000000000000000000000000000000000000000000081525081600390816100fa9190610961565b50806004908161010a9190610961565b50505061012160058361033e60201b90919060201c565b610120818152505061013d60068261033e60201b90919060201c565b6101408181525050818051906020012060e08181525050808051906020012061010081815250504660a0818152505061017a61038e60201b60201c565b608081815250503073ffffffffffffffffffffffffffffffffffffffff1660c08173ffffffffffffffffffffffffffffffffffffffff16815250505050503373ffffffffffffffffffffffffffffffffffffffff1663890357306040518163ffffffff1660e01b8152600401600060405180830381865afa158015610203573d6000803e3d6000fd5b505050506040513d6000823e3d601f19601f8201168201806040525081019061022c9190610bd7565b60086000600960008491905090816102449190610961565b508391905090816102559190610961565b508273ffffffffffffffffffffffffffffffffffffffff166101809073ffffffffffffffffffffffffffffffffffffffff168152508373ffffffffffffffffffffffffffffffffffffffff166101609073ffffffffffffffffffffffffffffffffffffffff16815250505050506102fe610160516102d76103e960201b60201c565b600a6102e39190610de5565b6402540be4006102f39190610e30565b6103f260201b60201c565b610339610180516103136103e960201b60201c565b600a61031f9190610de5565b633b9aca0061032e9190610e30565b6103f260201b60201c565b6110a0565b6000602083511015610360576103598361047a60201b60201c565b9050610388565b82610370836104e260201b60201c565b600001908161037f9190610961565b5060ff60001b90505b92915050565b60007f8b73c3c69bb8fe3d512ecc4cf759cc79239f7b179b0ffacaa9a75d522b39400f60e0516101005146306040516020016103ce959493929190610ea9565b60405160208183030381529060405280519060200120905090565b60006006905090565b600073ffffffffffffffffffffffffffffffffffffffff168273ffffffffffffffffffffffffffffffffffffffff16036104645760006040517fec442f0500000000000000000000000000000000000000000000000000000000815260040161045b9190610efc565b60405180910390fd5b610476600083836104ec60201b60201c565b5050565b600080829050601f815111156104c757826040517f305a27a90000000000000000000000000000000000000000000000000000000081526004016104be9190610f61565b60405180910390fd5b8051816104d390610fb3565b60001c1760001b915050919050565b6000819050919050565b600073ffffffffffffffffffffffffffffffffffffffff168373ffffffffffffffffffffffffffffffffffffffff160361053e578060026000828254610532919061101a565b92505081905550610611565b60008060008573ffffffffffffffffffffffffffffffffffffffff1673ffffffffffffffffffffffffffffffffffffffff168152602001908152602001600020549050818110156105ca578381836040517fe450d38c0000000000000000000000000000000000000000000000000000000081526004016105c19392919061104e565b60405180910390fd5b8181036000808673ffffffffffffffffffffffffffffffffffffffff1673ffffffffffffffffffffffffffffffffffffffff16815260200190815260200160002081905550505b600073ffffffffffffffffffffffffffffffffffffffff168273ffffffffffffffffffffffffffffffffffffffff160361065a57806002600082825403925050819055506106a7565b806000808473ffffffffffffffffffffffffffffffffffffffff1673ffffffffffffffffffffffffffffffffffffffff168152602001908152602001600020600082825401925050819055505b8173ffffffffffffffffffffffffffffffffffffffff168373ffffffffffffffffffffffffffffffffffffffff167fddf252ad1be2c89b69c2b068fc378daa952ba7f163c4a11628f55a4df523b3ef836040516107049190611085565b60405180910390a3505050565b600081519050919050565b7f4e487b7100000000000000000000000000000000000000000000000000000000600052604160045260246000fd5b7f4e487b7100000000000000000000000000000000000000000000000000000000600052602260045260246000fd5b6000600282049050600182168061079257607f821691505b6020821081036107a5576107a461074b565b5b50919050565b60008190508160005260206000209050919050565b60006020601f8301049050919050565b600082821b905092915050565b60006008830261080d7fffffffffffffffffffffffffffffffffffffffffffffffffffffffffffffffff826107d0565b61081786836107d0565b95508019841693508086168417925050509392505050565b6000819050919050565b6000819050919050565b600061085e6108596108548461082f565b610839565b61082f565b9050919050565b6000819050919050565b61087883610843565b61088c61088482610865565b8484546107dd565b825550505050565b600090565b6108a1610894565b6108ac81848461086f565b505050565b5b818110156108d0576108c5600082610899565b6001810190506108b2565b5050565b601f821115610915576108e6816107ab565b6108ef846107c0565b810160208510156108fe578190505b61091261090a856107c0565b8301826108b1565b50505b505050565b600082821c905092915050565b60006109386000198460080261091a565b1980831691505092915050565b60006109518383610927565b9150826002028217905092915050565b61096a82610711565b67ffffffffffffffff8111156109835761098261071c565b5b61098d825461077a565b6109988282856108d4565b600060209050601f8311600181146109cb57600084156109b9578287015190505b6109c38582610945565b865550610a2b565b601f1984166109d9866107ab565b60005b82811015610a01578489015182556001820191506020850194506020810190506109dc565b86831015610a1e5784890151610a1a601f891682610927565b8355505b6001600288020188555050505b505050505050565b6000604051905090565b600080fd5b600080fd5b600073ffffffffffffffffffffffffffffffffffffffff82169050919050565b6000610a7282610a47565b9050919050565b610a8281610a67565b8114610a8d57600080fd5b50565b600081519050610a9f81610a79565b92915050565b600080fd5b600080fd5b6000601f19601f8301169050919050565b610ac982610aaf565b810181811067ffffffffffffffff82111715610ae857610ae761071c565b5b80604052505050565b6000610afb610a33565b9050610b078282610ac0565b919050565b600067ffffffffffffffff821115610b2757610b2661071c565b5b610b3082610aaf565b9050602081019050919050565b60005b83811015610b5b578082015181840152602081019050610b40565b60008484015250505050565b6000610b7a610b7584610b0c565b610af1565b905082815260208101848484011115610b9657610b95610aaa565b5b610ba1848285610b3d565b509392505050565b600082601f830112610bbe57610bbd610aa5565b5b8151610bce848260208601610b67565b91505092915050565b60008060008060808587031215610bf157610bf0610a3d565b5b6000610bff87828801610a90565b9450506020610c1087828801610a90565b935050604085015167ffffffffffffffff811115610c3157610c30610a42565b5b610c3d87828801610ba9565b925050606085015167ffffffffffffffff811115610c5e57610c5d610a42565b5b610c6a87828801610ba9565b91505092959194509250565b7f4e487b7100000000000000000000000000000000000000000000000000000000600052601160045260246000fd5b60008160011c9050919050565b6000808291508390505b6001851115610cfc57808604811115610cd857610cd7610c76565b5b6001851615610ce75780820291505b8081029050610cf585610ca5565b9450610cbc565b94509492505050565b600082610d155760019050610dd1565b81610d235760009050610dd1565b8160018114610d395760028114610d4357610d72565b6001915050610dd1565b60ff841115610d5557610d54610c76565b5b8360020a915084821115610d6c57610d6b610c76565b5b50610dd1565b5060208310610133831016604e8410600b8410161715610da75782820a905083811115610da257610da1610c76565b5b610dd1565b610db48484846001610cb2565b92509050818404811115610dcb57610dca610c76565b5b81810290505b9392505050565b600060ff82169050919050565b6000610df08261082f565b9150610dfb83610dd8565b9250610e287fffffffffffffffffffffffffffffffffffffffffffffffffffffffffffffffff8484610d05565b905092915050565b6000610e3b8261082f565b9150610e468361082f565b9250828202610e548161082f565b91508282048414831517610e6b57610e6a610c76565b5b5092915050565b6000819050919050565b610e8581610e72565b82525050565b610e948161082f565b82525050565b610ea381610a67565b82525050565b600060a082019050610ebe6000830188610e7c565b610ecb6020830187610e7c565b610ed86040830186610e7c565b610ee56060830185610e8b565b610ef26080830184610e9a565b9695505050505050565b6000602082019050610f116000830184610e9a565b92915050565b600082825260208201905092915050565b6000610f3382610711565b610f3d8185610f17565b9350610f4d818560208601610b3d565b610f5681610aaf565b840191505092915050565b60006020820190508181036000830152610f7b8184610f28565b905092915050565b600081519050919050565b6000819050602082019050919050565b6000610faa8251610e72565b80915050919050565b6000610fbe82610f83565b82610fc884610f8e565b9050610fd381610f9e565b925060208210156110135761100e7fffffffffffffffffffffffffffffffffffffffffffffffffffffffffffffffff836020036008026107d0565b831692505b5050919050565b60006110258261082f565b91506110308361082f565b925082820190508082111561104857611047610c76565b5b92915050565b60006060820190506110636000830186610e9a565b6110706020830185610e8b565b61107d6040830184610e8b565b949350505050565b600060208201905061109a6000830184610e8b565b92915050565b60805160a05160c05160e0516101005161012051610140516101605161018051611cc161111060003960006104340152600061055c01526000610ae801526000610aad01526000610ffd01526000610fdc015260006109a8015260006109fe01526000610a270152611cc16000f3fe608060405234801561001057600080fd5b50600436106100f55760003560e01c806370a082311161009757806395d89b411161006657806395d89b4114610292578063a9059cbb146102b0578063d505accf146102e0578063dd62ed3e146102fc576100f5565b806370a08231146101f05780637ecebe001461022057806384b0196e146102505780638da5cb5b14610274576100f5565b806323b872dd116100d357806323b872dd14610166578063313ce567146101965780633644e515146101b457806361d027b3146101d2576100f5565b806306fdde03146100fa578063095ea7b31461011857806318160ddd14610148575b600080fd5b61010261032c565b60405161010f91906114ea565b60405180910390f35b610132600480360381019061012d91906115a5565b6103be565b60405161013f9190611600565b60405180910390f35b6101506103e1565b60405161015d919061162a565b60405180910390f35b610180600480360381019061017b9190611645565b6103eb565b60405161018d9190611600565b60405180910390f35b61019e61041a565b6040516101ab91906116b4565b60405180910390f35b6101bc610423565b6040516101c991906116e8565b60405180910390f35b6101da610432565b6040516101e79190611712565b60405180910390f35b61020a6004803603810190610205919061172d565b610456565b604051610217919061162a565b60405180910390f35b61023a6004803603810190610235919061172d565b61049e565b604051610247919061162a565b60405180910390f35b6102586104b0565b60405161026b9796959493929190611853565b60405180910390f35b61027c61055a565b6040516102899190611712565b60405180910390f35b61029a61057e565b6040516102a791906114ea565b60405180910390f35b6102ca60048036038101906102c591906115a5565b610610565b6040516102d79190611600565b60405180910390f35b6102fa60048036038101906102f5919061192f565b610633565b005b610316600480360381019061031191906119d1565b61077b565b604051610323919061162a565b60405180910390f35b60606008805461033b90611a40565b80601f016020809104026020016040519081016040528092919081815260200182805461036790611a40565b80156103b45780601f10610389576101008083540402835291602001916103b4565b820191906000526020600020905b81548152906001019060200180831161039757829003601f168201915b5050505050905090565b6000806103c9610802565b90506103d681858561080a565b600191505092915050565b6000600254905090565b6000806103f6610802565b905061040385828561081c565b61040e8585856108b0565b60019150509392505050565b60006006905090565b600061042d6109a4565b905090565b7f000000000000000000000000000000000000000000000000000000000000000081565b60008060008373ffffffffffffffffffffffffffffffffffffffff1673ffffffffffffffffffffffffffffffffffffffff168152602001908152602001600020549050919050565b60006104a982610a5b565b9050919050565b6000606080600080600060606104c4610aa4565b6104cc610adf565b46306000801b600067ffffffffffffffff8111156104ed576104ec611a71565b5b60405190808252806020026020018201604052801561051b5781602001602082028036833780820191505090505b507f0f00000000000000000000000000000000000000000000000000000000000000959493929190965096509650965096509650965090919293949596565b7f000000000000000000000000000000000000000000000000000000000000000081565b60606009805461058d90611a40565b80601f01602080910402602001604051908101604052809291908181526020018280546105b990611a40565b80156106065780601f106105db57610100808354040283529160200191610606565b820191906000526020600020905b8154815290600101906020018083116105e957829003601f168201915b5050505050905090565b60008061061b610802565b90506106288185856108b0565b600191505092915050565b8342111561067857836040517f6279130200000000000000000000000000000000000000000000000000000000815260040161066f919061162a565b60405180910390fd5b60007f6e71edae12b1b97f4d1f60370fef10105fa2faae0126114a169c64845d6126c98888886106a78c610b1a565b896040516020016106bd96959493929190611aa0565b60405160208183030381529060405280519060200120905060006106e082610b71565b905060006106f082878787610b8b565b90508973ffffffffffffffffffffffffffffffffffffffff168173ffffffffffffffffffffffffffffffffffffffff161461076457808a6040517f4b800e4600000000000000000000000000000000000000000000000000000000815260040161075b929190611b01565b60405180910390fd5b61076f8a8a8a61080a565b50505050505050505050565b6000600160008473ffffffffffffffffffffffffffffffffffffffff1673ffffffffffffffffffffffffffffffffffffffff16815260200190815260200160002060008373ffffffffffffffffffffffffffffffffffffffff1673ffffffffffffffffffffffffffffffffffffffff16815260200190815260200160002054905092915050565b600033905090565b6108178383836001610bbb565b505050565b6000610828848461077b565b90507fffffffffffffffffffffffffffffffffffffffffffffffffffffffffffffffff81146108aa578181101561089a578281836040517ffb8f41b200000000000000000000000000000000000000000000000000000000815260040161089193929190611b2a565b60405180910390fd5b6108a984848484036000610bbb565b5b50505050565b600073ffffffffffffffffffffffffffffffffffffffff168373ffffffffffffffffffffffffffffffffffffffff16036109225760006040517f96c6fd1e0000000000000000000000000000000000000000000000000000000081526004016109199190611712565b60405180910390fd5b600073ffffffffffffffffffffffffffffffffffffffff168273ffffffffffffffffffffffffffffffffffffffff16036109945760006040517fec442f0500000000000000000000000000000000000000000000000000000000815260040161098b9190611712565b60405180910390fd5b61099f838383610d92565b505050565b60007f000000000000000000000000000000000000000000000000000000000000000073ffffffffffffffffffffffffffffffffffffffff163073ffffffffffffffffffffffffffffffffffffffff16148015610a2057507f000000000000000000000000000000000000000000000000000000000000000046145b15610a4d577f00000000000000000000000000000000000000000000000000000000000000009050610a58565b610a55610fb7565b90505b90565b6000600760008373ffffffffffffffffffffffffffffffffffffffff1673ffffffffffffffffffffffffffffffffffffffff168152602001908152602001600020549050919050565b6060610ada60057f000000000000000000000000000000000000000000000000000000000000000061104d90919063ffffffff16565b905090565b6060610b1560067f000000000000000000000000000000000000000000000000000000000000000061104d90919063ffffffff16565b905090565b6000600760008373ffffffffffffffffffffffffffffffffffffffff1673ffffffffffffffffffffffffffffffffffffffff1681526020019081526020016000206000815480929190600101919050559050919050565b6000610b84610b7e6109a4565b836110fd565b9050919050565b600080600080610b9d8888888861113e565b925092509250610bad8282611232565b829350505050949350505050565b600073ffffffffffffffffffffffffffffffffffffffff168473ffffffffffffffffffffffffffffffffffffffff1603610c2d5760006040517fe602df05000000000000000000000000000000000000000000000000000000008152600401610c249190611712565b60405180910390fd5b600073ffffffffffffffffffffffffffffffffffffffff168373ffffffffffffffffffffffffffffffffffffffff1603610c9f5760006040517f94280d62000000000000000000000000000000000000000000000000000000008152600401610c969190611712565b60405180910390fd5b81600160008673ffffffffffffffffffffffffffffffffffffffff1673ffffffffffffffffffffffffffffffffffffffff16815260200190815260200160002060008573ffffffffffffffffffffffffffffffffffffffff1673ffffffffffffffffffffffffffffffffffffffff168152602001908152602001600020819055508015610d8c578273ffffffffffffffffffffffffffffffffffffffff168473ffffffffffffffffffffffffffffffffffffffff167f8c5be1e5ebec7d5bd14f71427d1e84f3dd0314c0f7b2291e5b200ac8c7c3b92584604051610d83919061162a565b60405180910390a35b50505050565b600073ffffffffffffffffffffffffffffffffffffffff168373ffffffffffffffffffffffffffffffffffffffff1603610de4578060026000828254610dd89190611b90565b92505081905550610eb7565b60008060008573ffffffffffffffffffffffffffffffffffffffff1673ffffffffffffffffffffffffffffffffffffffff16815260200190815260200160002054905081811015610e70578381836040517fe450d38c000000000000000000000000000000000000000000000000000000008152600401610e6793929190611b2a565b60405180910390fd5b8181036000808673ffffffffffffffffffffffffffffffffffffffff1673ffffffffffffffffffffffffffffffffffffffff16815260200190815260200160002081905550505b600073ffffffffffffffffffffffffffffffffffffffff168273ffffffffffffffffffffffffffffffffffffffff1603610f005780600260008282540392505081905550610f4d565b806000808473ffffffffffffffffffffffffffffffffffffffff1673ffffffffffffffffffffffffffffffffffffffff168152602001908152602001600020600082825401925050819055505b8173ffffffffffffffffffffffffffffffffffffffff168373ffffffffffffffffffffffffffffffffffffffff167fddf252ad1be2c89b69c2b068fc378daa952ba7f163c4a11628f55a4df523b3ef83604051610faa919061162a565b60405180910390a3505050565b60007f8b73c3c69bb8fe3d512ecc4cf759cc79239f7b179b0ffacaa9a75d522b39400f7f00000000000000000000000000000000000000000000000000000000000000007f00000000000000000000000000000000000000000000000000000000000000004630604051602001611032959493929190611bc4565b60405160208183030381529060405280519060200120905090565b606060ff60001b831461106a5761106383611396565b90506110f7565b81805461107690611a40565b80601f01602080910402602001604051908101604052809291908181526020018280546110a290611a40565b80156110ef5780601f106110c4576101008083540402835291602001916110ef565b820191906000526020600020905b8154815290600101906020018083116110d257829003601f168201915b505050505090505b92915050565b60006040517f190100000000000000000000000000000000000000000000000000000000000081528360028201528260228201526042812091505092915050565b60008060007f7fffffffffffffffffffffffffffffff5d576e7357a4501ddfe92f46681b20a08460001c111561117e576000600385925092509250611228565b6000600188888888604051600081526020016040526040516111a39493929190611c17565b6020604051602081039080840390855afa1580156111c5573d6000803e3d6000fd5b505050602060405103519050600073ffffffffffffffffffffffffffffffffffffffff168173ffffffffffffffffffffffffffffffffffffffff160361121957600060016000801b93509350935050611228565b8060008060001b935093509350505b9450945094915050565b6000600381111561124657611245611c5c565b5b82600381111561125957611258611c5c565b5b0315611392576001600381111561127357611272611c5c565b5b82600381111561128657611285611c5c565b5b036112bd576040517ff645eedf00000000000000000000000000000000000000000000000000000000815260040160405180910390fd5b600260038111156112d1576112d0611c5c565b5b8260038111156112e4576112e3611c5c565b5b03611329578060001c6040517ffce698f7000000000000000000000000000000000000000000000000000000008152600401611320919061162a565b60405180910390fd5b60038081111561133c5761133b611c5c565b5b82600381111561134f5761134e611c5c565b5b0361139157806040517fd78bce0c00000000000000000000000000000000000000000000000000000000815260040161138891906116e8565b60405180910390fd5b5b5050565b606060006113a38361140a565b90506000602067ffffffffffffffff8111156113c2576113c1611a71565b5b6040519080825280601f01601f1916602001820160405280156113f45781602001600182028036833780820191505090505b5090508181528360208201528092505050919050565b60008060ff8360001c169050601f811115611451576040517fb3512b0c00000000000000000000000000000000000000000000000000000000815260040160405180910390fd5b80915050919050565b600081519050919050565b600082825260208201905092915050565b60005b83811015611494578082015181840152602081019050611479565b60008484015250505050565b6000601f19601f8301169050919050565b60006114bc8261145a565b6114c68185611465565b93506114d6818560208601611476565b6114df816114a0565b840191505092915050565b6000602082019050818103600083015261150481846114b1565b905092915050565b600080fd5b600073ffffffffffffffffffffffffffffffffffffffff82169050919050565b600061153c82611511565b9050919050565b61154c81611531565b811461155757600080fd5b50565b60008135905061156981611543565b92915050565b6000819050919050565b6115828161156f565b811461158d57600080fd5b50565b60008135905061159f81611579565b92915050565b600080604083850312156115bc576115bb61150c565b5b60006115ca8582860161155a565b92505060206115db85828601611590565b9150509250929050565b60008115159050919050565b6115fa816115e5565b82525050565b600060208201905061161560008301846115f1565b92915050565b6116248161156f565b82525050565b600060208201905061163f600083018461161b565b92915050565b60008060006060848603121561165e5761165d61150c565b5b600061166c8682870161155a565b935050602061167d8682870161155a565b925050604061168e86828701611590565b9150509250925092565b600060ff82169050919050565b6116ae81611698565b82525050565b60006020820190506116c960008301846116a5565b92915050565b6000819050919050565b6116e2816116cf565b82525050565b60006020820190506116fd60008301846116d9565b92915050565b61170c81611531565b82525050565b60006020820190506117276000830184611703565b92915050565b6000602082840312156117435761174261150c565b5b60006117518482850161155a565b91505092915050565b60007fff0000000000000000000000000000000000000000000000000000000000000082169050919050565b61178f8161175a565b82525050565b600081519050919050565b600082825260208201905092915050565b6000819050602082019050919050565b6117ca8161156f565b82525050565b60006117dc83836117c1565b60208301905092915050565b6000602082019050919050565b600061180082611795565b61180a81856117a0565b9350611815836117b1565b8060005b8381101561184657815161182d88826117d0565b9750611838836117e8565b925050600181019050611819565b5085935050505092915050565b600060e082019050611868600083018a611786565b818103602083015261187a81896114b1565b9050818103604083015261188e81886114b1565b905061189d606083018761161b565b6118aa6080830186611703565b6118b760a08301856116d9565b81810360c08301526118c981846117f5565b905098975050505050505050565b6118e081611698565b81146118eb57600080fd5b50565b6000813590506118fd816118d7565b92915050565b61190c816116cf565b811461191757600080fd5b50565b60008135905061192981611903565b92915050565b600080600080600080600060e0888a03121561194e5761194d61150c565b5b600061195c8a828b0161155a565b975050602061196d8a828b0161155a565b965050604061197e8a828b01611590565b955050606061198f8a828b01611590565b94505060806119a08a828b016118ee565b93505060a06119b18a828b0161191a565b92505060c06119c28a828b0161191a565b91505092959891949750929550565b600080604083850312156119e8576119e761150c565b5b60006119f68582860161155a565b9250506020611a078582860161155a565b9150509250929050565b7f4e487b7100000000000000000000000000000000000000000000000000000000600052602260045260246000fd5b60006002820490506001821680611a5857607f821691505b602082108103611a6b57611a6a611a11565b5b50919050565b7f4e487b7100000000000000000000000000000000000000000000000000000000600052604160045260246000fd5b600060c082019050611ab560008301896116d9565b611ac26020830188611703565b611acf6040830187611703565b611adc606083018661161b565b611ae9608083018561161b565b611af660a083018461161b565b979650505050505050565b6000604082019050611b166000830185611703565b611b236020830184611703565b9392505050565b6000606082019050611b3f6000830186611703565b611b4c602083018561161b565b611b59604083018461161b565b949350505050565b7f4e487b7100000000000000000000000000000000000000000000000000000000600052601160045260246000fd5b6000611b9b8261156f565b9150611ba68361156f565b9250828201905080821115611bbe57611bbd611b61565b5b92915050565b600060a082019050611bd960008301886116d9565b611be660208301876116d9565b611bf360408301866116d9565b611c00606083018561161b565b611c0d6080830184611703565b9695505050505050565b6000608082019050611c2c60008301876116d9565b611c3960208301866116a5565b611c4660408301856116d9565b611c5360608301846116d9565b95945050505050565b7f4e487b7100000000000000000000000000000000000000000000000000000000600052602160045260246000fdfea2646970667358221220585f8cf8cc275fa81a50954df5e7f867fc2ed85aafd60a34ac6945b9385809a364736f6c634300081b0033a2646970667358221220b41bf88e48cd99b9da1b1989d1c0eaffe94f6a95eb178ed470ef907f9c030a1b64736f6c634300081b0033",
  "linkReferences": {},
  "deployedLinkReferences": {}
}